{"abi":[{"type":"constructor","inputs":[{"name":"initialOwner","type":"address","internalType":"address"}],"stateMutability":"nonpayable"},{"type":"function","name":"ORACLE_ROLE","inputs":[],"outputs":[{"name":"","type":"bytes32","internalType":"bytes32"}],"stateMutability":"view"},{"type":"function","name":"confirmDeath","inputs":[{"name":"wallet","type":"address","internalType":"address"},{"name":"deathTimestamp","type":"uint64","internalType":"uint64"},{"name":"proofHash","type":"bytes32","internalType":"bytes32"}],"outputs":[],"stateMutability":"nonpayable"},{"type":"function","name":"deathTimestamp","inputs":[{"name":"wallet","type":"address","internalType":"address"}],"outputs":[{"name":"","type":"uint64","internalType":"uint64"}],"stateMutability":"view"},{"type":"function","name":"grantRole","inputs":[{"name":"role","type":"bytes32","internalType":"bytes32"},{"name":"account","type":"address","internalType":"address"}],"outputs":[],"stateMutability":"nonpayable"},{"type":"function","name":"hasRole","inputs":[{"name":"role","type":"bytes32","internalType":"bytes32"},{"name":"account","type":"address","internalType":"address"}],"outputs":[{"name":"","type":"bool","internalType":"bool"}],"stateMutability":"view"},{"type":"function","name":"isDeceased","inputs":[{"name":"wallet","type":"address","internalType":"address"}],"outputs":[{"name":"","type":"bool","internalType":"bool"}],"stateMutability":"view"},{"type":"function","name":"owner","inputs":[],"outputs":[{"name":"","type":"address","internalType":"address"}],"stateMutability":"view"},{"type":"function","name":"proof","inputs":[{"name":"","type":"address","internalType":"address"}],"outputs":[{"name":"","type":"bytes32","internalType":"bytes32"}],"stateMutability":"view"},{"type":"function","name":"revokeDeath","inputs":[{"name":"wallet","type":"address","internalType":"address"}],"outputs":[],"stateMutability":"nonpayable"},{"type":"function","name":"revokeRole","inputs":[{"name":"role","type":"bytes32","internalType":"bytes32"},{"name":"account","type":"address","internalType":"address"}],"outputs":[],"stateMutability":"nonpayable"},{"type":"function","name":"transferOwnership","inputs":[{"name":"newOwner","type":"address","internalType":"address"}],"outputs":[],"stateMutability":"nonpayable"},{"type":"event","name":"DeathConfirmed","inputs":[{"name":"wallet","type":"address","indexed":true,"internalType":"address"},{"name":"deathTimestamp","type":"uint64","indexed":false,"internalType":"uint64"},{"name":"proofHash","type":"bytes32","indexed":false,"internalType":"bytes32"}],"anonymous":false},{"type":"event","name":"DeathRevoked","inputs":[{"name":"wallet","type":"address","indexed":true,"internalType":"address"}],"anonymous":false},{"type":"event","name":"OwnershipTransferred","inputs":[{"name":"previousOwner","type":"address","indexed":true,"internalType":"address"},{"name":"newOwner","type":"address","indexed":true,"internalType":"address"}],"anonymous":false},{"type":"event","name":"RoleGranted","inputs":[{"name":"role","type":"bytes32","indexed":true,"internalType":"bytes32"},{"name":"account","type":"address","indexed":true,"internalType":"address"}],"anonymous":false},{"type":"event","name":"RoleRevoked","inputs":[{"name":"role","type":"bytes32","indexed":true,"internalType":"bytes32"},{"name":"account","type":"address","indexed":true,"internalType":"address"}],"anonymous":false},{"type":"error","name":"AlreadyDeceased","inputs":[{"name":"wallet","type":"address","internalType":"address"}]},{"type":"error","name":"MissingRole","inputs":[{"name":"role","type":"bytes32","internalType":"bytes32"},{"name":"account","type":"address","internalType":"address"}]},{"type":"error","name":"NotKnownDead","inputs":[{"name":"wallet","type":"address","internalType":"address"}]},{"type":"error","name":"NotOwner","inputs":[]},{"type":"error","name":"ZeroAddress","inputs":[]}],"bytecode":{"object":"0x6080346100b057601f61073638819003918201601f19168301916001600160401b038311848410176100b5578084926020946040528339810103126100b057516001600160a01b038116908190036100b057801561009e57600080546001600160a01b0319168217815560405191907f8be0079c531659141344cd1fd0a4f28419497f9722a3daafe3b4186f6b6457e08180a361066a90816100cc8239f35b60405163d92e233d60e01b8152600490fd5b600080fd5b634e487b7160e01b600052604160045260246000fdfe608060408181526004918236101561001657600080fd5b600092833560e01c91826307e2cea5146105c9575081632f2ff15d14610528578163316d2a001461046b5781636fc2923d146104335781638da5cb5b1461040b57816391d14854146103c4578163a156b83114610266578163b6be690214610223578163d547741f14610178578163f2fde38b146100e5575063fac82a4c1461009e57600080fd5b346100e15760203660031901126100e15760209167ffffffffffffffff9082906001600160a01b036100ce61061e565b1681526002855220541615159051908152f35b5080fd5b9050346101745760203660031901126101745761010061061e565b8354916001600160a01b038084169233849003610164571693841561015757505082907f8be0079c531659141344cd1fd0a4f28419497f9722a3daafe3b4186f6b6457e08580a36001600160a01b03191617815580f35b5163d92e233d60e01b8152fd5b85516330cd747160e01b81528390fd5b8280fd5b91905034610174578060031936011261017457813590610196610603565b845490936001600160a01b0391821633036102155750828552600160205281852093169283855260205260ff81852054166101cf578380f35b8184526001602052808420838552602052832060ff1981541690557f155aaafb6329a2098580462df33ec4b7441b19729b9601c5fc17ae1cf99a8a528380a33880808380f35b82516330cd747160e01b8152fd5b5050346100e15760203660031901126100e15760209167ffffffffffffffff9082906001600160a01b0361025561061e565b168152600285522054169051908152f35b839150346100e15760603660031901126100e15761028261061e565b926024359367ffffffffffffffff808616958681036103c057604435917f68e79a7bf1e0bc45d0a330c573bc367f9cf464fd326078812f301165fbda4ef19182885260209260018452868920338a52845260ff878a205416156103a457506001600160a01b03909416958615610396578688526002835281868920541661037f5750877f13fa9622699f9a6ef338a40f44e499a6cd10d36b3b9089ada91ea579eb12dec596979815908115610375575b5061036b575b868852600282528488209316928367ffffffffffffffff198254161790556003815281848820558351928352820152a280f35b4281169350610338565b9050421089610332565b855163ea22d84d60e01b8152908101879052602490fd5b855163d92e233d60e01b8152fd5b876044918851916301d4003760e61b8352820152336024820152fd5b8580fd5b9050346101745781600319360112610174578160209360ff926103e5610603565b90358252600186528282206001600160a01b039091168252855220549151911615158152f35b5050346100e157816003193601126100e157905490516001600160a01b039091168152602090f35b5050346100e15760203660031901126100e15760209181906001600160a01b0361045b61061e565b1681526003845220549051908152f35b919050346101745760203660031901126101745761048761061e565b83546001600160a01b03919082163303610519571691828452600260205267ffffffffffffffff82852054161561050457508290828252600260205280822067ffffffffffffffff19815416905560036020528120557f4aa0a597093905d76b4cd51107ff48bba78891da9a1156d0924d228b070a33308280a280f35b826024925191635678f0e760e11b8352820152fd5b5050516330cd747160e01b8152fd5b91905034610174578060031936011261017457813590610546610603565b845490936001600160a01b0391821633036102155750828552600160205281852093169283855260205260ff818520541615610580578380f35b81845260016020528084208385526020528320600160ff198254161790557f2ae6a113c0ed5b78a53413ffbb7679881f11145ccfba4fb92e863dfcd5a1d2f38380a33880808380f35b8490346100e157816003193601126100e157807f68e79a7bf1e0bc45d0a330c573bc367f9cf464fd326078812f301165fbda4ef160209252f35b602435906001600160a01b038216820361061957565b600080fd5b600435906001600160a01b03821682036106195756fea26469706673582212201e9afeca91d012389725aa21783c6d425eebacbb91be8a2a17396f7df328243264736f6c63430008180033","linkReferences":{}},"methodIdentifiers":{"ORACLE_ROLE()":"07e2cea5","confirmDeath(address,uint64,bytes32)":"a156b831","deathTimestamp(address)":"b6be6902","grantRole(bytes32,address)":"2f2ff15d","hasRole(bytes32,address)":"91d14854","isDeceased(address)":"fac82a4c","owner()":"8da5cb5b","proof(address)":"6fc2923d","revokeDeath(address)":"316d2a00","revokeRole(bytes32,address)":"d547741f","transferOwnership(address)":"f2fde38b"},"id":24}