{"abi":[{"type":"constructor","inputs":[{"name":"initialOwner","type":"address","internalType":"address"}],"stateMutability":"nonpayable"},{"type":"function","name":"BASELINE_ROLE","inputs":[],"outputs":[{"name":"","type":"bytes32","internalType":"bytes32"}],"stateMutability":"view"},{"type":"function","name":"PROPOSER_ROLE","inputs":[],"outputs":[{"name":"","type":"bytes32","internalType":"bytes32"}],"stateMutability":"view"},{"type":"function","name":"baselineEpv","inputs":[{"name":"cohort","type":"uint16","internalType":"uint16"}],"outputs":[{"name":"","type":"int256","internalType":"int256"}],"stateMutability":"view"},{"type":"function","name":"getProposal","inputs":[{"name":"id","type":"uint256","internalType":"uint256"}],"outputs":[{"name":"","type":"tuple","internalType":"struct IFairnessGate.Proposal","components":[{"name":"name","type":"string","internalType":"string"},{"name":"cohorts","type":"uint16[]","internalType":"uint16[]"},{"name":"newEpvs","type":"int256[]","internalType":"int256[]"},{"name":"delta","type":"uint256","internalType":"uint256"},{"name":"proposer","type":"address","internalType":"address"},{"name":"submittedAt","type":"uint64","internalType":"uint64"},{"name":"accepted","type":"bool","internalType":"bool"}]}],"stateMutability":"view"},{"type":"function","name":"grantRole","inputs":[{"name":"role","type":"bytes32","internalType":"bytes32"},{"name":"account","type":"address","internalType":"address"}],"outputs":[],"stateMutability":"nonpayable"},{"type":"function","name":"hasRole","inputs":[{"name":"role","type":"bytes32","internalType":"bytes32"},{"name":"account","type":"address","internalType":"address"}],"outputs":[{"name":"","type":"bool","internalType":"bool"}],"stateMutability":"view"},{"type":"function","name":"owner","inputs":[],"outputs":[{"name":"","type":"address","internalType":"address"}],"stateMutability":"view"},{"type":"function","name":"proposalCount","inputs":[],"outputs":[{"name":"","type":"uint256","internalType":"uint256"}],"stateMutability":"view"},{"type":"function","name":"revokeRole","inputs":[{"name":"role","type":"bytes32","internalType":"bytes32"},{"name":"account","type":"address","internalType":"address"}],"outputs":[],"stateMutability":"nonpayable"},{"type":"function","name":"setBaseline","inputs":[{"name":"cohorts","type":"uint16[]","internalType":"uint16[]"},{"name":"epvs","type":"int256[]","internalType":"int256[]"}],"outputs":[],"stateMutability":"nonpayable"},{"type":"function","name":"submitAndEvaluate","inputs":[{"name":"name","type":"string","internalType":"string"},{"name":"cohorts","type":"uint16[]","internalType":"uint16[]"},{"name":"newEpvs","type":"int256[]","internalType":"int256[]"},{"name":"delta","type":"uint256","internalType":"uint256"}],"outputs":[{"name":"id","type":"uint256","internalType":"uint256"},{"name":"passes","type":"bool","internalType":"bool"}],"stateMutability":"nonpayable"},{"type":"function","name":"transferOwnership","inputs":[{"name":"newOwner","type":"address","internalType":"address"}],"outputs":[],"stateMutability":"nonpayable"},{"type":"event","name":"BaselineSet","inputs":[{"name":"cohorts","type":"uint16[]","indexed":false,"internalType":"uint16[]"},{"name":"epvs","type":"int256[]","indexed":false,"internalType":"int256[]"}],"anonymous":false},{"type":"event","name":"OwnershipTransferred","inputs":[{"name":"previousOwner","type":"address","indexed":true,"internalType":"address"},{"name":"newOwner","type":"address","indexed":true,"internalType":"address"}],"anonymous":false},{"type":"event","name":"ProposalAccepted","inputs":[{"name":"id","type":"uint256","indexed":true,"internalType":"uint256"}],"anonymous":false},{"type":"event","name":"ProposalEvaluated","inputs":[{"name":"id","type":"uint256","indexed":true,"internalType":"uint256"},{"name":"passes","type":"bool","indexed":false,"internalType":"bool"},{"name":"maxDeviation","type":"uint256","indexed":false,"internalType":"uint256"},{"name":"worstA","type":"uint16","indexed":false,"internalType":"uint16"},{"name":"worstB","type":"uint16","indexed":false,"internalType":"uint16"}],"anonymous":false},{"type":"event","name":"ProposalRejected","inputs":[{"name":"id","type":"uint256","indexed":true,"internalType":"uint256"}],"anonymous":false},{"type":"event","name":"ProposalSubmitted","inputs":[{"name":"id","type":"uint256","indexed":true,"internalType":"uint256"},{"name":"name","type":"string","indexed":false,"internalType":"string"},{"name":"proposer","type":"address","indexed":true,"internalType":"address"}],"anonymous":false},{"type":"event","name":"RoleGranted","inputs":[{"name":"role","type":"bytes32","indexed":true,"internalType":"bytes32"},{"name":"account","type":"address","indexed":true,"internalType":"address"}],"anonymous":false},{"type":"event","name":"RoleRevoked","inputs":[{"name":"role","type":"bytes32","indexed":true,"internalType":"bytes32"},{"name":"account","type":"address","indexed":true,"internalType":"address"}],"anonymous":false},{"type":"error","name":"DeltaTooHigh","inputs":[{"name":"delta","type":"uint256","internalType":"uint256"}]},{"type":"error","name":"EmptyCohorts","inputs":[]},{"type":"error","name":"LengthMismatch","inputs":[]},{"type":"error","name":"MissingRole","inputs":[{"name":"role","type":"bytes32","internalType":"bytes32"},{"name":"account","type":"address","internalType":"address"}]},{"type":"error","name":"NoBaselineForCohort","inputs":[{"name":"cohort","type":"uint16","internalType":"uint16"}]},{"type":"error","name":"NotOwner","inputs":[]},{"type":"error","name":"ZeroAddress","inputs":[]}],"bytecode":{"object":"0x6080346100b057601f61181e38819003918201601f19168301916001600160401b038311848410176100b5578084926020946040528339810103126100b057516001600160a01b038116908190036100b057801561009e57600080546001600160a01b0319168217815560405191907f8be0079c531659141344cd1fd0a4f28419497f9722a3daafe3b4186f6b6457e08180a361175290816100cc8239f35b60405163d92e233d60e01b8152600490fd5b600080fd5b634e487b7160e01b600052604160045260246000fdfe608080604052600436101561001357600080fd5b60003560e01c9081632071887c14611521575080632496469e146114e657806328c1e2b8146112235780632f2ff15d1461117c5780638da5cb5b146111535780638f61f4f51461111857806391d14854146110cb57806397e4df17146107b8578063c7f758a8146101fe578063d547741f1461015b578063da35c6641461013d5763f2fde38b146100a357600080fd5b34610138576020366003190112610138576004356001600160a01b0381811691829003610138576000549081168033036101265782156101145782907f8be0079c531659141344cd1fd0a4f28419497f9722a3daafe3b4186f6b6457e0600080a36001600160a01b03191617600055005b60405163d92e233d60e01b8152600490fd5b6040516330cd747160e01b8152600490fd5b600080fd5b34610138576000366003190112610138576020600454604051908152f35b3461013857604036600319011261013857600435610177611587565b6000549091906001600160a01b0390811633036101265781600052600160205260406000209216918260005260205260ff604060002054166101b557005b806000526001602052604060002082600052602052604060002060ff1981541690557f155aaafb6329a2098580462df33ec4b7441b19729b9601c5fc17ae1cf99a8a52600080a3005b3461013857602036600319011261013857600060c060405161021f81611648565b6060815260606020820152606060408201528260608201528260808201528260a082015201526102506004356115d3565b506040519061025e82611648565b604051815481600061026f8361160e565b80835292600181169081156107995750600114610755575b61029392500382611664565b82526040518081602060018501549283815201600185016000526020600020926000905b80600f83011061066d5761034d945491818110610658575b818110610640575b818110610629575b818110610611575b8181106105f9575b8181106105e1575b8181106105c9575b8181106105b1575b818110610599575b818110610581575b818110610569575b818110610551575b818110610539575b818110610521575b818110610509575b106104fb575b500382611664565b60208301526002810160405190816020825491828152019160005260206000209060005b8181106104e5578660ff6004888861038b818a0382611664565b604085015260038101546060850152015460018060a01b038116608084015267ffffffffffffffff8160a01c1660a084015260e01c16151560c082015260405160208152815160e060208301528051908161010084015260005b8281106104ce575050610120906000828285010152601f801991011682019081016020610140818601519361010086820301604087015284518094520192019060005b8181106104b457505050604083015190601f198382030160608401526020808351928381520192019060005b81811061049e5750505060c083606084950151608085015260018060a01b0360808201511660a085015267ffffffffffffffff60a082015116828501520151151560e08301520390f35b8251845260209384019390920191600101610454565b825161ffff16845260209384019390920191600101610428565b8060208092840101516101208287010152016103e5565b8254845260209093019260019283019201610371565b60f01c815260200186610345565b92602060019161ffff8560e01c16815201930161033f565b92602060019161ffff8560d01c168152019301610337565b92602060019161ffff8560c01c16815201930161032f565b92602060019161ffff8560b01c168152019301610327565b92602060019161ffff8560a01c16815201930161031f565b92602060019161ffff8560901c168152019301610317565b92602060019161ffff8560801c16815201930161030f565b92602060019161ffff8560701c168152019301610307565b92602060019161ffff8560601c1681520193016102ff565b92602060019161ffff8560501c1681520193016102f7565b92602060019161ffff8560401c1681520193016102ef565b92602060019161ffff8560301c1681520193016102e7565b92602060019161ffff85831c1681520193016102df565b92602060019161ffff8560101c1681520193016102d7565b92602060019161ffff851681520193016102cf565b916010919350610200600191865461ffff8116825261ffff81861c16602083015261ffff8160201c16604083015261ffff8160301c16606083015261ffff8160401c16608083015261ffff8160501c1660a083015261ffff8160601c1660c083015261ffff8160701c1660e083015261ffff8160801c1661010083015261ffff8160901c1661012083015261ffff8160a01c1661014083015261ffff8160b01c1661016083015261ffff8160c01c1661018083015261ffff8160d01c166101a083015261ffff8160e01c166101c083015260f01c6101e08201520194019201849293916102b7565b5090836000526020600020906000915b81831061077d57505090602061029392820101610287565b6020919350806001915483858801015201910190918392610765565b6020925061029394915060ff191682840152151560051b820101610287565b346101385760803660031901126101385767ffffffffffffffff60043511610138573660236004350112156101385767ffffffffffffffff600435600401351161013857366024600435600401356004350101116101385760243567ffffffffffffffff811161013857610830903690600401611556565b9060443567ffffffffffffffff811161013857610851903690600401611556565b3360009081527fab0abe0ac784c8cb7ff2dde6fca8a20d1ab21f792e5ef34b43f146db4890393c6020526040902054919290917fb09aa5aeb3702cfd50b6b62bc4532604938f21248a27a1d5ca736082b6819cc19060ff16156110ad575081840361109857831561108657670de0b6b3a76400006064351161106c5760045492600160401b841015610cad57600184016004556108ed846115d3565b50506108f8846115d3565b5092610904845461160e565b601f811161102a575b506000601f6004356004013511600114610fa45760009060043560040135610f94575b506004356004013560011b906000196004356004013560031b1c19161784555b6004840180546001600160e01b0319163367ffffffffffffffff60a01b1916174260a01b67ffffffffffffffff60a01b16179055606435600385015560005b868110610ecd57506040519360208552600435600401356020860152600435600401356024600435016040870137600060406004356004013587010152601f1994867fdc252f306703b21a06942a9125a974da8820ba330c08939ece178742bbc439a733926040818a601f6004356004013501168101030190a3600090600090610a1889611686565b96610a266040519889611664565b898852610a328a611686565b01366020890137600089815b818310610e2b57610a4f92506116dc565b8015610e23575b908893929160009860005b8c8110610d2f57505050600401805460ff60e01b19166064358981101560e01b60ff60e01b1691909117909155604080519189111582526020820189905261ffff93841690820152911660608201527fe45510d13ca49e02028e45a07142e1aff6b7db3fff3cf0470c444d86b03761a690608090a26064358411610cfd5760005b868110610cc35750505067ffffffffffffffff8411610cad57600160401b8411610cad5760035484600355808510610c34575b509260036000528060041c60005b818110610bd95750600f1982169091039081610b78575b505060409250817fd24c2047577899547bacebb29e319fc7d73f6712b5adb401d45556f34bb2aa3b600080a25b825191825260643510156020820152f35b60009485925b808710610ba3575050604094506000805160206116fd83398151915201558380610b3a565b90926020610bce600192610bb6876115c4565b908a851b60031b9161ffff809116831b921b19161790565b940196019590610b7e565b6000805b60108110610c0057506000805160206116fd833981519152820155600101610b23565b96906020610c2b600192610c13856115c4565b908b851b60031b9161ffff809116831b921b19161790565b92019701610bdd565b610c6c90600f860160041c600f6000805160206116fd83398151915292601e8960011b1680610c72575b500160041c8201910161159d565b84610b15565b7fc2575a0e9e593c00f959f8c92f12db2869c3395a3b0502d05e2516446f71f85a8401908154906000199060200360031b1c16905589610c5e565b634e487b7160e01b600052604160045260246000fd5b80610cd160019284866115b4565b3561ffff610ce8610ce3848c8a6115b4565b6115c4565b16600052600260205260406000205501610ae2565b50505060409250817fd92fba445edb3153b571e6df782d7a66fd0ce668519273670820ee3a86da0ef4600080a2610b67565b90919293949550600181018111610dff57600181015b8c8110610d5c5750600101908a9594939291610a61565b610d7b610d6983856116b7565b51610d7483866116b7565b519061169e565b60008112610e15575b80670de0b6b3a7640000810204670de0b6b3a76400001481151715610dff5784670de0b6b3a7640000610db792026116dc565b8b8111610dc8575b50600101610d45565b9a509095509350610dda858c8a6115b4565b610de3906115c4565b94610def858d8b6115b4565b610df8906115c4565b948d610dbf565b634e487b7160e01b600052601160045260246000fd5b610e1e906116cb565b610d84565b506001610a56565b908290610e40610ce361ffff9384938d6115b4565b166000526002602052604060002054908115610ea55750610e6c81610e66858a8c6115b4565b3561169e565b610e76848c6116b7565b5260008112610e97575b8082018211610dff57600191019101908a90610a3e565b610ea0906116cb565b610e80565b60249150610eb7610ce3858f8d6115b4565b604051636c63309360e11b815291166004820152fd5b610edb610ce38289876115b4565b6001860154600160401b811015610cad5760018101806001890155811015610f7e57610f359060018801600052601e61ffff60206000208360041c0194169160011b1683549060031b9161ffff809116831b921b19161790565b9055610f428183856115b4565b3590600286015491600160401b831015610cad5760018301806002890155831015610f7e5760019260028801600052602060002001550161098f565b634e487b7160e01b600052603260045260246000fd5b6024915060043501013587610930565b8460005260206000209060005b600480350135601f1916811061100d5750600480350135601f19811610610fe8575b5050600160043560040135811b018455610950565b602460001960f86004356004013560031b161c19916004350101351690558680610fd3565b909160206001819260248660043501013581550193019101610fb1565b600085815260209081902061105c92600480350135601f810160051c83019311611062575b601f0160051c019061159d565b8661090d565b909150819061104f565b60405163762745c760e01b81526064356004820152602490fd5b604051632d8f4d1560e11b8152600490fd5b6040516001621398b960e31b03198152600490fd5b604490604051906301d4003760e61b82526004820152336024820152fd5b34610138576040366003190112610138576110e4611587565b600435600052600160205260406000209060018060a01b0316600052602052602060ff604060002054166040519015158152f35b346101385760003660031901126101385760206040517fb09aa5aeb3702cfd50b6b62bc4532604938f21248a27a1d5ca736082b6819cc18152f35b34610138576000366003190112610138576000546040516001600160a01b039091168152602090f35b3461013857604036600319011261013857600435611198611587565b6000549091906001600160a01b0390811633036101265781600052600160205260406000209216918260005260205260ff60406000205416156111d757005b8060005260016020526040600020826000526020526040600020600160ff198254161790557f2ae6a113c0ed5b78a53413ffbb7679881f11145ccfba4fb92e863dfcd5a1d2f3600080a3005b346101385760403660031901126101385767ffffffffffffffff60043581811161013857611255903690600401611556565b909160249060243590811161013857611272903690600401611556565b90937f73da78343b6ce330897c6b382bce766962bda4698c6113a170c34403c27818a19081600052600193602092858452604060002033600052845260ff60406000205416156110ad575083860361109857851561108657846000815b61149f575b5050600380546000825580611466575b506000959493955b87811061139557505050604051948060408701604088525260608601919060005b81811061136a57505050848103848601528181528301949260005b828110611357577f5dde9c42c3a745a28224405474fef698bf00afc9d3d19803c10475f5f55c30a486880387a1005b8435875295810195938101938301611328565b9091928396949596359061ffff8216809203610138579081529395949386019286019190850161130d565b6113a481868b999798996115b4565b3561ffff90816113b8610ce3858d8a6115b4565b16600052600287526040600020556113d4610ce3838b886115b4565b90835490600160401b8210156114515789820180865582101561143c5789939291601e61143092876000528260041c6000805160206116fd83398151915201941691861b1683549060031b9161ffff809116831b921b19161790565b905501959493956112ec565b85634e487b7160e01b60005260326004526000fd5b85634e487b7160e01b60005260416004526000fd5b8160005286600f6000805160206116fd833981519152920160041c8201915b8281106114935750506112e4565b60008155018790611485565b6003548110156114e1578061ffff839260041c6000805160206116fd833981519152015460f08360041b161c16600052600286526000604081205501816112cf565b6112d4565b346101385760003660031901126101385760206040517f73da78343b6ce330897c6b382bce766962bda4698c6113a170c34403c27818a18152f35b34610138576020366003190112610138576004359061ffff821680920361013857602091600052600282526040600020548152f35b9181601f840112156101385782359167ffffffffffffffff8311610138576020808501948460051b01011161013857565b602435906001600160a01b038216820361013857565b8181106115a8575050565b6000815560010161159d565b9190811015610f7e5760051b0190565b3561ffff811681036101385790565b600454811015610f7e576005906004600052027f8a35acfbc15ff81a39ae7d344fd709f28e8600b4aa8c65c6b64bfe7fe36bd19b0190600090565b90600182811c9216801561163e575b602083101461162857565b634e487b7160e01b600052602260045260246000fd5b91607f169161161d565b60e0810190811067ffffffffffffffff821117610cad57604052565b90601f8019910116810190811067ffffffffffffffff821117610cad57604052565b67ffffffffffffffff8111610cad5760051b60200190565b81810392916000138015828513169184121617610dff57565b8051821015610f7e5760209160051b010190565b600160ff1b8114610dff5760000390565b81156116e6570490565b634e487b7160e01b600052601260045260246000fdfec2575a0e9e593c00f959f8c92f12db2869c3395a3b0502d05e2516446f71f85ba264697066735822122066b9ed09758564d4869959f8c2058acbeaff631dfdd8a355ac44ff1ce3234bbd64736f6c63430008180033","linkReferences":{}},"methodIdentifiers":{"BASELINE_ROLE()":"2496469e","PROPOSER_ROLE()":"8f61f4f5","baselineEpv(uint16)":"2071887c","getProposal(uint256)":"c7f758a8","grantRole(bytes32,address)":"2f2ff15d","hasRole(bytes32,address)":"91d14854","owner()":"8da5cb5b","proposalCount()":"da35c664","revokeRole(bytes32,address)":"d547741f","setBaseline(uint16[],int256[])":"28c1e2b8","submitAndEvaluate(string,uint16[],int256[],uint256)":"97e4df17","transferOwnership(address)":"f2fde38b"},"id":22}