{"abi":[{"type":"constructor","inputs":[{"name":"initialOwner","type":"address","internalType":"address"}],"stateMutability":"nonpayable"},{"type":"function","name":"BALLOT_ADMIN_ROLE","inputs":[],"outputs":[{"name":"","type":"bytes32","internalType":"bytes32"}],"stateMutability":"view"},{"type":"function","name":"SNAPSHOT_ROLE","inputs":[],"outputs":[{"name":"","type":"bytes32","internalType":"bytes32"}],"stateMutability":"view"},{"type":"function","name":"ballotCount","inputs":[],"outputs":[{"name":"","type":"uint256","internalType":"uint256"}],"stateMutability":"view"},{"type":"function","name":"castVote","inputs":[{"name":"ballotId","type":"uint256","internalType":"uint256"},{"name":"portfolioId","type":"bytes32","internalType":"bytes32"}],"outputs":[],"stateMutability":"nonpayable"},{"type":"function","name":"createBallot","inputs":[{"name":"name","type":"string","internalType":"string"},{"name":"portfolioIds","type":"bytes32[]","internalType":"bytes32[]"},{"name":"allocationHashes","type":"bytes32[]","internalType":"bytes32[]"},{"name":"opensAt","type":"uint64","internalType":"uint64"},{"name":"closesAt","type":"uint64","internalType":"uint64"}],"outputs":[],"stateMutability":"nonpayable"},{"type":"function","name":"finalizeBallot","inputs":[{"name":"ballotId","type":"uint256","internalType":"uint256"}],"outputs":[],"stateMutability":"nonpayable"},{"type":"function","name":"getAllocationHash","inputs":[{"name":"ballotId","type":"uint256","internalType":"uint256"},{"name":"portfolioId","type":"bytes32","internalType":"bytes32"}],"outputs":[{"name":"","type":"bytes32","internalType":"bytes32"}],"stateMutability":"view"},{"type":"function","name":"getBallot","inputs":[{"name":"ballotId","type":"uint256","internalType":"uint256"}],"outputs":[{"name":"","type":"tuple","internalType":"struct IInvestmentPolicyBallot.BallotView","components":[{"name":"id","type":"uint256","internalType":"uint256"},{"name":"name","type":"string","internalType":"string"},{"name":"opensAt","type":"uint64","internalType":"uint64"},{"name":"closesAt","type":"uint64","internalType":"uint64"},{"name":"finalizedAt","type":"uint64","internalType":"uint64"},{"name":"finalized","type":"bool","internalType":"bool"},{"name":"winnerPortfolioId","type":"bytes32","internalType":"bytes32"},{"name":"adoptedAllocationHash","type":"bytes32","internalType":"bytes32"},{"name":"totalEligibleWeight","type":"uint256","internalType":"uint256"},{"name":"totalVotesWeight","type":"uint256","internalType":"uint256"}]}],"stateMutability":"view"},{"type":"function","name":"getPortfolioIds","inputs":[{"name":"ballotId","type":"uint256","internalType":"uint256"}],"outputs":[{"name":"","type":"bytes32[]","internalType":"bytes32[]"}],"stateMutability":"view"},{"type":"function","name":"getTally","inputs":[{"name":"ballotId","type":"uint256","internalType":"uint256"},{"name":"portfolioId","type":"bytes32","internalType":"bytes32"}],"outputs":[{"name":"","type":"uint256","internalType":"uint256"}],"stateMutability":"view"},{"type":"function","name":"grantRole","inputs":[{"name":"role","type":"bytes32","internalType":"bytes32"},{"name":"account","type":"address","internalType":"address"}],"outputs":[],"stateMutability":"nonpayable"},{"type":"function","name":"hasRole","inputs":[{"name":"role","type":"bytes32","internalType":"bytes32"},{"name":"account","type":"address","internalType":"address"}],"outputs":[{"name":"","type":"bool","internalType":"bool"}],"stateMutability":"view"},{"type":"function","name":"hasVoted","inputs":[{"name":"ballotId","type":"uint256","internalType":"uint256"},{"name":"voter","type":"address","internalType":"address"}],"outputs":[{"name":"","type":"bool","internalType":"bool"}],"stateMutability":"view"},{"type":"function","name":"owner","inputs":[],"outputs":[{"name":"","type":"address","internalType":"address"}],"stateMutability":"view"},{"type":"function","name":"revokeRole","inputs":[{"name":"role","type":"bytes32","internalType":"bytes32"},{"name":"account","type":"address","internalType":"address"}],"outputs":[],"stateMutability":"nonpayable"},{"type":"function","name":"setBallotWeights","inputs":[{"name":"ballotId","type":"uint256","internalType":"uint256"},{"name":"voters","type":"address[]","internalType":"address[]"},{"name":"weights","type":"uint256[]","internalType":"uint256[]"}],"outputs":[],"stateMutability":"nonpayable"},{"type":"function","name":"transferOwnership","inputs":[{"name":"newOwner","type":"address","internalType":"address"}],"outputs":[],"stateMutability":"nonpayable"},{"type":"function","name":"weightOf","inputs":[{"name":"ballotId","type":"uint256","internalType":"uint256"},{"name":"voter","type":"address","internalType":"address"}],"outputs":[{"name":"","type":"uint256","internalType":"uint256"}],"stateMutability":"view"},{"type":"event","name":"BallotCreated","inputs":[{"name":"ballotId","type":"uint256","indexed":true,"internalType":"uint256"},{"name":"name","type":"string","indexed":false,"internalType":"string"},{"name":"opensAt","type":"uint64","indexed":false,"internalType":"uint64"},{"name":"closesAt","type":"uint64","indexed":false,"internalType":"uint64"}],"anonymous":false},{"type":"event","name":"BallotFinalized","inputs":[{"name":"ballotId","type":"uint256","indexed":true,"internalType":"uint256"},{"name":"winnerPortfolioId","type":"bytes32","indexed":true,"internalType":"bytes32"},{"name":"adoptedAllocationHash","type":"bytes32","indexed":false,"internalType":"bytes32"},{"name":"winningWeight","type":"uint256","indexed":false,"internalType":"uint256"},{"name":"finalizedAt","type":"uint64","indexed":false,"internalType":"uint64"}],"anonymous":false},{"type":"event","name":"BallotPortfolioRegistered","inputs":[{"name":"ballotId","type":"uint256","indexed":true,"internalType":"uint256"},{"name":"portfolioId","type":"bytes32","indexed":true,"internalType":"bytes32"},{"name":"allocationHash","type":"bytes32","indexed":false,"internalType":"bytes32"}],"anonymous":false},{"type":"event","name":"BallotWeightsPublished","inputs":[{"name":"ballotId","type":"uint256","indexed":true,"internalType":"uint256"},{"name":"voterCount","type":"uint256","indexed":false,"internalType":"uint256"},{"name":"totalEligibleWeight","type":"uint256","indexed":false,"internalType":"uint256"}],"anonymous":false},{"type":"event","name":"OwnershipTransferred","inputs":[{"name":"previousOwner","type":"address","indexed":true,"internalType":"address"},{"name":"newOwner","type":"address","indexed":true,"internalType":"address"}],"anonymous":false},{"type":"event","name":"RoleGranted","inputs":[{"name":"role","type":"bytes32","indexed":true,"internalType":"bytes32"},{"name":"account","type":"address","indexed":true,"internalType":"address"}],"anonymous":false},{"type":"event","name":"RoleRevoked","inputs":[{"name":"role","type":"bytes32","indexed":true,"internalType":"bytes32"},{"name":"account","type":"address","indexed":true,"internalType":"address"}],"anonymous":false},{"type":"event","name":"VoteCast","inputs":[{"name":"ballotId","type":"uint256","indexed":true,"internalType":"uint256"},{"name":"voter","type":"address","indexed":true,"internalType":"address"},{"name":"portfolioId","type":"bytes32","indexed":true,"internalType":"bytes32"},{"name":"weight","type":"uint256","indexed":false,"internalType":"uint256"}],"anonymous":false},{"type":"error","name":"AlreadyVoted","inputs":[{"name":"ballotId","type":"uint256","internalType":"uint256"},{"name":"voter","type":"address","internalType":"address"}]},{"type":"error","name":"BallotAlreadyFinalized","inputs":[{"name":"ballotId","type":"uint256","internalType":"uint256"}]},{"type":"error","name":"BallotNotClosed","inputs":[{"name":"ballotId","type":"uint256","internalType":"uint256"},{"name":"closesAt","type":"uint64","internalType":"uint64"},{"name":"timestamp","type":"uint64","internalType":"uint64"}]},{"type":"error","name":"BallotNotOpen","inputs":[{"name":"ballotId","type":"uint256","internalType":"uint256"},{"name":"opensAt","type":"uint64","internalType":"uint64"},{"name":"closesAt","type":"uint64","internalType":"uint64"},{"name":"timestamp","type":"uint64","internalType":"uint64"}]},{"type":"error","name":"DuplicatePortfolio","inputs":[{"name":"portfolioId","type":"bytes32","internalType":"bytes32"}]},{"type":"error","name":"DuplicateWeightSnapshot","inputs":[{"name":"voter","type":"address","internalType":"address"}]},{"type":"error","name":"EmptyPortfolioSet","inputs":[]},{"type":"error","name":"IneligibleVoter","inputs":[{"name":"voter","type":"address","internalType":"address"}]},{"type":"error","name":"InvalidBallotWindow","inputs":[]},{"type":"error","name":"LengthMismatch","inputs":[]},{"type":"error","name":"MissingRole","inputs":[{"name":"role","type":"bytes32","internalType":"bytes32"},{"name":"account","type":"address","internalType":"address"}]},{"type":"error","name":"NotOwner","inputs":[]},{"type":"error","name":"UnknownPortfolio","inputs":[{"name":"portfolioId","type":"bytes32","internalType":"bytes32"}]},{"type":"error","name":"ZeroAddress","inputs":[]}],"bytecode":{"object":"0x6080346100b057601f61153538819003918201601f19168301916001600160401b038311848410176100b5578084926020946040528339810103126100b057516001600160a01b038116908190036100b057801561009e57600080546001600160a01b0319168217815560405191907f8be0079c531659141344cd1fd0a4f28419497f9722a3daafe3b4186f6b6457e08180a361146990816100cc8239f35b60405163d92e233d60e01b8152600490fd5b600080fd5b634e487b7160e01b600052604160045260246000fdfe608080604052600436101561001357600080fd5b60003560e01c9081632f2ff15d146112245750806343859632146111d75780634716c6e414610f8a57806348e2576514610aea5780636122e0fd14610a4457806364f1012d14610a115780636be2a1bd146108285780637028e2cd146107ed5780637b3ef616146105d65780638935ced51461058e5780638da5cb5b1461056557806391d1485414610518578063c0030032146104fa578063d547741f14610457578063eb6b9c8f14610424578063f2fde38b1461038f578063f9d5ee75146101255763fa5571ac146100e557600080fd5b346101205760003660031901126101205760206040517f4ca0d59cc1b5287d79308a67dd1f559e1a372cf529631d9beca39da81510ebb38152f35b600080fd5b3461012057602036600319011261012057600435600061012060405161014a816113f6565b828152606060208201528260408201528260608201528260808201528260a08201528260c08201528260e082015282610100820152015261018a81611369565b5060018101546002820154600383015490600484015492600585015494604051966101b4886113f6565b8752604051906000908054906101c9826113a4565b80855291600181169081156103685750600114610323575b5050906101f38160ff94930382611412565b60208801526001600160401b03811660408801526001600160401b038160401c1660608801526001600160401b038160801c16608088015260c01c16151560a086015260c085015260e08401526101008301526101208201526040519060208252805160208301528160208201519161014060408301528251928361016084015260005b84811061030a575050916101206101809360008584860101526001600160401b0360408201511660608501526001600160401b0360608201511660808501526001600160401b0360808201511660a085015260a0810151151560c085015260c081015160e085015260e0810151610100850152610100810151828501520151610140830152601f80199101168101030190f35b6020828201810151610180888401015286945001610277565b60009081526020812094939250905b80821061034c57509192509081016020016101f3826101e1565b9192936001816020925483858801015201910190939291610332565b60ff191660208087019190915292151560051b850190920192506101f391508390506101e1565b34610120576020366003190112610120576004356001600160a01b0381811691829003610120576000549081168033036104125782156104005782907f8be0079c531659141344cd1fd0a4f28419497f9722a3daafe3b4186f6b6457e0600080a36001600160a01b03191617600055005b60405163d92e233d60e01b8152600490fd5b6040516330cd747160e01b8152600490fd5b346101205761043236611320565b9060005260036020526040600020906000526020526020604060002054604051908152f35b34610120576040366003190112610120576004356104736112da565b6000549091906001600160a01b0390811633036104125781600052600160205260406000209216918260005260205260ff604060002054166104b157005b806000526001602052604060002082600052602052604060002060ff1981541690557f155aaafb6329a2098580462df33ec4b7441b19729b9601c5fc17ae1cf99a8a52600080a3005b34610120576000366003190112610120576020600254604051908152f35b34610120576040366003190112610120576105316112da565b600435600052600160205260406000209060018060a01b0316600052602052602060ff604060002054166040519015158152f35b34610120576000366003190112610120576000546040516001600160a01b039091168152602090f35b34610120576040366003190112610120576105a76112da565b600435600052600560205260406000209060018060a01b03166000526020526020604060002054604051908152f35b3461012057602080600319360112610120576004357f4ca0d59cc1b5287d79308a67dd1f559e1a372cf529631d9beca39da81510ebb3918260005260019260018252604060002033600052825260ff60406000205416156107cf575061063b82611369565b5090600182019081549060ff8260c01c166107b6576001600160401b0393848360401c1680421061079057506006810192835497881561077a578460005283600020549888600052600780865260406000208b60005286526040600020549660015b838110610734578c8c7fd9540c9990cba179897acd9f90271182ee4197f8774cc192bf16a3e9947c8569606060038f8f8f8f8f8f600160c01b906001600160401b0360801b4260801b169068ffffffffffffffffff60801b191617178094558960028201558860005285825260406000208a6000528252604060002054958691015560405194855284015260801c166040820152a3005b61073e81836113de565b90549060031b1c8c6000528389526040600020816000528952604060002054908a821161076f575b5050840161069d565b9d509850848e610766565b634e487b7160e01b600052603260045260246000fd5b868660649260405192639ab45b2d60e01b84526004840152602483015242166044820152fd5b604051630970568b60e41b815260048101869052602490fd5b604490604051906301d4003760e61b82526004820152336024820152fd5b346101205760003660031901126101205760206040517f5fdbd35e8da83ee755d5e62a539e5ed7f47126abede0b8b10f9ea43dc6eed07f8152f35b346101205761083636611320565b9061084081611369565b5090600182015460ff8160c01c166109f8576001600160401b038082169182421080156109ea575b6109a8575050508060005260209160048352604060002084600052835260ff604060002054161561098f578160005260068352604060002033600052835260ff6040600020541661097057816000526005835260406000203360005283526040600020549283156109585760057fc9315b77017750dd9c9721c9d71cb8970b624ec5da1e4856a321aa5587aec36592846000526006835260406000203360005283526040600020600160ff1982541617905584600052600783526040600020876000528352604060002061093d878254611346565b90550161094b858254611346565b90556040519384523393a4005b60405163579bce6360e01b8152336004820152602490fd5b6040516304f9da6360e01b815260048101839052336024820152604490fd5b604051633a01b82360e01b815260048101859052602490fd5b6040805163fe8a4e8b60e01b8152600481018690526001600160401b03948516602482015291901c821683166044820152429091169091166064820152608490fd5b50818160401c164211610868565b604051630970568b60e41b815260048101839052602490fd5b3461012057610a1f36611320565b9060005260076020526040600020906000526020526020604060002054604051908152f35b3461012057602080600319360112610120576006610a63600435611369565b500160405190818382549182815201908192600052846000209060005b86828210610ad6578686610a9682880383611412565b604051928392818401908285525180915260408401929160005b828110610abf57505050500390f35b835185528695509381019392810192600101610ab0565b835485529093019260019283019201610a80565b346101205760a0366003190112610120576001600160401b038060043511610120573660236004350112156101205780600435600401351161012057366024600435600401356004350101116101205760243581811161012057610b529036906004016112f0565b919060443582811161012057610b6c9036906004016112f0565b92909160643592828416840361012057826084351660843503610120573360009081527f66a4f51b3073dc3be68844ea5c2f07734454167f3d2d25f0c76fafa0edca3e8260205260409020547f4ca0d59cc1b5287d79308a67dd1f559e1a372cf529631d9beca39da81510ebb39060ff16156107cf57508515610f7857848603610f635782608435168385161015610f515760025494600160401b861015610e3c5760018601600255610c1e86611369565b5050610c2986611369565b5096610c3588546113a4565b601f8111610f01575b506000601f6004356004013511600114610e7b5760009060043560040135610e6b575b506004356004013560011b906000196004356004013560031b1c19161788555b6001880180546fffffffffffffffffffffffffffffffff19168787161760843560401b6fffffffffffffffff00000000000000001617905560005b818110610d4557877f47af1ef4bbc0df9291e47c109594ed9e92591d3e45395248ea66afc4181ad3838888806040519260608452600435600401356060850152600435600401356024600435016080860137600060806004356004013586010152166020830152608435166040820152608081601f19601f6004356004013501168101030190a2005b610d50818387611336565b359088600052600460205260406000208260005260205260ff60406000205416610e525760068a015491600160401b831015610e3c57610d9e838c6006600180970191015560068d016113de565b908054600392831b9084821b91600019901b19161790558a600052600460205260406000208260005260205260406000208460ff19825416179055610de4838789611336565b35908b600052602052604060002082600052602052604060002055897f15e71c5e318c83615cdad425835210f3cabc6641750d6de7ea69daca819628836020610e2e85898b611336565b35604051908152a301610cbc565b634e487b7160e01b600052604160045260246000fd5b60405163911d62bd60e01b815260048101839052602490fd5b6024915060043501013589610c61565b8860005260206000209060005b600480350135601f19168110610ee45750600480350135601f19811610610ebf575b5050600160043560040135811b018855610c81565b602460001960f86004356004013560031b161c19916004350101351690558880610eaa565b909160206001819260248660043501013581550193019101610e88565b886000526020600020601f600435600401350160051c810160206004356004013510610f4a575b601f830160051c82018110610f3e575050610c3e565b60008155600101610f28565b5080610f28565b6040516303170c0360e01b8152600490fd5b6040516001621398b960e31b03198152600490fd5b60405163638ebf3160e01b8152600490fd5b34610120576060366003190112610120576004356001600160401b036024803582811161012057610fbf9036906004016112f0565b9260443581811161012057610fd89036906004016112f0565b3360009081527f348161a93146b5ac27fdfa93d4b3a0b211cde689bc2497e2058a99abfd4d85e560209081526040909120549195909490926001927f5fdbd35e8da83ee755d5e62a539e5ed7f47126abede0b8b10f9ea43dc6eed07f9060ff16156107cf5750868803610f635761104e89611369565b509460018601549060ff8260c01c166111be578082169182421161117c57505050959291906000966000945b8986106110c5578a7f55a8237c3afb245bace3cf01db47e41f33e902291ddbcc8ce752b8a34efeb5f360408c8c8c6110b760048e01928354611346565b8092558351928352820152a2005b9091929394976110d6898b86611336565b356001600160a01b0381169190829003610120576110f58a8486611336565b35918c6000526005808b526040600020826000528b5260406000205461116457831561114c5791879391611140938f6000528c526040600020906000528b5281604060002055611346565b9801949392919061107a565b60405163579bce6360e01b8152600481018390528990fd5b60405163f655e0bd60e01b8152600481018390528990fd5b6040805163fe8a4e8b60e01b8152600481018e90526001600160401b03948516602482015291901c821683166044820152429091169091166064820152608490fd5b604051630970568b60e41b8152600481018c9052602490fd5b34610120576040366003190112610120576111f06112da565b600435600052600660205260406000209060018060a01b0316600052602052602060ff604060002054166040519015158152f35b34610120576040366003190112610120576004356112406112da565b60005490926001600160a01b0391821633036112cb575081600052600160205260406000209216918260005260205260ff604060002054161561127f57005b8060005260016020526040600020826000526020526040600020600160ff198254161790557f2ae6a113c0ed5b78a53413ffbb7679881f11145ccfba4fb92e863dfcd5a1d2f3600080a3005b6330cd747160e01b8152600490fd5b602435906001600160a01b038216820361012057565b9181601f84011215610120578235916001600160401b038311610120576020808501948460051b01011161012057565b6040906003190112610120576004359060243590565b919081101561077a5760051b0190565b9190820180921161135357565b634e487b7160e01b600052601160045260246000fd5b60025481101561077a576007906002600052027f405787fa12a823e0f2b7631cc41b3ba8828b3321ca811111fa75cd3aa3bb5ace0190600090565b90600182811c921680156113d4575b60208310146113be57565b634e487b7160e01b600052602260045260246000fd5b91607f16916113b3565b805482101561077a5760005260206000200190600090565b61014081019081106001600160401b03821117610e3c57604052565b90601f801991011681019081106001600160401b03821117610e3c5760405256fea2646970667358221220ca7e778139e37af137dd3c31b7234ae5df37b765904dab7be4d551a59acf7a3c64736f6c63430008180033","linkReferences":{}},"methodIdentifiers":{"BALLOT_ADMIN_ROLE()":"fa5571ac","SNAPSHOT_ROLE()":"7028e2cd","ballotCount()":"c0030032","castVote(uint256,bytes32)":"6be2a1bd","createBallot(string,bytes32[],bytes32[],uint64,uint64)":"48e25765","finalizeBallot(uint256)":"7b3ef616","getAllocationHash(uint256,bytes32)":"eb6b9c8f","getBallot(uint256)":"f9d5ee75","getPortfolioIds(uint256)":"6122e0fd","getTally(uint256,bytes32)":"64f1012d","grantRole(bytes32,address)":"2f2ff15d","hasRole(bytes32,address)":"91d14854","hasVoted(uint256,address)":"43859632","owner()":"8da5cb5b","revokeRole(bytes32,address)":"d547741f","setBallotWeights(uint256,address[],uint256[])":"4716c6e4","transferOwnership(address)":"f2fde38b","weightOf(uint256,address)":"8935ced5"},"id":25}