{"abi":[{"type":"constructor","inputs":[{"name":"initialOwner","type":"address","internalType":"address"},{"name":"_mortality","type":"address","internalType":"contract IMortalityOracle"}],"stateMutability":"nonpayable"},{"type":"receive","stateMutability":"payable"},{"type":"function","name":"FUNDER_ROLE","inputs":[],"outputs":[{"name":"","type":"bytes32","internalType":"bytes32"}],"stateMutability":"view"},{"type":"function","name":"SECONDS_PER_YEAR","inputs":[],"outputs":[{"name":"","type":"uint64","internalType":"uint64"}],"stateMutability":"view"},{"type":"function","name":"STREAM_ADMIN_ROLE","inputs":[],"outputs":[{"name":"","type":"bytes32","internalType":"bytes32"}],"stateMutability":"view"},{"type":"function","name":"claim","inputs":[],"outputs":[{"name":"amount","type":"uint256","internalType":"uint256"}],"stateMutability":"nonpayable"},{"type":"function","name":"claimable","inputs":[{"name":"retiree","type":"address","internalType":"address"}],"outputs":[{"name":"","type":"uint256","internalType":"uint256"}],"stateMutability":"view"},{"type":"function","name":"fund","inputs":[],"outputs":[],"stateMutability":"payable"},{"type":"function","name":"fundedBalance","inputs":[],"outputs":[{"name":"","type":"uint256","internalType":"uint256"}],"stateMutability":"view"},{"type":"function","name":"grantRole","inputs":[{"name":"role","type":"bytes32","internalType":"bytes32"},{"name":"account","type":"address","internalType":"address"}],"outputs":[],"stateMutability":"nonpayable"},{"type":"function","name":"hasRole","inputs":[{"name":"role","type":"bytes32","internalType":"bytes32"},{"name":"account","type":"address","internalType":"address"}],"outputs":[{"name":"","type":"bool","internalType":"bool"}],"stateMutability":"view"},{"type":"function","name":"mortality","inputs":[],"outputs":[{"name":"","type":"address","internalType":"contract IMortalityOracle"}],"stateMutability":"view"},{"type":"function","name":"owner","inputs":[],"outputs":[{"name":"","type":"address","internalType":"address"}],"stateMutability":"view"},{"type":"function","name":"revokeRole","inputs":[{"name":"role","type":"bytes32","internalType":"bytes32"},{"name":"account","type":"address","internalType":"address"}],"outputs":[],"stateMutability":"nonpayable"},{"type":"function","name":"startStream","inputs":[{"name":"retiree","type":"address","internalType":"address"},{"name":"annualBenefit","type":"uint128","internalType":"uint128"},{"name":"startTs","type":"uint64","internalType":"uint64"}],"outputs":[],"stateMutability":"nonpayable"},{"type":"function","name":"stopStream","inputs":[{"name":"retiree","type":"address","internalType":"address"}],"outputs":[],"stateMutability":"nonpayable"},{"type":"function","name":"streams","inputs":[{"name":"","type":"address","internalType":"address"}],"outputs":[{"name":"annualBenefit","type":"uint128","internalType":"uint128"},{"name":"startTs","type":"uint64","internalType":"uint64"},{"name":"lastClaimTs","type":"uint64","internalType":"uint64"},{"name":"totalClaimed","type":"uint256","internalType":"uint256"},{"name":"active","type":"bool","internalType":"bool"}],"stateMutability":"view"},{"type":"function","name":"transferOwnership","inputs":[{"name":"newOwner","type":"address","internalType":"address"}],"outputs":[],"stateMutability":"nonpayable"},{"type":"event","name":"Claimed","inputs":[{"name":"retiree","type":"address","indexed":true,"internalType":"address"},{"name":"amount","type":"uint256","indexed":false,"internalType":"uint256"}],"anonymous":false},{"type":"event","name":"Funded","inputs":[{"name":"amount","type":"uint256","indexed":false,"internalType":"uint256"},{"name":"newBalance","type":"uint256","indexed":false,"internalType":"uint256"}],"anonymous":false},{"type":"event","name":"OwnershipTransferred","inputs":[{"name":"previousOwner","type":"address","indexed":true,"internalType":"address"},{"name":"newOwner","type":"address","indexed":true,"internalType":"address"}],"anonymous":false},{"type":"event","name":"RoleGranted","inputs":[{"name":"role","type":"bytes32","indexed":true,"internalType":"bytes32"},{"name":"account","type":"address","indexed":true,"internalType":"address"}],"anonymous":false},{"type":"event","name":"RoleRevoked","inputs":[{"name":"role","type":"bytes32","indexed":true,"internalType":"bytes32"},{"name":"account","type":"address","indexed":true,"internalType":"address"}],"anonymous":false},{"type":"event","name":"StreamStarted","inputs":[{"name":"retiree","type":"address","indexed":true,"internalType":"address"},{"name":"annualBenefit","type":"uint128","indexed":false,"internalType":"uint128"},{"name":"startTs","type":"uint64","indexed":false,"internalType":"uint64"}],"anonymous":false},{"type":"event","name":"StreamStopped","inputs":[{"name":"retiree","type":"address","indexed":true,"internalType":"address"}],"anonymous":false},{"type":"error","name":"InsufficientFunding","inputs":[{"name":"needed","type":"uint256","internalType":"uint256"},{"name":"available","type":"uint256","internalType":"uint256"}]},{"type":"error","name":"MissingRole","inputs":[{"name":"role","type":"bytes32","internalType":"bytes32"},{"name":"account","type":"address","internalType":"address"}]},{"type":"error","name":"NoStream","inputs":[{"name":"retiree","type":"address","internalType":"address"}]},{"type":"error","name":"NotOwner","inputs":[]},{"type":"error","name":"NothingToClaim","inputs":[{"name":"retiree","type":"address","internalType":"address"}]},{"type":"error","name":"StreamAlreadyExists","inputs":[{"name":"retiree","type":"address","internalType":"address"}]},{"type":"error","name":"ZeroAddress","inputs":[]}],"bytecode":{"object":"0x60a0346100f257601f610f7038819003918201601f19168301916001600160401b038311848410176100f75780849260409485528339810103126100f25780516001600160a01b0391828216918290036100f257602001519182168083036100f25781156100e057600080546001600160a01b0319168317815560405192907f8be0079c531659141344cd1fd0a4f28419497f9722a3daafe3b4186f6b6457e08180a3156100d15750608052604051610e62908161010e823960805181818161071301528181610af80152610ca30152f35b63d92e233d60e01b8152600490fd5b60405163d92e233d60e01b8152600490fd5b600080fd5b634e487b7160e01b600052604160045260246000fdfe60806040818152600480361015610029575b505050361561001f57600080fd5b610027610deb565b005b600092833560e01c90816309246aed14610ae4575080632f2ff15d14610a4457806334aedecd14610a09578063402914f5146109dc5780634e71d92d146106b157806383699275146106375780638da5cb5b1461060f57806391d14854146105c957806393766f27146105aa5780639f536444146103cf578063b60d42881461035c578063cf7966441461027b578063d547741f146101d1578063e6a69ab8146101b2578063e713c376146101735763f2fde38b03610011573461016f57602036600319011261016f576100fb610b42565b8354916001600160a01b03808416923384900361015f571693841561015257505082907f8be0079c531659141344cd1fd0a4f28419497f9722a3daafe3b4186f6b6457e08580a36001600160a01b03191617815580f35b5163d92e233d60e01b8152fd5b85516330cd747160e01b81528390fd5b8280fd5b5050346101ae57816003193601126101ae57602090517f11443b23617db34b01244d11705d34607a299c5a51f7a0bcb6a86e98bf8e1da98152f35b5080fd5b5050346101ae57816003193601126101ae57602090516301e133808152f35b50903461016f578060031936011261016f578135906101ee610b27565b845490936001600160a01b03918216330361026d5750828552600160205281852093169283855260205260ff8185205416610227578380f35b8184526001602052808420838552602052832060ff1981541690557f155aaafb6329a2098580462df33ec4b7441b19729b9601c5fc17ae1cf99a8a528380a33880808380f35b82516330cd747160e01b8152fd5b503461016f57602036600319011261016f57610295610b42565b7f11443b23617db34b01244d11705d34607a299c5a51f7a0bcb6a86e98bf8e1da9808552600160205283852033865260205260ff84862054161561034057506001600160a01b031680845260026020819052838520018054919390929060ff83161561032a57505060ff191690557fc8df9387463bad688e6bee33a5517e1226baa5a9d109b77f5602f6cd46986f9b8280a280f35b5163646ebaf560e01b8152908101849052602490fd5b905060449251916301d4003760e61b8352820152336024820152fd5b50908260031936011261016f577f0914bb97ca83e85ef385857d9d418f187ff630589e0c9f44db92976d8e4519cb90818452600160205280842033855260205260ff8185205416156103b457836103b1610deb565b80f35b516301d4003760e61b81529182015233602482015260449150fd5b508290346101ae5760603660031901126101ae576103eb610b42565b926024356001600160801b03948582168092036105a65760443567ffffffffffffffff968782168083036105a2577f11443b23617db34b01244d11705d34607a299c5a51f7a0bcb6a86e98bf8e1da99283895260209360018552878a20338b52855260ff888b2054161561058657506001600160a01b03909416968715610578578789526002845260ff6002888b20015416610561575090878798997f1ae7be25f03a7b2cd02903a39578c9e29d218dcc8e2b2f45f5066b8cce36992e989315610557575b90610534600293928951936104c485610b58565b8985529781168785018181528b86018281526060870186815260016080808a019182529a8852898c52968e90209751925191516001600160c01b0319951660c01b9490941667ffffffffffffffff60801b9190991b1699166001600160c01b031698909817959095178355909390565b516001820155019051151560ff801983541691161790558351928352820152a280f35b42811695506104b0565b8651630c6fd17360e41b8152908101889052602490fd5b865163d92e233d60e01b8152fd5b886044918951916301d4003760e61b8352820152336024820152fd5b8780fd5b8480fd5b5050346101ae57816003193601126101ae576020906003549051908152f35b503461016f578160031936011261016f578160209360ff926105e9610b27565b90358252600186528282206001600160a01b039091168252855220549151911615158152f35b5050346101ae57816003193601126101ae57905490516001600160a01b039091168152602090f35b5050346101ae5760203660031901126101ae5760a09181906001600160a01b0361065f610b42565b1681526002602052209081549160ff6002600183015492015416918051936001600160801b038116855267ffffffffffffffff8160801c16602086015260c01c90840152606083015215156080820152f35b509190346101ae57816003193601126101ae5733825260209260028452818320600281019384549160ff8316156109c6578451633eb20a9360e21b8152338582015267ffffffffffffffff428116976024959193929091906001600160a01b037f000000000000000000000000000000000000000000000000000000000000000016908b818981855afa9081156109bc57918c918993899161098f575b506108e9575b505050505080548060c01c80848a1611156108d4576301e13380916001600160801b038561078561078d948d610be4565b169116610c14565b049687156108bf576003548089116108a5575081546001600160c01b031660c09190911b6001600160c01b0319161781556001016107cc878254610dde565b9055600354868103908111610893576003558180808089335af1913d1561088c573d91821161087a5785519161080b601f8201601f19168a0184610b8a565b8252873d92013e5b1561084a57505080518281527fd8138f8a3f377c5259ca548e70e4c2de94f129f5a11036a15b69513cba2b426a843392a251908152f35b600d9085606494519362461bcd60e51b85528401528201526c1d1c985b9cd9995c8819985a5b609a1b6044820152fd5b634e487b7160e01b8152604185528390fd5b5050610813565b5050634e487b7160e01b815260118352fd5b86604491878b8b5193622f087f60ea1b8552840152820152fd5b86516332559a3360e11b815233818801528590fd5b87516332559a3360e11b815233818901528690fd5b8a51635b5f348160e11b8152338b82015292839182905afa908115610985578691610958575b508985821610610950575b5060ff19169055337fc8df9387463bad688e6bee33a5517e1226baa5a9d109b77f5602f6cd46986f9b8480a23880858a82610754565b98503861091a565b61097891508b3d8d1161097e575b6109708183610b8a565b810190610bc4565b3861090f565b503d610966565b89513d88823e3d90fd5b6109af9150833d85116109b5575b6109a78183610b8a565b810190610bac565b3861074e565b503d61099d565b8a513d89823e3d90fd5b845163646ebaf560e01b81523381860152602490fd5b5050346101ae5760203660031901126101ae57602090610a026109fd610b42565b610c27565b9051908152f35b5050346101ae57816003193601126101ae57602090517f0914bb97ca83e85ef385857d9d418f187ff630589e0c9f44db92976d8e4519cb8152f35b50903461016f578060031936011261016f57813590610a61610b27565b845490936001600160a01b03918216330361026d5750828552600160205281852093169283855260205260ff818520541615610a9b578380f35b81845260016020528084208385526020528320600160ff198254161790557f2ae6a113c0ed5b78a53413ffbb7679881f11145ccfba4fb92e863dfcd5a1d2f38380a33880808380f35b8490346101ae57816003193601126101ae577f00000000000000000000000000000000000000000000000000000000000000006001600160a01b03168152602090f35b602435906001600160a01b0382168203610b3d57565b600080fd5b600435906001600160a01b0382168203610b3d57565b60a0810190811067ffffffffffffffff821117610b7457604052565b634e487b7160e01b600052604160045260246000fd5b90601f8019910116810190811067ffffffffffffffff821117610b7457604052565b90816020910312610b3d57518015158103610b3d5790565b90816020910312610b3d575167ffffffffffffffff81168103610b3d5790565b67ffffffffffffffff9182169082160391908211610bfe57565b634e487b7160e01b600052601160045260246000fd5b81810292918115918404141715610bfe57565b6001600160a01b039081166000818152600260209081526040808320815190949091610c5283610b58565b8554916001600160801b0394858416855260ff600267ffffffffffffffff998a8760801c16848901528588019660c01c8752600181015460608901520154161580156080870152610dd257874216987f000000000000000000000000000000000000000000000000000000000000000016918351633eb20a9360e21b81528160048201528281602481875afa908115610dc857908a9695949392918a91610dab575b50610d38575b50505050511692838587161115610d2f57506301e133809492610d2b9492610d2492511693610be4565b1690610c14565b0490565b94505050505090565b8394955060248293945180958193635b5f348160e11b835260048301525afa928315610da257508692610d85575b50508686821610610d7d575b908180808894610cfa565b955084610d72565b610d9b9250803d1061097e576109708183610b8a565b3880610d66565b513d88823e3d90fd5b610dc29150833d85116109b5576109a78183610b8a565b38610cf4565b85513d8b823e3d90fd5b50505050505091505090565b91908201809211610bfe57565b7fa1dd612b9278fe0bb5d89ed1f642dc3678d0e558630c5a4a8df212ba2197cdb46040610e1a34600354610dde565b806003558151903482526020820152a156fea2646970667358221220947312a1db308f57e9daf1b9b445348ebaf065ede2b2979bf8f9fa7d3483f0de64736f6c63430008180033","linkReferences":{}},"methodIdentifiers":{"FUNDER_ROLE()":"34aedecd","SECONDS_PER_YEAR()":"e6a69ab8","STREAM_ADMIN_ROLE()":"e713c376","claim()":"4e71d92d","claimable(address)":"402914f5","fund()":"b60d4288","fundedBalance()":"93766f27","grantRole(bytes32,address)":"2f2ff15d","hasRole(bytes32,address)":"91d14854","mortality()":"09246aed","owner()":"8da5cb5b","revokeRole(bytes32,address)":"d547741f","startStream(address,uint128,uint64)":"9f536444","stopStream(address)":"cf796644","streams(address)":"83699275","transferOwnership(address)":"f2fde38b"},"id":20}