{"abi":[{"type":"constructor","inputs":[{"name":"initialOwner","type":"address","internalType":"address"}],"stateMutability":"nonpayable"},{"type":"function","name":"PUBLISHER_ROLE","inputs":[],"outputs":[{"name":"","type":"bytes32","internalType":"bytes32"}],"stateMutability":"view"},{"type":"function","name":"getCohortSummary","inputs":[{"name":"cohortSummaryKey","type":"bytes32","internalType":"bytes32"}],"outputs":[{"name":"","type":"tuple","internalType":"struct IActuarialResultRegistry.CohortSummary","components":[{"name":"cohortSummaryKey","type":"bytes32","internalType":"bytes32"},{"name":"valuationSnapshotKey","type":"bytes32","internalType":"bytes32"},{"name":"cohort","type":"uint16","internalType":"uint16"},{"name":"epvContributions","type":"uint256","internalType":"uint256"},{"name":"epvBenefits","type":"uint256","internalType":"uint256"},{"name":"mwrBps","type":"uint256","internalType":"uint256"},{"name":"members","type":"uint32","internalType":"uint32"},{"name":"summaryHash","type":"bytes32","internalType":"bytes32"},{"name":"publisher","type":"address","internalType":"address"}]}],"stateMutability":"view"},{"type":"function","name":"getParameterSet","inputs":[{"name":"parameterSetKey","type":"bytes32","internalType":"bytes32"}],"outputs":[{"name":"","type":"tuple","internalType":"struct IActuarialResultRegistry.ParameterSet","components":[{"name":"parameterSetKey","type":"bytes32","internalType":"bytes32"},{"name":"valuationDate","type":"uint64","internalType":"uint64"},{"name":"discountRateBps","type":"int32","internalType":"int32"},{"name":"salaryGrowthBps","type":"int32","internalType":"int32"},{"name":"investmentReturnBps","type":"int32","internalType":"int32"},{"name":"piuPrice","type":"uint256","internalType":"uint256"},{"name":"fairnessDeltaBps","type":"uint32","internalType":"uint32"},{"name":"mortalityBasisVersion","type":"uint64","internalType":"uint64"},{"name":"parameterHash","type":"bytes32","internalType":"bytes32"},{"name":"publisher","type":"address","internalType":"address"}]}],"stateMutability":"view"},{"type":"function","name":"getResultBundle","inputs":[{"name":"resultBundleKey","type":"bytes32","internalType":"bytes32"}],"outputs":[{"name":"","type":"tuple","internalType":"struct IActuarialResultRegistry.ResultBundle","components":[{"name":"resultBundleKey","type":"bytes32","internalType":"bytes32"},{"name":"parameterSetKey","type":"bytes32","internalType":"bytes32"},{"name":"valuationSnapshotKey","type":"bytes32","internalType":"bytes32"},{"name":"mortalityMethodKey","type":"bytes32","internalType":"bytes32"},{"name":"epvMethodKey","type":"bytes32","internalType":"bytes32"},{"name":"mwrMethodKey","type":"bytes32","internalType":"bytes32"},{"name":"fairnessMethodKey","type":"bytes32","internalType":"bytes32"},{"name":"schemeSummaryKey","type":"bytes32","internalType":"bytes32"},{"name":"cohortDigest","type":"bytes32","internalType":"bytes32"},{"name":"resultHash","type":"bytes32","internalType":"bytes32"},{"name":"publisher","type":"address","internalType":"address"}]}],"stateMutability":"view"},{"type":"function","name":"getSchemeSummary","inputs":[{"name":"schemeSummaryKey","type":"bytes32","internalType":"bytes32"}],"outputs":[{"name":"","type":"tuple","internalType":"struct IActuarialResultRegistry.SchemeSummary","components":[{"name":"schemeSummaryKey","type":"bytes32","internalType":"bytes32"},{"name":"valuationSnapshotKey","type":"bytes32","internalType":"bytes32"},{"name":"epvContributions","type":"uint256","internalType":"uint256"},{"name":"epvBenefits","type":"uint256","internalType":"uint256"},{"name":"mwrBps","type":"uint256","internalType":"uint256"},{"name":"fundedRatioBps","type":"uint256","internalType":"uint256"},{"name":"summaryHash","type":"bytes32","internalType":"bytes32"},{"name":"publisher","type":"address","internalType":"address"}]}],"stateMutability":"view"},{"type":"function","name":"getValuationSnapshot","inputs":[{"name":"valuationSnapshotKey","type":"bytes32","internalType":"bytes32"}],"outputs":[{"name":"","type":"tuple","internalType":"struct IActuarialResultRegistry.ValuationSnapshot","components":[{"name":"valuationSnapshotKey","type":"bytes32","internalType":"bytes32"},{"name":"parameterSetKey","type":"bytes32","internalType":"bytes32"},{"name":"memberSnapshotHash","type":"bytes32","internalType":"bytes32"},{"name":"cohortSummaryHash","type":"bytes32","internalType":"bytes32"},{"name":"memberCount","type":"uint64","internalType":"uint64"},{"name":"cohortCount","type":"uint32","internalType":"uint32"},{"name":"inputHash","type":"bytes32","internalType":"bytes32"},{"name":"publisher","type":"address","internalType":"address"}]}],"stateMutability":"view"},{"type":"function","name":"grantRole","inputs":[{"name":"role","type":"bytes32","internalType":"bytes32"},{"name":"account","type":"address","internalType":"address"}],"outputs":[],"stateMutability":"nonpayable"},{"type":"function","name":"hasRole","inputs":[{"name":"role","type":"bytes32","internalType":"bytes32"},{"name":"account","type":"address","internalType":"address"}],"outputs":[{"name":"","type":"bool","internalType":"bool"}],"stateMutability":"view"},{"type":"function","name":"owner","inputs":[],"outputs":[{"name":"","type":"address","internalType":"address"}],"stateMutability":"view"},{"type":"function","name":"publishCohortSummary","inputs":[{"name":"cohortSummaryKey","type":"bytes32","internalType":"bytes32"},{"name":"valuationSnapshotKey","type":"bytes32","internalType":"bytes32"},{"name":"cohort","type":"uint16","internalType":"uint16"},{"name":"epvContributions","type":"uint256","internalType":"uint256"},{"name":"epvBenefits","type":"uint256","internalType":"uint256"},{"name":"mwrBps","type":"uint256","internalType":"uint256"},{"name":"members","type":"uint32","internalType":"uint32"},{"name":"summaryHash","type":"bytes32","internalType":"bytes32"}],"outputs":[],"stateMutability":"nonpayable"},{"type":"function","name":"publishParameterSet","inputs":[{"name":"parameterSetKey","type":"bytes32","internalType":"bytes32"},{"name":"valuationDate","type":"uint64","internalType":"uint64"},{"name":"discountRateBps","type":"int32","internalType":"int32"},{"name":"salaryGrowthBps","type":"int32","internalType":"int32"},{"name":"investmentReturnBps","type":"int32","internalType":"int32"},{"name":"piuPrice","type":"uint256","internalType":"uint256"},{"name":"fairnessDeltaBps","type":"uint32","internalType":"uint32"},{"name":"mortalityBasisVersion","type":"uint64","internalType":"uint64"},{"name":"parameterHash","type":"bytes32","internalType":"bytes32"}],"outputs":[],"stateMutability":"nonpayable"},{"type":"function","name":"publishResultBundle","inputs":[{"name":"resultBundleKey","type":"bytes32","internalType":"bytes32"},{"name":"parameterSetKey","type":"bytes32","internalType":"bytes32"},{"name":"valuationSnapshotKey","type":"bytes32","internalType":"bytes32"},{"name":"mortalityMethodKey","type":"bytes32","internalType":"bytes32"},{"name":"epvMethodKey","type":"bytes32","internalType":"bytes32"},{"name":"mwrMethodKey","type":"bytes32","internalType":"bytes32"},{"name":"fairnessMethodKey","type":"bytes32","internalType":"bytes32"},{"name":"schemeSummaryKey","type":"bytes32","internalType":"bytes32"},{"name":"cohortDigest","type":"bytes32","internalType":"bytes32"},{"name":"resultHash","type":"bytes32","internalType":"bytes32"}],"outputs":[],"stateMutability":"nonpayable"},{"type":"function","name":"publishSchemeSummary","inputs":[{"name":"schemeSummaryKey","type":"bytes32","internalType":"bytes32"},{"name":"valuationSnapshotKey","type":"bytes32","internalType":"bytes32"},{"name":"epvContributions","type":"uint256","internalType":"uint256"},{"name":"epvBenefits","type":"uint256","internalType":"uint256"},{"name":"mwrBps","type":"uint256","internalType":"uint256"},{"name":"fundedRatioBps","type":"uint256","internalType":"uint256"},{"name":"summaryHash","type":"bytes32","internalType":"bytes32"}],"outputs":[],"stateMutability":"nonpayable"},{"type":"function","name":"publishValuationSnapshot","inputs":[{"name":"valuationSnapshotKey","type":"bytes32","internalType":"bytes32"},{"name":"parameterSetKey","type":"bytes32","internalType":"bytes32"},{"name":"memberSnapshotHash","type":"bytes32","internalType":"bytes32"},{"name":"cohortSummaryHash","type":"bytes32","internalType":"bytes32"},{"name":"memberCount","type":"uint64","internalType":"uint64"},{"name":"cohortCount","type":"uint32","internalType":"uint32"},{"name":"inputHash","type":"bytes32","internalType":"bytes32"}],"outputs":[],"stateMutability":"nonpayable"},{"type":"function","name":"revokeRole","inputs":[{"name":"role","type":"bytes32","internalType":"bytes32"},{"name":"account","type":"address","internalType":"address"}],"outputs":[],"stateMutability":"nonpayable"},{"type":"function","name":"transferOwnership","inputs":[{"name":"newOwner","type":"address","internalType":"address"}],"outputs":[],"stateMutability":"nonpayable"},{"type":"event","name":"CohortSummaryPublished","inputs":[{"name":"cohortSummaryKey","type":"bytes32","indexed":true,"internalType":"bytes32"},{"name":"cohort","type":"uint16","indexed":true,"internalType":"uint16"},{"name":"summaryHash","type":"bytes32","indexed":false,"internalType":"bytes32"},{"name":"publisher","type":"address","indexed":true,"internalType":"address"}],"anonymous":false},{"type":"event","name":"OwnershipTransferred","inputs":[{"name":"previousOwner","type":"address","indexed":true,"internalType":"address"},{"name":"newOwner","type":"address","indexed":true,"internalType":"address"}],"anonymous":false},{"type":"event","name":"ParameterSetPublished","inputs":[{"name":"parameterSetKey","type":"bytes32","indexed":true,"internalType":"bytes32"},{"name":"valuationDate","type":"uint64","indexed":false,"internalType":"uint64"},{"name":"parameterHash","type":"bytes32","indexed":false,"internalType":"bytes32"},{"name":"publisher","type":"address","indexed":true,"internalType":"address"}],"anonymous":false},{"type":"event","name":"ResultBundlePublished","inputs":[{"name":"resultBundleKey","type":"bytes32","indexed":true,"internalType":"bytes32"},{"name":"valuationSnapshotKey","type":"bytes32","indexed":true,"internalType":"bytes32"},{"name":"resultHash","type":"bytes32","indexed":false,"internalType":"bytes32"},{"name":"publisher","type":"address","indexed":true,"internalType":"address"}],"anonymous":false},{"type":"event","name":"RoleGranted","inputs":[{"name":"role","type":"bytes32","indexed":true,"internalType":"bytes32"},{"name":"account","type":"address","indexed":true,"internalType":"address"}],"anonymous":false},{"type":"event","name":"RoleRevoked","inputs":[{"name":"role","type":"bytes32","indexed":true,"internalType":"bytes32"},{"name":"account","type":"address","indexed":true,"internalType":"address"}],"anonymous":false},{"type":"event","name":"SchemeSummaryPublished","inputs":[{"name":"schemeSummaryKey","type":"bytes32","indexed":true,"internalType":"bytes32"},{"name":"valuationSnapshotKey","type":"bytes32","indexed":true,"internalType":"bytes32"},{"name":"summaryHash","type":"bytes32","indexed":false,"internalType":"bytes32"},{"name":"publisher","type":"address","indexed":true,"internalType":"address"}],"anonymous":false},{"type":"event","name":"ValuationSnapshotPublished","inputs":[{"name":"valuationSnapshotKey","type":"bytes32","indexed":true,"internalType":"bytes32"},{"name":"parameterSetKey","type":"bytes32","indexed":true,"internalType":"bytes32"},{"name":"inputHash","type":"bytes32","indexed":false,"internalType":"bytes32"},{"name":"publisher","type":"address","indexed":true,"internalType":"address"}],"anonymous":false},{"type":"error","name":"AlreadyPublished","inputs":[{"name":"key","type":"bytes32","internalType":"bytes32"}]},{"type":"error","name":"InvalidParams","inputs":[]},{"type":"error","name":"MissingRole","inputs":[{"name":"role","type":"bytes32","internalType":"bytes32"},{"name":"account","type":"address","internalType":"address"}]},{"type":"error","name":"NotOwner","inputs":[]},{"type":"error","name":"ZeroAddress","inputs":[]}],"bytecode":{"object":"0x6080346100b057601f6114f038819003918201601f19168301916001600160401b038311848410176100b5578084926020946040528339810103126100b057516001600160a01b038116908190036100b057801561009e57600080546001600160a01b0319168217815560405191907f8be0079c531659141344cd1fd0a4f28419497f9722a3daafe3b4186f6b6457e08180a361142490816100cc8239f35b60405163d92e233d60e01b8152600490fd5b600080fd5b634e487b7160e01b600052604160045260246000fdfe6080604052600436101561001257600080fd5b60003560e01c806314890dc51461118757806321fde248146110a55780632f2ff15d14610ffe57806331f2890114610dd15780638329b23114610c4c57806385f8fcb914610a005780638da5cb5b146109d757806391d148541461098a578063c1672265146107d7578063cd16283f14610672578063d3dec212146105a3578063d547741f14610500578063d8f4b6fd146104d7578063e5eca73c14610369578063f2fde38b146102d45763fd851d6d146100cc57600080fd5b346102cf5760e03660031901126102cf576004356024356044359160643592608435936001600160401b038086168096036102cf5760a4359263ffffffff84168094036102cf573360009081526000805160206113af833981519152602090815260409091205460c435989195906000805160206113cf8339815191529060ff16156102b15750861580156102a9575b80156102a1575b8015610299575b8015610291575b61027f57866000526003865260406000205461026657917fd22d36b31a1b3467096b74fc75f788c9a2ed19be41fec937bc02ca27021de4a0959493916006936101b8611315565b93898552878501968b885260408601948552606086019081526080860193845260a0860192835260c08601948d865260e0870198338a528c60005260038b526040600020975188555160018801555160028701555160038601556004850192511663ffffffff60401b8354925160401b16916001600160601b03191617179055516005820155019060018060a01b039051166001600160601b0360a01b8254161790556040519485523394a4005b604051636857728b60e11b815260048101889052602490fd5b604051635435b28960e11b8152600490fd5b508815610171565b50841561016a565b508215610163565b50871561015c565b604490604051906301d4003760e61b82526004820152336024820152fd5b600080fd5b346102cf5760203660031901126102cf576004356001600160a01b03818116918290036102cf576000549081168033036103575782156103455782907f8be0079c531659141344cd1fd0a4f28419497f9722a3daafe3b4186f6b6457e0600080a36001600160a01b03191617600055005b60405163d92e233d60e01b8152600490fd5b6040516330cd747160e01b8152600490fd5b346102cf5760e03660031901126102cf573360009081526000805160206113af833981519152602090815260409091205460c435916024359160043591906000805160206113cf8339815191529060ff16156102b15750811580156104cf575b80156104c7575b61027f5781600052600481526040600020546104ae577fb846152983e2c5684abf63c70221dea2c0b3c4c634e9658cd529df6a468d423e90610410611315565b83815260078282019186835260408101604435815260608201606435815260808301608435815260a084019160a435835260c08501938c855260e08601973389528b60005260048a52604060002096518755516001870155516002860155516003850155516004840155516005830155516006820155019060018060a01b039051166001600160601b0360a01b8254161790556040519485523394a4005b604051636857728b60e11b815260048101839052602490fd5b5083156103d0565b5082156103c9565b346102cf5760003660031901126102cf5760206040516000805160206113cf8339815191528152f35b346102cf5760403660031901126102cf5760043561051c6112b6565b6000549091906001600160a01b0390811633036103575781600052600160205260406000209216918260005260205260ff6040600020541661055a57005b806000526001602052604060002082600052602052604060002060ff1981541690557f155aaafb6329a2098580462df33ec4b7441b19729b9601c5fc17ae1cf99a8a52600080a3005b346102cf5760203660031901126102cf576105bc611375565b506004356000526004602052610100604060002060076105da611315565b8254928382526001810154602083019081526002820154604084019081526003830154606085019081526004840154916080860192835260058501549360a0870194855260e060068701549660c0890197885260018060a01b03998a9101541697019687526040519889525160208901525160408801525160608701525160808601525160a08501525160c0840152511660e0820152f35b346102cf5760203660031901126102cf576000610140610690611335565b8281528260208201528260408201528260608201528260808201528260a08201528260c08201528260e082015282610100820152826101208201520152600435600052600660205261016060406000206106e8611335565b81549182825260018101546020830152600281015460408301526003810154606083015260048101546080830152600581015460a0830152600681015460c0830152600781015460e083015260088101546101008301526009810154610120830152600a60018060a01b03910154166101408201526040519182526020810151602083015260408101516040830152606081015160608301526080810151608083015260a081015160a083015260c081015160c083015260e081015160e083015261010081015161010083015261012081015161012083015261014060018060a01b0391015116610140820152f35b346102cf57610100806003193601126102cf57600435602435906044359161ffff8084168094036102cf5761080a6112cc565b9460e435956000805160206113cf833981519152938460005260209460018652604060002033600052865260ff60406000205416156102b1575085158015610982575b801561097a575b61027f57856000526005855260406000205461096157928786936008937fd839df00f1e41fb80f65019ea8c3a0cfec3455d7fe4db78063faa2f46b46e899979661089c6112df565b94878652888601918252604086018c8152606087019060643582526080880192608435845260a089019460a435865260c08a019763ffffffff809816895260e08b01998a528a019b338d5260005260058d52604060002099518a555160018a01556002890191511661ffff198254161790555160038701555160048601555160058501556006840191511663ffffffff19825416179055516007820155019060018060a01b039051166001600160601b0360a01b8254161790556040519485523394a4005b604051636857728b60e11b815260048101879052602490fd5b508715610854565b50801561084d565b346102cf5760403660031901126102cf576109a36112b6565b600435600052600160205260406000209060018060a01b0316600052602052602060ff604060002054166040519015158152f35b346102cf5760003660031901126102cf576000546040516001600160a01b039091168152602090f35b346102cf57610120806003193601126102cf57602435906001600160401b0382168092036102cf57604435908160030b8092036102cf57606435918260030b8093036102cf57608435908160030b8092036102cf57610a5d6112cc565b9360e435906001600160401b0382168092036102cf573360009081526000805160206113af83398151915260205260409020546101043596906000805160206113cf8339815191529060ff16156102b15750600435158015610c44575b61027f576004356000526002602052604060002054610c2b5763ffffffff60401b9463ffffffff92610aea611355565b9560043587528a602088015260408701526060860152608085015260a43560a08501521660c083015260e082015283610100820152338382015260043560005260026020526005604060002082518155600181016001600160401b03602085015116815490604086015160401b91606087015160601b91608088015160801b6001600160601b0360a01b998a9163ffffffff60801b169516921617179063ffffffff60601b161717905560a083015160028201556003810163ffffffff60c0850151168154906bffffffffffffffff0000000060e087015160201b16916001600160601b031916171790556101008301516004820155019260018060a01b039101511690825416179055604051918252602082015233907f4b1281402e9c19bbb8e7709a6ffc19d7214ffdb340e87d28d8628943e5cdf572604060043592a3005b6024604051636857728b60e11b81526004356004820152fd5b508615610aba565b346102cf5760203660031901126102cf576000610120610c6a611355565b8281528260208201528260408201528260608201528260808201528260a08201528260c08201528260e082015282610100820152015260043560005260026020526101406040600020610cbb611355565b81549182825260018101546001600160401b03811660208401528060401c60030b60408401528060601c60030b606084015260801c60030b6080830152600281015460a08301526001600160401b03600382015463ffffffff811660c085015260201c1660e08301526004810154610100830152600560018060a01b03910154166101208201526040519182526001600160401b036020820151166020830152604081015160030b6040830152606081015160030b6060830152608081015160030b608083015260a081015160a083015263ffffffff60c08201511660c08301526001600160401b0360e08201511660e083015261010081015161010083015261012060018060a01b0391015116610120820152f35b346102cf576101403660031901126102cf573360009081526000805160206113af833981519152602052604090205460ff1615610fd257600435158015610fc8575b8015610fbe575b8015610fb4575b8015610faa575b8015610fa0575b8015610f96575b8015610f8c575b8015610f81575b8015610f76575b61027f576004356000526006602052604060002054610c2b57610e6c611335565b6004358152600a6020820191602435835260408101604435815260608201606435815260808301608435815260a0840160a435815260c085019060c435825260e086019260e435845261010087019461010435865261012088019661012435885261014089019a338c526004356000526006602052604060002099518a555160018a0155516002890155516003880155516004870155516005860155516006850155516007840155516008830155516009820155019060018060a01b039051166001600160601b0360a01b8254161790556040516101243581523390604435907f7d26eaf660d54d206237b2a61ee71c5287e4dca1feed7aeacaf26b5528f30951602060043592a4005b506101243515610e4b565b506101043515610e44565b5060e43515610e3d565b5060c43515610e36565b5060a43515610e2f565b5060843515610e28565b5060643515610e21565b5060443515610e1a565b5060243515610e13565b6040516301d4003760e61b81526000805160206113cf8339815191526004820152336024820152604490fd5b346102cf5760403660031901126102cf5760043561101a6112b6565b6000549091906001600160a01b0390811633036103575781600052600160205260406000209216918260005260205260ff604060002054161561105957005b8060005260016020526040600020826000526020526040600020600160ff198254161790557f2ae6a113c0ed5b78a53413ffbb7679881f11145ccfba4fb92e863dfcd5a1d2f3600080a3005b346102cf5760203660031901126102cf576110be611375565b506004356000526003602052610100604060002060066110dc611315565b8254928382526001810154602083019081526002820154604084019081526003830154606085019081526004840154916001600160401b03916080870191838516835263ffffffff958660a08a019660401c16865260e060058901549860c08b01998a5260018060a01b039b8c9101541699019889526040519a8b525160208b01525160408a015251606089015251166080870152511660a08501525160c0840152511660e0820152f35b346102cf5760203660031901126102cf576101206111a36112df565b6000815260006020820152600060408201526000606082015260006080820152600060a0820152600060c0820152600060e0820152600061010080920152600435600052600560205260406000209060086111fc6112df565b83549384825260018101546020830190815261ffff908160028401541691604085019283526003840154606086019081526004850154906080870191825260058601549260a0880193845263ffffffff95866006890154169560c08a019687528b60078a01549960e08c019a8b5260018060a01b039c8d910154169a01998a526040519c8d525160208d0152511660408b01525160608a01525160808901525160a0880152511660c08601525160e0850152511690820152f35b602435906001600160a01b03821682036102cf57565b60c4359063ffffffff821682036102cf57565b6040519061012082018281106001600160401b038211176112ff57604052565b634e487b7160e01b600052604160045260246000fd5b6040519061010082018281106001600160401b038211176112ff57604052565b6040519061016082018281106001600160401b038211176112ff57604052565b6040519061014082018281106001600160401b038211176112ff57604052565b61137d611315565b9060008083528060208401528060408401528060608401528060808401528060a08401528060c084015260e083015256fe505d3c3221765ecb3bb16f3d443beee60afae6e29a654368a019deeab0cd0e220ac90c257048ef1c3e387c26d4a99bde06894efbcbff862dc1885c3a9319308aa2646970667358221220f9b28755a3d71b68978e0cdaf503c0b8f8eea0abeebeae9b37275f41db68b30164736f6c63430008180033","linkReferences":{}},"methodIdentifiers":{"PUBLISHER_ROLE()":"d8f4b6fd","getCohortSummary(bytes32)":"14890dc5","getParameterSet(bytes32)":"8329b231","getResultBundle(bytes32)":"cd16283f","getSchemeSummary(bytes32)":"d3dec212","getValuationSnapshot(bytes32)":"21fde248","grantRole(bytes32,address)":"2f2ff15d","hasRole(bytes32,address)":"91d14854","owner()":"8da5cb5b","publishCohortSummary(bytes32,bytes32,uint16,uint256,uint256,uint256,uint32,bytes32)":"c1672265","publishParameterSet(bytes32,uint64,int32,int32,int32,uint256,uint32,uint64,bytes32)":"85f8fcb9","publishResultBundle(bytes32,bytes32,bytes32,bytes32,bytes32,bytes32,bytes32,bytes32,bytes32,bytes32)":"31f28901","publishSchemeSummary(bytes32,bytes32,uint256,uint256,uint256,uint256,bytes32)":"e5eca73c","publishValuationSnapshot(bytes32,bytes32,bytes32,bytes32,uint64,uint32,bytes32)":"fd851d6d","revokeRole(bytes32,address)":"d547741f","transferOwnership(address)":"f2fde38b"},"id":22}