{"abi":[{"type":"constructor","inputs":[{"name":"initialOwner","type":"address","internalType":"address"}],"stateMutability":"nonpayable"},{"type":"function","name":"PUBLISHER_ROLE","inputs":[],"outputs":[{"name":"","type":"bytes32","internalType":"bytes32"}],"stateMutability":"view"},{"type":"function","name":"basisOf","inputs":[{"name":"version","type":"uint64","internalType":"uint64"}],"outputs":[{"name":"","type":"tuple","internalType":"struct IMortalityBasisOracle.BasisSnapshot","components":[{"name":"version","type":"uint64","internalType":"uint64"},{"name":"baselineId","type":"bytes32","internalType":"bytes32"},{"name":"cohortDigest","type":"bytes32","internalType":"bytes32"},{"name":"credibilityBps","type":"uint32","internalType":"uint32"},{"name":"effectiveDate","type":"uint64","internalType":"uint64"},{"name":"studyHash","type":"bytes32","internalType":"bytes32"},{"name":"exposureScaled","type":"uint64","internalType":"uint64"},{"name":"observedDeaths","type":"uint32","internalType":"uint32"},{"name":"expectedDeathsScaled","type":"uint64","internalType":"uint64"},{"name":"publisher","type":"address","internalType":"address"},{"name":"advisory","type":"bool","internalType":"bool"}]}],"stateMutability":"view"},{"type":"function","name":"currentBasis","inputs":[],"outputs":[{"name":"","type":"tuple","internalType":"struct IMortalityBasisOracle.BasisSnapshot","components":[{"name":"version","type":"uint64","internalType":"uint64"},{"name":"baselineId","type":"bytes32","internalType":"bytes32"},{"name":"cohortDigest","type":"bytes32","internalType":"bytes32"},{"name":"credibilityBps","type":"uint32","internalType":"uint32"},{"name":"effectiveDate","type":"uint64","internalType":"uint64"},{"name":"studyHash","type":"bytes32","internalType":"bytes32"},{"name":"exposureScaled","type":"uint64","internalType":"uint64"},{"name":"observedDeaths","type":"uint32","internalType":"uint32"},{"name":"expectedDeathsScaled","type":"uint64","internalType":"uint64"},{"name":"publisher","type":"address","internalType":"address"},{"name":"advisory","type":"bool","internalType":"bool"}]}],"stateMutability":"view"},{"type":"function","name":"grantRole","inputs":[{"name":"role","type":"bytes32","internalType":"bytes32"},{"name":"account","type":"address","internalType":"address"}],"outputs":[],"stateMutability":"nonpayable"},{"type":"function","name":"hasRole","inputs":[{"name":"role","type":"bytes32","internalType":"bytes32"},{"name":"account","type":"address","internalType":"address"}],"outputs":[{"name":"","type":"bool","internalType":"bool"}],"stateMutability":"view"},{"type":"function","name":"latestVersion","inputs":[],"outputs":[{"name":"","type":"uint64","internalType":"uint64"}],"stateMutability":"view"},{"type":"function","name":"owner","inputs":[],"outputs":[{"name":"","type":"address","internalType":"address"}],"stateMutability":"view"},{"type":"function","name":"publishBasis","inputs":[{"name":"version","type":"uint64","internalType":"uint64"},{"name":"baselineId","type":"bytes32","internalType":"bytes32"},{"name":"cohortDigest","type":"bytes32","internalType":"bytes32"},{"name":"credibilityBps","type":"uint32","internalType":"uint32"},{"name":"effectiveDate","type":"uint64","internalType":"uint64"},{"name":"studyHash","type":"bytes32","internalType":"bytes32"},{"name":"exposureScaled","type":"uint64","internalType":"uint64"},{"name":"observedDeaths","type":"uint32","internalType":"uint32"},{"name":"expectedDeathsScaled","type":"uint64","internalType":"uint64"},{"name":"advisory","type":"bool","internalType":"bool"}],"outputs":[],"stateMutability":"nonpayable"},{"type":"function","name":"revokeRole","inputs":[{"name":"role","type":"bytes32","internalType":"bytes32"},{"name":"account","type":"address","internalType":"address"}],"outputs":[],"stateMutability":"nonpayable"},{"type":"function","name":"transferOwnership","inputs":[{"name":"newOwner","type":"address","internalType":"address"}],"outputs":[],"stateMutability":"nonpayable"},{"type":"event","name":"MortalityBasisPublished","inputs":[{"name":"version","type":"uint64","indexed":true,"internalType":"uint64"},{"name":"baselineId","type":"bytes32","indexed":true,"internalType":"bytes32"},{"name":"cohortDigest","type":"bytes32","indexed":false,"internalType":"bytes32"},{"name":"credibilityBps","type":"uint32","indexed":false,"internalType":"uint32"},{"name":"effectiveDate","type":"uint64","indexed":false,"internalType":"uint64"},{"name":"studyHash","type":"bytes32","indexed":false,"internalType":"bytes32"},{"name":"publisher","type":"address","indexed":true,"internalType":"address"},{"name":"advisory","type":"bool","indexed":false,"internalType":"bool"}],"anonymous":false},{"type":"event","name":"OwnershipTransferred","inputs":[{"name":"previousOwner","type":"address","indexed":true,"internalType":"address"},{"name":"newOwner","type":"address","indexed":true,"internalType":"address"}],"anonymous":false},{"type":"event","name":"RoleGranted","inputs":[{"name":"role","type":"bytes32","indexed":true,"internalType":"bytes32"},{"name":"account","type":"address","indexed":true,"internalType":"address"}],"anonymous":false},{"type":"event","name":"RoleRevoked","inputs":[{"name":"role","type":"bytes32","indexed":true,"internalType":"bytes32"},{"name":"account","type":"address","indexed":true,"internalType":"address"}],"anonymous":false},{"type":"error","name":"InvalidParams","inputs":[]},{"type":"error","name":"MissingRole","inputs":[{"name":"role","type":"bytes32","internalType":"bytes32"},{"name":"account","type":"address","internalType":"address"}]},{"type":"error","name":"NotOwner","inputs":[]},{"type":"error","name":"VersionAlreadyExists","inputs":[{"name":"version","type":"uint64","internalType":"uint64"}]},{"type":"error","name":"VersionOutOfOrder","inputs":[{"name":"latest","type":"uint64","internalType":"uint64"},{"name":"attempted","type":"uint64","internalType":"uint64"}]},{"type":"error","name":"ZeroAddress","inputs":[]}],"bytecode":{"object":"0x6080346100b057601f610a3138819003918201601f19168301916001600160401b038311848410176100b5578084926020946040528339810103126100b057516001600160a01b038116908190036100b057801561009e57600080546001600160a01b0319168217815560405191907f8be0079c531659141344cd1fd0a4f28419497f9722a3daafe3b4186f6b6457e08180a361096590816100cc8239f35b60405163d92e233d60e01b8152600490fd5b600080fd5b634e487b7160e01b600052604160045260246000fdfe6080604052600436101561001257600080fd5b60003560e01c80631238814a1461083c5780632f2ff15d146107955780637e60e83514610628578063845a691d1461029f5780638da5cb5b1461027657806391d1485414610229578063c07f47d414610202578063d547741f1461015f578063d8f4b6fd146101245763f2fde38b1461008a57600080fd5b3461011f57602036600319011261011f576004356001600160a01b038181169182900361011f5760005490811680330361010d5782156100fb5782907f8be0079c531659141344cd1fd0a4f28419497f9722a3daafe3b4186f6b6457e0600080a36001600160a01b03191617600055005b60405163d92e233d60e01b8152600490fd5b6040516330cd747160e01b8152600490fd5b600080fd5b3461011f57600036600319011261011f5760206040517f0ac90c257048ef1c3e387c26d4a99bde06894efbcbff862dc1885c3a9319308a8152f35b3461011f57604036600319011261011f5760043561017b61087f565b6000549091906001600160a01b03908116330361010d5781600052600160205260406000209216918260005260205260ff604060002054166101b957005b806000526001602052604060002082600052602052604060002060ff1981541690557f155aaafb6329a2098580462df33ec4b7441b19729b9601c5fc17ae1cf99a8a52600080a3005b3461011f57600036600319011261011f5760206001600160401b0360025416604051908152f35b3461011f57604036600319011261011f5761024261087f565b600435600052600160205260406000209060018060a01b0316600052602052602060ff604060002054166040519015158152f35b3461011f57600036600319011261011f576000546040516001600160a01b039091168152602090f35b3461011f5761014036600319011261011f576102b9610895565b6064359063ffffffff8216820361011f576084356001600160401b038116810361011f5760c4356001600160401b038116810361011f5760e4359163ffffffff8316830361011f5761010435916001600160401b038316830361011f576101243593841515850361011f573360009081527f505d3c3221765ecb3bb16f3d443beee60afae6e29a654368a019deeab0cd0e2260205260409020547f0ac90c257048ef1c3e387c26d4a99bde06894efbcbff862dc1885c3a9319308a9060ff161561060a57506001600160401b038616156105b0576001600160401b03861660005260036020526001600160401b03604060002054166105e9576001600160401b0360025416806001600160401b03881611156105c2575061271063ffffffff8816116105b0576001600160401b039363ffffffff8592836103f86108ab565b95818b16875260243560208801526044356040880152838c166060880152818816608088015260a43560a08801521660c08601521660e0840152166101008201523361012082015283151561014082015282851660005260036020526006604060002084835116851982541617815560208301516001820155604083015160028201556003810163ffffffff6060850151168154906bffffffffffffffff00000000608087015160201b16916bffffffffffffffffffffffff19161717905560a08301516004820155600581018560c0850151168154906bffffffff000000000000000060e087015160401b16908860601b61010088015160601b16926bffffffffffffffffffffffff60a01b161717179055019060018060a01b036101208201511682549161014060ff60a01b910151151560a01b16916affffffffffffffffffffff60a81b16171790558184168219600254161760025563ffffffff60405195604435875216602086015216604084015260a43560608401521515608083015233917fd70bc06ca09629e6576a73cc0f6e7bec7fa4b96ff038b3557034ad43e8cf886760a06001600160401b03602435941692a4005b604051635435b28960e11b8152600490fd5b6044906001600160401b03886040519263ee86148160e01b84526004840152166024820152fd5b604051637084c33b60e01b81526001600160401b0387166004820152602490fd5b604490604051906301d4003760e61b82526004820152336024820152fd5b3461011f57602036600319011261011f57610791610644610895565b61064c6108e1565b506001600160401b03809116600052600360205260ff600660406000206106716108ab565b93808254168552600182015460208601526002820154604086015260038201548163ffffffff91828116606089015260201c166080870152600483015460a087015260058301549082821660c08801528160401c1660e087015260601c16610100850152015460018060a01b03811661012084015260a01c161515610140820152604051918291829190916101608101926001600160401b038082511683526020820151602084015260408201516040840152606082015163ffffffff809116606085015281608084015116608085015260a083015160a08501528160c08401511660c085015260e08301511660e08401526101009081830151169083015261012060018060a01b03818301511690830152610140809101511515910152565b0390f35b3461011f57604036600319011261011f576004356107b161087f565b6000549091906001600160a01b03908116330361010d5781600052600160205260406000209216918260005260205260ff60406000205416156107f057005b8060005260016020526040600020826000526020526040600020600160ff198254161790557f2ae6a113c0ed5b78a53413ffbb7679881f11145ccfba4fb92e863dfcd5a1d2f3600080a3005b3461011f57600036600319011261011f576108556108e1565b506107916001600160401b038060025416600052600360205260ff600660406000206106716108ab565b602435906001600160a01b038216820361011f57565b600435906001600160401b038216820361011f57565b6040519061016082018281106001600160401b038211176108cb57604052565b634e487b7160e01b600052604160045260246000fd5b6108e96108ab565b9060008083528060208401528060408401528060608401528060808401528060a08401528060c08401528060e0840152806101008401528061012084015261014083015256fea2646970667358221220faa9ea2424cdf499f11b0018d5215e2e9d354b96a55d534198bbc1432679a37264736f6c63430008180033","linkReferences":{}},"methodIdentifiers":{"PUBLISHER_ROLE()":"d8f4b6fd","basisOf(uint64)":"7e60e835","currentBasis()":"1238814a","grantRole(bytes32,address)":"2f2ff15d","hasRole(bytes32,address)":"91d14854","latestVersion()":"c07f47d4","owner()":"8da5cb5b","publishBasis(uint64,bytes32,bytes32,uint32,uint64,bytes32,uint64,uint32,uint64,bool)":"845a691d","revokeRole(bytes32,address)":"d547741f","transferOwnership(address)":"f2fde38b"},"id":26}