{"abi":[{"type":"constructor","inputs":[{"name":"initialOwner","type":"address","internalType":"address"}],"stateMutability":"nonpayable"},{"type":"function","name":"METHOD_ADMIN_ROLE","inputs":[],"outputs":[{"name":"","type":"bytes32","internalType":"bytes32"}],"stateMutability":"view"},{"type":"function","name":"activeMethodKey","inputs":[{"name":"","type":"bytes32","internalType":"bytes32"}],"outputs":[{"name":"","type":"bytes32","internalType":"bytes32"}],"stateMutability":"view"},{"type":"function","name":"getMethod","inputs":[{"name":"methodKey_","type":"bytes32","internalType":"bytes32"}],"outputs":[{"name":"","type":"tuple","internalType":"struct IActuarialMethodRegistry.MethodVersion","components":[{"name":"methodKey","type":"bytes32","internalType":"bytes32"},{"name":"methodFamily","type":"string","internalType":"string"},{"name":"versionLabel","type":"string","internalType":"string"},{"name":"specHash","type":"bytes32","internalType":"bytes32"},{"name":"referenceImplHash","type":"bytes32","internalType":"bytes32"},{"name":"parameterSchemaHash","type":"bytes32","internalType":"bytes32"},{"name":"effectiveDate","type":"uint64","internalType":"uint64"},{"name":"metadataHash","type":"bytes32","internalType":"bytes32"},{"name":"publisher","type":"address","internalType":"address"},{"name":"active","type":"bool","internalType":"bool"}]}],"stateMutability":"view"},{"type":"function","name":"grantRole","inputs":[{"name":"role","type":"bytes32","internalType":"bytes32"},{"name":"account","type":"address","internalType":"address"}],"outputs":[],"stateMutability":"nonpayable"},{"type":"function","name":"hasRole","inputs":[{"name":"role","type":"bytes32","internalType":"bytes32"},{"name":"account","type":"address","internalType":"address"}],"outputs":[{"name":"","type":"bool","internalType":"bool"}],"stateMutability":"view"},{"type":"function","name":"owner","inputs":[],"outputs":[{"name":"","type":"address","internalType":"address"}],"stateMutability":"view"},{"type":"function","name":"registerMethod","inputs":[{"name":"methodKey_","type":"bytes32","internalType":"bytes32"},{"name":"methodFamily","type":"string","internalType":"string"},{"name":"versionLabel","type":"string","internalType":"string"},{"name":"specHash","type":"bytes32","internalType":"bytes32"},{"name":"referenceImplHash","type":"bytes32","internalType":"bytes32"},{"name":"parameterSchemaHash","type":"bytes32","internalType":"bytes32"},{"name":"effectiveDate","type":"uint64","internalType":"uint64"},{"name":"metadataHash","type":"bytes32","internalType":"bytes32"},{"name":"activate","type":"bool","internalType":"bool"}],"outputs":[],"stateMutability":"nonpayable"},{"type":"function","name":"revokeRole","inputs":[{"name":"role","type":"bytes32","internalType":"bytes32"},{"name":"account","type":"address","internalType":"address"}],"outputs":[],"stateMutability":"nonpayable"},{"type":"function","name":"setActiveMethod","inputs":[{"name":"methodKey_","type":"bytes32","internalType":"bytes32"}],"outputs":[],"stateMutability":"nonpayable"},{"type":"function","name":"transferOwnership","inputs":[{"name":"newOwner","type":"address","internalType":"address"}],"outputs":[],"stateMutability":"nonpayable"},{"type":"event","name":"ActiveMethodUpdated","inputs":[{"name":"familyKey","type":"bytes32","indexed":true,"internalType":"bytes32"},{"name":"methodKey","type":"bytes32","indexed":true,"internalType":"bytes32"},{"name":"methodFamily","type":"string","indexed":false,"internalType":"string"},{"name":"versionLabel","type":"string","indexed":false,"internalType":"string"}],"anonymous":false},{"type":"event","name":"MethodRegistered","inputs":[{"name":"methodKey","type":"bytes32","indexed":true,"internalType":"bytes32"},{"name":"familyKey","type":"bytes32","indexed":true,"internalType":"bytes32"},{"name":"methodFamily","type":"string","indexed":false,"internalType":"string"},{"name":"versionLabel","type":"string","indexed":false,"internalType":"string"},{"name":"effectiveDate","type":"uint64","indexed":false,"internalType":"uint64"},{"name":"publisher","type":"address","indexed":false,"internalType":"address"}],"anonymous":false},{"type":"event","name":"OwnershipTransferred","inputs":[{"name":"previousOwner","type":"address","indexed":true,"internalType":"address"},{"name":"newOwner","type":"address","indexed":true,"internalType":"address"}],"anonymous":false},{"type":"event","name":"RoleGranted","inputs":[{"name":"role","type":"bytes32","indexed":true,"internalType":"bytes32"},{"name":"account","type":"address","indexed":true,"internalType":"address"}],"anonymous":false},{"type":"event","name":"RoleRevoked","inputs":[{"name":"role","type":"bytes32","indexed":true,"internalType":"bytes32"},{"name":"account","type":"address","indexed":true,"internalType":"address"}],"anonymous":false},{"type":"error","name":"InvalidParams","inputs":[]},{"type":"error","name":"MethodAlreadyExists","inputs":[{"name":"methodKey","type":"bytes32","internalType":"bytes32"}]},{"type":"error","name":"MissingRole","inputs":[{"name":"role","type":"bytes32","internalType":"bytes32"},{"name":"account","type":"address","internalType":"address"}]},{"type":"error","name":"NotOwner","inputs":[]},{"type":"error","name":"UnknownMethod","inputs":[{"name":"methodKey","type":"bytes32","internalType":"bytes32"}]},{"type":"error","name":"ZeroAddress","inputs":[]}],"bytecode":{"object":"0x6080346100b057601f610ef638819003918201601f19168301916001600160401b038311848410176100b5578084926020946040528339810103126100b057516001600160a01b038116908190036100b057801561009e57600080546001600160a01b0319168217815560405191907f8be0079c531659141344cd1fd0a4f28419497f9722a3daafe3b4186f6b6457e08180a3610e2a90816100cc8239f35b60405163d92e233d60e01b8152600490fd5b600080fd5b634e487b7160e01b600052604160045260246000fdfe608080604052600436101561001357600080fd5b60003560e01c9081632f2ff15d14610a9157508063340d148e1461053d578063698579711461051157806369b8a521146104d65780638da5cb5b146104ad57806391d1485414610460578063cae428621461037e578063d547741f146102db578063da2b4d8a146101275763f2fde38b1461008d57600080fd5b34610122576020366003190112610122576004356001600160a01b0381811691829003610122576000549081168033036101105782156100fe5782907f8be0079c531659141344cd1fd0a4f28419497f9722a3daafe3b4186f6b6457e0600080a36001600160a01b03191617600055005b60405163d92e233d60e01b8152600490fd5b6040516330cd747160e01b8152600490fd5b600080fd5b3461012257602036600319011261012257600061012060405161014981610bca565b82815260606020820152606060408201528260608201528260808201528260a08201528260c08201528260e08201528261010082015201526004356000526002602052604060002060ff6008604051926101a284610bca565b805484526040516101c1816101ba8160018601610ca8565b0382610be6565b60208501526040516101da816101ba8160028601610ca8565b60408501526003810154606085015260048101546080850152600581015460a08501526001600160401b0360068201541660c0850152600781015460e0850152015460018060a01b03811661010084015260a01c16151561012082015260405180916020825280516020830152602081015161012061028061026a61014093846040880152610160870190610b8a565b6040850151868203601f19016060880152610b8a565b9260608101516080860152608081015160a086015260a081015160c08601526001600160401b0360c08201511660e086015260e081015161010086015260018060a01b03610100820151168286015201511515908301520390f35b34610122576040366003190112610122576004356102f7610b47565b6000549091906001600160a01b0390811633036101105781600052600160205260406000209216918260005260205260ff6040600020541661033557005b806000526001602052604060002082600052602052604060002060ff1981541690557f155aaafb6329a2098580462df33ec4b7441b19729b9601c5fc17ae1cf99a8a52600080a3005b34610122576020366003190112610122573360009081527f340064418f9786fccc02f63e4fc59a16f14f99b96fbaba2e46d58e3f54d4d43b6020526040902054600435907fa12a782978ab8c5e2ba90d4fede569dcac38dce2c0dd98c2fdba73446b77f6739060ff1615610442575080600052600260205260406000209081541561042a57600161041c610428936101ba6040518094819301610ca8565b60208151910120610d3e565b005b602490604051906335a6a04b60e01b82526004820152fd5b604490604051906301d4003760e61b82526004820152336024820152fd5b3461012257604036600319011261012257610479610b47565b600435600052600160205260406000209060018060a01b0316600052602052602060ff604060002054166040519015158152f35b34610122576000366003190112610122576000546040516001600160a01b039091168152602090f35b346101225760003660031901126101225760206040517fa12a782978ab8c5e2ba90d4fede569dcac38dce2c0dd98c2fdba73446b77f6738152f35b346101225760203660031901126101225760043560005260036020526020604060002054604051908152f35b3461012257610120366003190112610122576024356001600160401b0381116101225761056e903690600401610b5d565b906044356001600160401b0381116101225761058e903690600401610b5d565b9260c435916001600160401b0383168303610122576101043515156101043503610122573360009081527f340064418f9786fccc02f63e4fc59a16f14f99b96fbaba2e46d58e3f54d4d43b60205260409020547fa12a782978ab8c5e2ba90d4fede569dcac38dce2c0dd98c2fdba73446b77f6739060ff1615610442575060043515610a775781158015610a89575b610a77576004356000526002602052604060002054610a5e576040519461064386610bca565b6004358652610653368487610c07565b6020870152610663368284610c07565b60408701526064356060870152608435608087015260a43560a08701526001600160401b03841660c087015260e43560e087015233610100870152600061012087015260043560005260026020526040600020958051875560208101518051906001600160401b0382116109785781906106e060018b0154610c4d565b601f8111610a0b575b50602090601f83116001146109995760009261098e575b50508160011b916000199060031b1c19161760018801555b60408101519687516001600160401b0381116109785761073b6002830154610c4d565b601f8111610931575b506020601f821160011461088c579260087fe6ddf4e63105859170e431f816307d0de91b51bf2b1e096b143406f2e598d3f8979693836001600160401b039794610855976108479e600092610881575b50508160011b916000199060031b1c19161760028201555b606083015160038201556080830151600482015560a08301516005820155600681018760c085015116881982541617905560e08301516007820155019060018060a01b036101008201511682549161012060ff60a01b910151151560a01b16916affffffffffffffffffffff60a81b161717905561082b36868a610c07565b6020815191012098899860405196608088526080880191610c87565b918583036020870152610c87565b9316604082015233606082015280600435930390a36101043561087457005b6104289060043590610d3e565b015190508e80610794565b6002830160005260206000209960005b601f198416811061091957507fe6ddf4e63105859170e431f816307d0de91b51bf2b1e096b143406f2e598d3f89796936001846108479d61085598956008956001600160401b039b98601f19811610610900575b505050811b0160028201556107ac565b015160001960f88460031b161c191690558e80806108f0565b828201518c556001909b019a6020928301920161089c565b600283016000526020600020601f830160051c810160208410610971575b601f830160051c82018110610965575050610744565b6000815560010161094f565b508061094f565b634e487b7160e01b600052604160045260246000fd5b015190508980610700565b925060018a016000526020600020906000935b601f19841685106109f0576001945083601f198116106109d7575b505050811b016001880155610718565b015160001960f88460031b161c191690558980806109c7565b818101518355602094850194600190930192909101906109ac565b90915060018a016000526020600020601f840160051c810160208510610a57575b90849392915b601f830160051c82018110610a485750506106e9565b60008155859450600101610a32565b5080610a2c565b6024604051636e6de6a160e11b81526004356004820152fd5b604051635435b28960e11b8152600490fd5b50841561061d565b3461012257604036600319011261012257600435610aad610b47565b60005490926001600160a01b039182163303610b38575081600052600160205260406000209216918260005260205260ff6040600020541615610aec57005b8060005260016020526040600020826000526020526040600020600160ff198254161790557f2ae6a113c0ed5b78a53413ffbb7679881f11145ccfba4fb92e863dfcd5a1d2f3600080a3005b6330cd747160e01b8152600490fd5b602435906001600160a01b038216820361012257565b9181601f84011215610122578235916001600160401b038311610122576020838186019501011161012257565b919082519283825260005b848110610bb6575050826000602080949584010152601f8019910116010190565b602081830181015184830182015201610b95565b61014081019081106001600160401b0382111761097857604052565b90601f801991011681019081106001600160401b0382111761097857604052565b9291926001600160401b0382116109785760405191610c30601f8201601f191660200184610be6565b829481845281830111610122578281602093846000960137010152565b90600182811c92168015610c7d575b6020831014610c6757565b634e487b7160e01b600052602260045260246000fd5b91607f1691610c5c565b908060209392818452848401376000828201840152601f01601f1916010190565b805460009392610cb782610c4d565b91828252602093600191600181169081600014610d1f5750600114610cde575b5050505050565b90939495506000929192528360002092846000945b838610610d0b57505050500101903880808080610cd7565b805485870183015294019385908201610cf3565b60ff19168685015250505090151560051b010191503880808080610cd7565b7f21b617d50d18d97f96900cdde8c02bf75c555131e219dfcea607ae26fb1b9fcd610dc56000838152610dd36020600381526002604084818096205480610dd8575b50898152828452818120600801805460ff60a01b1916600160a01b179055888152600384528181208a9055898152828452208451858152958695860160018301610ca8565b928584039086015201610ca8565b0390a3565b8152828452818120600801805460ff60a01b1916905538610d8056fea2646970667358221220eb247a630fefc85783008c4b93877aeb6bf0c1025cd78f308247cdd9653b695164736f6c63430008180033","linkReferences":{}},"methodIdentifiers":{"METHOD_ADMIN_ROLE()":"69b8a521","activeMethodKey(bytes32)":"69857971","getMethod(bytes32)":"da2b4d8a","grantRole(bytes32,address)":"2f2ff15d","hasRole(bytes32,address)":"91d14854","owner()":"8da5cb5b","registerMethod(bytes32,string,string,bytes32,bytes32,bytes32,uint64,bytes32,bool)":"340d148e","revokeRole(bytes32,address)":"d547741f","setActiveMethod(bytes32)":"cae42862","transferOwnership(address)":"f2fde38b"},"id":21}