{"abi":[{"type":"constructor","inputs":[{"name":"initialOwner","type":"address","internalType":"address"},{"name":"_stressOracle","type":"address","internalType":"contract IStressOracle"},{"name":"_beneficiary","type":"address","internalType":"address"},{"name":"_releaseThreshold","type":"uint256","internalType":"uint256"},{"name":"_perCallCapBps","type":"uint256","internalType":"uint256"}],"stateMutability":"nonpayable"},{"type":"receive","stateMutability":"payable"},{"type":"function","name":"DEPOSITOR_ROLE","inputs":[],"outputs":[{"name":"","type":"bytes32","internalType":"bytes32"}],"stateMutability":"view"},{"type":"function","name":"GUARDIAN_ROLE","inputs":[],"outputs":[{"name":"","type":"bytes32","internalType":"bytes32"}],"stateMutability":"view"},{"type":"function","name":"beneficiary","inputs":[],"outputs":[{"name":"","type":"address","internalType":"address"}],"stateMutability":"view"},{"type":"function","name":"deposit","inputs":[],"outputs":[],"stateMutability":"payable"},{"type":"function","name":"grantRole","inputs":[{"name":"role","type":"bytes32","internalType":"bytes32"},{"name":"account","type":"address","internalType":"address"}],"outputs":[],"stateMutability":"nonpayable"},{"type":"function","name":"hasRole","inputs":[{"name":"role","type":"bytes32","internalType":"bytes32"},{"name":"account","type":"address","internalType":"address"}],"outputs":[{"name":"","type":"bool","internalType":"bool"}],"stateMutability":"view"},{"type":"function","name":"owner","inputs":[],"outputs":[{"name":"","type":"address","internalType":"address"}],"stateMutability":"view"},{"type":"function","name":"perCallCapBps","inputs":[],"outputs":[{"name":"","type":"uint256","internalType":"uint256"}],"stateMutability":"view"},{"type":"function","name":"release","inputs":[{"name":"amount","type":"uint256","internalType":"uint256"}],"outputs":[],"stateMutability":"nonpayable"},{"type":"function","name":"releaseThreshold","inputs":[],"outputs":[{"name":"","type":"uint256","internalType":"uint256"}],"stateMutability":"view"},{"type":"function","name":"reserve","inputs":[],"outputs":[{"name":"","type":"uint256","internalType":"uint256"}],"stateMutability":"view"},{"type":"function","name":"revokeRole","inputs":[{"name":"role","type":"bytes32","internalType":"bytes32"},{"name":"account","type":"address","internalType":"address"}],"outputs":[],"stateMutability":"nonpayable"},{"type":"function","name":"setBeneficiary","inputs":[{"name":"newBeneficiary","type":"address","internalType":"address"}],"outputs":[],"stateMutability":"nonpayable"},{"type":"function","name":"setParameters","inputs":[{"name":"newThreshold","type":"uint256","internalType":"uint256"},{"name":"newCapBps","type":"uint256","internalType":"uint256"}],"outputs":[],"stateMutability":"nonpayable"},{"type":"function","name":"stressOracle","inputs":[],"outputs":[{"name":"","type":"address","internalType":"contract IStressOracle"}],"stateMutability":"view"},{"type":"function","name":"totalDeposited","inputs":[],"outputs":[{"name":"","type":"uint256","internalType":"uint256"}],"stateMutability":"view"},{"type":"function","name":"totalReleased","inputs":[],"outputs":[{"name":"","type":"uint256","internalType":"uint256"}],"stateMutability":"view"},{"type":"function","name":"transferOwnership","inputs":[{"name":"newOwner","type":"address","internalType":"address"}],"outputs":[],"stateMutability":"nonpayable"},{"type":"event","name":"BeneficiaryUpdated","inputs":[{"name":"newBeneficiary","type":"address","indexed":true,"internalType":"address"}],"anonymous":false},{"type":"event","name":"Deposited","inputs":[{"name":"from","type":"address","indexed":true,"internalType":"address"},{"name":"amount","type":"uint256","indexed":false,"internalType":"uint256"}],"anonymous":false},{"type":"event","name":"OwnershipTransferred","inputs":[{"name":"previousOwner","type":"address","indexed":true,"internalType":"address"},{"name":"newOwner","type":"address","indexed":true,"internalType":"address"}],"anonymous":false},{"type":"event","name":"ParametersUpdated","inputs":[{"name":"releaseThreshold","type":"uint256","indexed":false,"internalType":"uint256"},{"name":"perCallCapBps","type":"uint256","indexed":false,"internalType":"uint256"}],"anonymous":false},{"type":"event","name":"Released","inputs":[{"name":"to","type":"address","indexed":true,"internalType":"address"},{"name":"amount","type":"uint256","indexed":false,"internalType":"uint256"},{"name":"stressLevel","type":"uint256","indexed":false,"internalType":"uint256"}],"anonymous":false},{"type":"event","name":"RoleGranted","inputs":[{"name":"role","type":"bytes32","indexed":true,"internalType":"bytes32"},{"name":"account","type":"address","indexed":true,"internalType":"address"}],"anonymous":false},{"type":"event","name":"RoleRevoked","inputs":[{"name":"role","type":"bytes32","indexed":true,"internalType":"bytes32"},{"name":"account","type":"address","indexed":true,"internalType":"address"}],"anonymous":false},{"type":"error","name":"CapExceeded","inputs":[{"name":"requested","type":"uint256","internalType":"uint256"},{"name":"cap","type":"uint256","internalType":"uint256"}]},{"type":"error","name":"InvalidParams","inputs":[]},{"type":"error","name":"MissingRole","inputs":[{"name":"role","type":"bytes32","internalType":"bytes32"},{"name":"account","type":"address","internalType":"address"}]},{"type":"error","name":"NotOwner","inputs":[]},{"type":"error","name":"Reentrancy","inputs":[]},{"type":"error","name":"StressBelowThreshold","inputs":[{"name":"current","type":"uint256","internalType":"uint256"},{"name":"threshold","type":"uint256","internalType":"uint256"}]},{"type":"error","name":"ZeroAddress","inputs":[]},{"type":"error","name":"ZeroReserve","inputs":[]}],"bytecode":{"object":"0x60a03461015a57601f610b7538819003918201601f191683019291906001600160401b0384118385101761015f578160a0928492604096875283398101031261015a5761004b81610175565b60208201519091906001600160a01b038082169182810361015a57610071868501610175565b908260806060870151960151961680156101495760018060a01b0319948186600054161760005588519160007f8be0079c531659141344cd1fd0a4f28419497f9722a3daafe3b4186f6b6457e08180a315801561013f575b61013057506127108611801561011f575b61010e5760805216906002541617600255600355600455516109eb908161018a82396080518181816101e8015261058c0152f35b8651635435b28960e11b8152600490fd5b50670de0b6b3a764000085116100da565b63d92e233d60e01b8152600490fd5b50838316156100c9565b875163d92e233d60e01b8152600490fd5b600080fd5b634e487b7160e01b600052604160045260246000fd5b51906001600160a01b038216820361015a5756fe608060408181526004918236101561002a575b505050361561002057600080fd5b610028610978565b005b600092833560e01c9182631c31f7101461086a5750816324ea54f41461082f5781632f2ff15d1461078e57816337bdc99b1461050357816338af3eed146104da5781638835aa6f146104bb578163884870c7146104195781638da5cb5b146103f157816391d14854146103aa578163a3b0b5a31461036f578163cd3293de14610354578163cf46a86e14610336578163d0e30db0146102c2578163d547741f14610217578163dec4c74d146101d3578163e33b7de3146101b4578163f2fde38b14610121575063ff50abdc146101005780610012565b3461011d578160031936011261011d576020906005549051908152f35b5080fd5b9050346101b05760203660031901126101b05761013c6108ec565b8354916001600160a01b0380841692338490036101a0571693841561019357505082907f8be0079c531659141344cd1fd0a4f28419497f9722a3daafe3b4186f6b6457e08580a36001600160a01b03191617815580f35b5163d92e233d60e01b8152fd5b85516330cd747160e01b81528390fd5b8280fd5b50503461011d578160031936011261011d576020906006549051908152f35b50503461011d578160031936011261011d57517f00000000000000000000000000000000000000000000000000000000000000006001600160a01b03168152602090f35b919050346101b057806003193601126101b057813590610235610907565b845490936001600160a01b0391821633036102b45750828552600160205281852093169283855260205260ff818520541661026e578380f35b8184526001602052808420838552602052832060ff1981541690557f155aaafb6329a2098580462df33ec4b7441b19729b9601c5fc17ae1cf99a8a528380a33880808380f35b82516330cd747160e01b8152fd5b919050826003193601126101b0577f8f4f2da22e8ac8f11e15f9fc141cddbb5deea8800186560abb6e68c5496619a990818452600160205280842033855260205260ff81852054161561031b5783610318610978565b80f35b516301d4003760e61b81529182015233602482015260449150fd5b9050346101b057826003193601126101b05760209250549051908152f35b50503461011d578160031936011261011d5751478152602090f35b50503461011d578160031936011261011d57602090517f8f4f2da22e8ac8f11e15f9fc141cddbb5deea8800186560abb6e68c5496619a98152f35b9050346101b057816003193601126101b0578160209360ff926103cb610907565b90358252600186528282206001600160a01b039091168252855220549151911615158152f35b50503461011d578160031936011261011d57905490516001600160a01b039091168152602090f35b83833461011d578060031936011261011d578154833590602435906001600160a01b031633036104ab576127108111801561049a575b61048a57807ffaccb0639ff7851e0e24f3b2d9ab03cd62ffb63f5b4d90aaeff85bb078c1fa489495836003555582519182526020820152a180f35b8251635435b28960e11b81528590fd5b50670de0b6b3a7640000821161044f565b82516330cd747160e01b81528590fd5b50503461011d578160031936011261011d576020906003549051908152f35b50503461011d578160031936011261011d5760025490516001600160a01b039091168152602090f35b919050346101b0576020908160031936011261078a5782357f55435dd261a4b9b3364963f7738a7a662ad9c84396d64be3365284bb7f0a504180865260018452828620338752845260ff83872054161561076e57506007549360ff85166107605760ff19948516600117600755825163211ec54160e01b8152906001600160a01b0390858382817f000000000000000000000000000000000000000000000000000000000000000086165afa928315610756578893610723575b5060035480841061070657504780156106f7578154808202918204036106e45761271090048085116106c757506105f684600654610955565b600655878080808786600254165af13d156106c2573d67ffffffffffffffff81116106af57865190610631601f8201601f19168a018361091d565b815289883d92013e5b1561067d5750907f82e416ba72d10e709b5de7ac16f5f49ff1d94f22d55bf582d353d3c313a1e8dd93929160025416948351928352820152a26007541660075580f35b845162461bcd60e51b8152908101869052600c60248201526b1c995b19585cd94819985a5b60a21b6044820152606490fd5b634e487b7160e01b8a526041835260248afd5b61063a565b855163f480e28560e01b8152918201859052602482015260449150fd5b634e487b7160e01b895260118252602489fd5b508451632fa17c5f60e11b8152fd5b85516356cfc92b60e11b8152918201849052602482015260449150fd5b9092508581813d831161074f575b61073b818361091d565b8101031261074b575191386105bd565b8780fd5b503d610731565b85513d8a823e3d90fd5b825163558a1e0360e11b8152fd5b846044918451916301d4003760e61b8352820152336024820152fd5b8380fd5b919050346101b057806003193601126101b0578135906107ac610907565b845490936001600160a01b0391821633036102b45750828552600160205281852093169283855260205260ff8185205416156107e6578380f35b81845260016020528084208385526020528320600160ff198254161790557f2ae6a113c0ed5b78a53413ffbb7679881f11145ccfba4fb92e863dfcd5a1d2f38380a33880808380f35b50503461011d578160031936011261011d57602090517f55435dd261a4b9b3364963f7738a7a662ad9c84396d64be3365284bb7f0a50418152f35b9091503461078a57602036600319011261078a576108866108ec565b84546001600160a01b039290831633036108de575016918215610193575050600280546001600160a01b031916821790557feee59a71c694e68368a1cb0d135c448051bbfb12289e6c2223b0ceb100c2321d8280a280f35b6330cd747160e01b81528390fd5b600435906001600160a01b038216820361090257565b600080fd5b602435906001600160a01b038216820361090257565b90601f8019910116810190811067ffffffffffffffff82111761093f57604052565b634e487b7160e01b600052604160045260246000fd5b9190820180921161096257565b634e487b7160e01b600052601160045260246000fd5b61098434600554610955565b6005556040513481527f2da466a7b24304f47e87fa2e1e5a81b9831ce54fec19055ce277ca2f39ba42c460203392a256fea2646970667358221220cc8522e0cc6fedd6ff1c4f8164ca65e56e8e3a391e484f0825a5e991cfe6780164736f6c63430008180033","linkReferences":{}},"methodIdentifiers":{"DEPOSITOR_ROLE()":"a3b0b5a3","GUARDIAN_ROLE()":"24ea54f4","beneficiary()":"38af3eed","deposit()":"d0e30db0","grantRole(bytes32,address)":"2f2ff15d","hasRole(bytes32,address)":"91d14854","owner()":"8da5cb5b","perCallCapBps()":"cf46a86e","release(uint256)":"37bdc99b","releaseThreshold()":"8835aa6f","reserve()":"cd3293de","revokeRole(bytes32,address)":"d547741f","setBeneficiary(address)":"1c31f710","setParameters(uint256,uint256)":"884870c7","stressOracle()":"dec4c74d","totalDeposited()":"ff50abdc","totalReleased()":"e33b7de3","transferOwnership(address)":"f2fde38b"},"id":19}