{"abi":[{"type":"constructor","inputs":[{"name":"initialOwner","type":"address","internalType":"address"},{"name":"_mortality","type":"address","internalType":"contract IMortalityOracle"}],"stateMutability":"nonpayable"},{"type":"receive","stateMutability":"payable"},{"type":"function","name":"DEPOSIT_ROLE","inputs":[],"outputs":[{"name":"","type":"bytes32","internalType":"bytes32"}],"stateMutability":"view"},{"type":"function","name":"PAYOUT_ROLE","inputs":[],"outputs":[{"name":"","type":"bytes32","internalType":"bytes32"}],"stateMutability":"view"},{"type":"function","name":"YIELD_ROLE","inputs":[],"outputs":[{"name":"","type":"bytes32","internalType":"bytes32"}],"stateMutability":"view"},{"type":"function","name":"deposit","inputs":[{"name":"wallet","type":"address","internalType":"address"},{"name":"amount","type":"uint256","internalType":"uint256"}],"outputs":[],"stateMutability":"payable"},{"type":"function","name":"grantRole","inputs":[{"name":"role","type":"bytes32","internalType":"bytes32"},{"name":"account","type":"address","internalType":"address"}],"outputs":[],"stateMutability":"nonpayable"},{"type":"function","name":"harvestYield","inputs":[],"outputs":[{"name":"minted","type":"uint256","internalType":"uint256"}],"stateMutability":"nonpayable"},{"type":"function","name":"hasRole","inputs":[{"name":"role","type":"bytes32","internalType":"bytes32"},{"name":"account","type":"address","internalType":"address"}],"outputs":[{"name":"","type":"bool","internalType":"bool"}],"stateMutability":"view"},{"type":"function","name":"mortality","inputs":[],"outputs":[{"name":"","type":"address","internalType":"contract IMortalityOracle"}],"stateMutability":"view"},{"type":"function","name":"owner","inputs":[],"outputs":[{"name":"","type":"address","internalType":"address"}],"stateMutability":"view"},{"type":"function","name":"payTo","inputs":[{"name":"to","type":"address","internalType":"address"},{"name":"amount","type":"uint256","internalType":"uint256"}],"outputs":[],"stateMutability":"nonpayable"},{"type":"function","name":"releaseMortalityCredit","inputs":[{"name":"wallet","type":"address","internalType":"address"}],"outputs":[{"name":"assetsReleased","type":"uint256","internalType":"uint256"}],"stateMutability":"nonpayable"},{"type":"function","name":"revokeRole","inputs":[{"name":"role","type":"bytes32","internalType":"bytes32"},{"name":"account","type":"address","internalType":"address"}],"outputs":[],"stateMutability":"nonpayable"},{"type":"function","name":"shareToAssets","inputs":[{"name":"shares_","type":"uint256","internalType":"uint256"}],"outputs":[{"name":"","type":"uint256","internalType":"uint256"}],"stateMutability":"view"},{"type":"function","name":"sharesOf","inputs":[{"name":"wallet","type":"address","internalType":"address"}],"outputs":[{"name":"","type":"uint256","internalType":"uint256"}],"stateMutability":"view"},{"type":"function","name":"simulateYield","inputs":[],"outputs":[],"stateMutability":"payable"},{"type":"function","name":"totalAssets","inputs":[],"outputs":[{"name":"","type":"uint256","internalType":"uint256"}],"stateMutability":"view"},{"type":"function","name":"totalShares","inputs":[],"outputs":[{"name":"","type":"uint256","internalType":"uint256"}],"stateMutability":"view"},{"type":"function","name":"transferOwnership","inputs":[{"name":"newOwner","type":"address","internalType":"address"}],"outputs":[],"stateMutability":"nonpayable"},{"type":"event","name":"Deposited","inputs":[{"name":"wallet","type":"address","indexed":true,"internalType":"address"},{"name":"amount","type":"uint256","indexed":false,"internalType":"uint256"},{"name":"sharesMinted","type":"uint256","indexed":false,"internalType":"uint256"}],"anonymous":false},{"type":"event","name":"MortalityCreditReleased","inputs":[{"name":"wallet","type":"address","indexed":true,"internalType":"address"},{"name":"sharesBurned","type":"uint256","indexed":false,"internalType":"uint256"},{"name":"assetsReleased","type":"uint256","indexed":false,"internalType":"uint256"}],"anonymous":false},{"type":"event","name":"OwnershipTransferred","inputs":[{"name":"previousOwner","type":"address","indexed":true,"internalType":"address"},{"name":"newOwner","type":"address","indexed":true,"internalType":"address"}],"anonymous":false},{"type":"event","name":"PaidOut","inputs":[{"name":"to","type":"address","indexed":true,"internalType":"address"},{"name":"amount","type":"uint256","indexed":false,"internalType":"uint256"}],"anonymous":false},{"type":"event","name":"RoleGranted","inputs":[{"name":"role","type":"bytes32","indexed":true,"internalType":"bytes32"},{"name":"account","type":"address","indexed":true,"internalType":"address"}],"anonymous":false},{"type":"event","name":"RoleRevoked","inputs":[{"name":"role","type":"bytes32","indexed":true,"internalType":"bytes32"},{"name":"account","type":"address","indexed":true,"internalType":"address"}],"anonymous":false},{"type":"event","name":"YieldHarvested","inputs":[{"name":"amount","type":"uint256","indexed":false,"internalType":"uint256"}],"anonymous":false},{"type":"error","name":"InsufficientAssets","inputs":[{"name":"requested","type":"uint256","internalType":"uint256"},{"name":"available","type":"uint256","internalType":"uint256"}]},{"type":"error","name":"InsufficientBalance","inputs":[{"name":"sent","type":"uint256","internalType":"uint256"},{"name":"expected","type":"uint256","internalType":"uint256"}]},{"type":"error","name":"MissingRole","inputs":[{"name":"role","type":"bytes32","internalType":"bytes32"},{"name":"account","type":"address","internalType":"address"}]},{"type":"error","name":"NoSharesToRelease","inputs":[{"name":"wallet","type":"address","internalType":"address"}]},{"type":"error","name":"NotDeceased","inputs":[{"name":"wallet","type":"address","internalType":"address"}]},{"type":"error","name":"NotOwner","inputs":[]},{"type":"error","name":"ZeroAddress","inputs":[]},{"type":"error","name":"ZeroAmount","inputs":[]}],"bytecode":{"object":"0x60a0346100eb57601f610cb538819003918201601f19168301916001600160401b038311848410176100f05780849260409485528339810103126100eb5780516001600160a01b0391828216918290036100eb57602001519182168083036100eb5781156100d957600080546001600160a01b0319168317815560405192907f8be0079c531659141344cd1fd0a4f28419497f9722a3daafe3b4186f6b6457e08180a3156100ca5750608052604051610bae908161010782396080518181816105730152610a390152f35b63d92e233d60e01b8152600490fd5b60405163d92e233d60e01b8152600490fd5b600080fd5b634e487b7160e01b600052604160045260246000fdfe60806040818152600480361015610059575b509050361561001f57600080fd5b60207feb2d114a827fe0da3db4c0e374010959cf461f7ed76987aeff51666dea9add9b9161004f34600254610afe565b60025551348152a1005b600092833560e01c90816301e1d11414610a685750806309246aed14610a245780632c9e09e4146109e95780632f2ff15d14610949578063353efdcf1461090e5780633a98ef39146108ef5780634179a8f6146108b457806347e7ef241461075d578063645d9828146106a857806372b4ee64146106815780637304053d1461052b5780637bf08621146103a95780638da5cb5b1461038157806391d148541461033b578063d547741f14610291578063e8d991d1146101ee578063f2fde38b146101605763f5eb42dc03610011573461015c57602036600319011261015c5760209282916001600160a01b0361014e610a9f565b168252845220549051908152f35b8280fd5b503461015c57602036600319011261015c5761017a610a9f565b8354916001600160a01b0380841692338490036101de57169384156101d157505082907f8be0079c531659141344cd1fd0a4f28419497f9722a3daafe3b4186f6b6457e08580a36001600160a01b03191617815580f35b5163d92e233d60e01b8152fd5b85516330cd747160e01b81528390fd5b5082903461028d578160031936011261028d577f75c54964a01877e6799d0bf9bb81bacccabdf428c61a51fb4b1945e5db894095808352600160205283832033845260205260ff84842054161561027157602083857feb2d114a827fe0da3db4c0e374010959cf461f7ed76987aeff51666dea9add9b838251848152a151908152f35b83516301d4003760e61b81529182015233602482015260449150fd5b5080fd5b50903461015c578060031936011261015c578135906102ae610a84565b845490936001600160a01b03918216330361032d5750828552600160205281852093169283855260205260ff81852054166102e7578380f35b8184526001602052808420838552602052832060ff1981541690557f155aaafb6329a2098580462df33ec4b7441b19729b9601c5fc17ae1cf99a8a528380a33880808380f35b82516330cd747160e01b8152fd5b503461015c578160031936011261015c578160209360ff9261035b610a84565b90358252600186528282206001600160a01b039091168252855220549151911615158152f35b50503461028d578160031936011261028d57905490516001600160a01b039091168152602090f35b50903461015c578060031936011261015c576103c3610a9f565b90602435907f5612063648f807201ec1c6d4f999a34ed02c6a8b521b7b99e155a6823c5687369283865260209360018552828720338852855260ff83882054161561050f575082156104ff576002548084116104e2578361042391610b6b565b6002556001600160a01b0316938580808086895af13d156104dd573d67ffffffffffffffff81116104ca57835190610464601f8201601f1916880183610b33565b815287863d92013e5b1561049e5750519081527f85614384dd52aa71c3b02d6986abe55274cb38b9b13fc323db17de1b950c27279190a280f35b83606492519162461bcd60e51b835282015260086024820152671c185e4819985a5b60c21b6044820152fd5b634e487b7160e01b885260418352602488fd5b61046d565b93505060449450519263b97fded160e01b84528301526024820152fd5b8151631f2a200560e01b81528590fd5b856044918451916301d4003760e61b8352820152336024820152fd5b50903461015c576020928360031936011261067e57839061054a610a9f565b8351633eb20a9360e21b81526001600160a01b03918216868201819052939091829060249082907f0000000000000000000000000000000000000000000000000000000000000000165afa90811561067457829161063e575b50156106285781815283855282812054908115610611578184916105e77f7c8a3ce451f4ffe475fff2d483bc93e665b6e96d84b5e00751c1d83a227dbabc94610b0b565b968582528852828120556105fd81600354610b6b565b60035581519081528587820152a251908152f35b8351634cd4c80360e01b8152808601849052602490fd5b509051634617d59560e11b815291820152602490fd5b90508581813d831161066d575b6106558183610b33565b8101031261028d5751801515810361028d57386105a3565b503d61064b565b84513d84823e3d90fd5b80fd5b50913461067e57602036600319011261067e57506106a160209235610b0b565b9051908152f35b508260031936011261015c577f75c54964a01877e6799d0bf9bb81bacccabdf428c61a51fb4b1945e5db894095808452600160205282842033855260205260ff83852054161561074357503415610735575060207feb2d114a827fe0da3db4c0e374010959cf461f7ed76987aeff51666dea9add9b9161072a34600254610afe565b60025551348152a180f35b9051631f2a200560e01b8152fd5b60449251916301d4003760e61b8352820152336024820152fd5b50908060031936011261015c57610772610a9f565b602435907f2561bf26f818282a3be40719542054d2173eb0d38539e8a8d3cff22f29fd2384808652600160205283862033875260205260ff848720541615610898575081156108895781340361086c57907f73a19dd210f1a7f902193214c0ee91dd35ee5b4d920cba8d519eca65a7b488ca929160035480158015610862575b15610846575081905b60018060a01b031694858752602052828620610818828254610afe565b905561082681600354610afe565b60035561083582600254610afe565b60025582519182526020820152a280f35b61085361085c9184610ab5565b60025490610ade565b906107fb565b50600254156107f2565b5060449291519163cf47918160e01b835234908301526024820152fd5b505051631f2a200560e01b8152fd5b846044918551916301d4003760e61b8352820152336024820152fd5b50503461028d578160031936011261028d57602090517f5612063648f807201ec1c6d4f999a34ed02c6a8b521b7b99e155a6823c5687368152f35b50503461028d578160031936011261028d576020906003549051908152f35b50503461028d578160031936011261028d57602090517f2561bf26f818282a3be40719542054d2173eb0d38539e8a8d3cff22f29fd23848152f35b50903461015c578060031936011261015c57813590610966610a84565b845490936001600160a01b03918216330361032d5750828552600160205281852093169283855260205260ff8185205416156109a0578380f35b81845260016020528084208385526020528320600160ff198254161790557f2ae6a113c0ed5b78a53413ffbb7679881f11145ccfba4fb92e863dfcd5a1d2f38380a33880808380f35b50503461028d578160031936011261028d57602090517f75c54964a01877e6799d0bf9bb81bacccabdf428c61a51fb4b1945e5db8940958152f35b50503461028d578160031936011261028d57517f00000000000000000000000000000000000000000000000000000000000000006001600160a01b03168152602090f35b84903461028d578160031936011261028d576020906002548152f35b602435906001600160a01b0382168203610a9a57565b600080fd5b600435906001600160a01b0382168203610a9a57565b81810292918115918404141715610ac857565b634e487b7160e01b600052601160045260246000fd5b8115610ae8570490565b634e487b7160e01b600052601260045260246000fd5b91908201809211610ac857565b6003548015610b2c57610b24610b299260025490610ab5565b610ade565b90565b5050600090565b90601f8019910116810190811067ffffffffffffffff821117610b5557604052565b634e487b7160e01b600052604160045260246000fd5b91908203918211610ac85756fea2646970667358221220b68d972dffc164937f20f9bfdf7d0fee198b977204413b82a88aac9f91a31a4b64736f6c63430008180033","linkReferences":{}},"methodIdentifiers":{"DEPOSIT_ROLE()":"353efdcf","PAYOUT_ROLE()":"4179a8f6","YIELD_ROLE()":"2c9e09e4","deposit(address,uint256)":"47e7ef24","grantRole(bytes32,address)":"2f2ff15d","harvestYield()":"e8d991d1","hasRole(bytes32,address)":"91d14854","mortality()":"09246aed","owner()":"8da5cb5b","payTo(address,uint256)":"7bf08621","releaseMortalityCredit(address)":"7304053d","revokeRole(bytes32,address)":"d547741f","shareToAssets(uint256)":"72b4ee64","sharesOf(address)":"f5eb42dc","simulateYield()":"645d9828","totalAssets()":"01e1d114","totalShares()":"3a98ef39","transferOwnership(address)":"f2fde38b"},"id":23}