{"abi":[{"type":"constructor","inputs":[{"name":"initialOwner","type":"address","internalType":"address"}],"stateMutability":"nonpayable"},{"type":"function","name":"MAX_LEVEL","inputs":[],"outputs":[{"name":"","type":"uint256","internalType":"uint256"}],"stateMutability":"view"},{"type":"function","name":"REPORTER_ROLE","inputs":[],"outputs":[{"name":"","type":"bytes32","internalType":"bytes32"}],"stateMutability":"view"},{"type":"function","name":"grantRole","inputs":[{"name":"role","type":"bytes32","internalType":"bytes32"},{"name":"account","type":"address","internalType":"address"}],"outputs":[],"stateMutability":"nonpayable"},{"type":"function","name":"hasRole","inputs":[{"name":"role","type":"bytes32","internalType":"bytes32"},{"name":"account","type":"address","internalType":"address"}],"outputs":[{"name":"","type":"bool","internalType":"bool"}],"stateMutability":"view"},{"type":"function","name":"lastDataHash","inputs":[],"outputs":[{"name":"","type":"bytes32","internalType":"bytes32"}],"stateMutability":"view"},{"type":"function","name":"lastReason","inputs":[],"outputs":[{"name":"","type":"bytes32","internalType":"bytes32"}],"stateMutability":"view"},{"type":"function","name":"lastUpdate","inputs":[],"outputs":[{"name":"","type":"uint64","internalType":"uint64"}],"stateMutability":"view"},{"type":"function","name":"owner","inputs":[],"outputs":[{"name":"","type":"address","internalType":"address"}],"stateMutability":"view"},{"type":"function","name":"revokeRole","inputs":[{"name":"role","type":"bytes32","internalType":"bytes32"},{"name":"account","type":"address","internalType":"address"}],"outputs":[],"stateMutability":"nonpayable"},{"type":"function","name":"stressLevel","inputs":[],"outputs":[{"name":"","type":"uint256","internalType":"uint256"}],"stateMutability":"view"},{"type":"function","name":"transferOwnership","inputs":[{"name":"newOwner","type":"address","internalType":"address"}],"outputs":[],"stateMutability":"nonpayable"},{"type":"function","name":"updateStressLevel","inputs":[{"name":"level","type":"uint256","internalType":"uint256"},{"name":"reasonCode","type":"bytes32","internalType":"bytes32"},{"name":"dataHash","type":"bytes32","internalType":"bytes32"}],"outputs":[],"stateMutability":"nonpayable"},{"type":"event","name":"OwnershipTransferred","inputs":[{"name":"previousOwner","type":"address","indexed":true,"internalType":"address"},{"name":"newOwner","type":"address","indexed":true,"internalType":"address"}],"anonymous":false},{"type":"event","name":"RoleGranted","inputs":[{"name":"role","type":"bytes32","indexed":true,"internalType":"bytes32"},{"name":"account","type":"address","indexed":true,"internalType":"address"}],"anonymous":false},{"type":"event","name":"RoleRevoked","inputs":[{"name":"role","type":"bytes32","indexed":true,"internalType":"bytes32"},{"name":"account","type":"address","indexed":true,"internalType":"address"}],"anonymous":false},{"type":"event","name":"StressLevelUpdated","inputs":[{"name":"level","type":"uint256","indexed":false,"internalType":"uint256"},{"name":"reasonCode","type":"bytes32","indexed":false,"internalType":"bytes32"},{"name":"dataHash","type":"bytes32","indexed":false,"internalType":"bytes32"}],"anonymous":false},{"type":"error","name":"LevelOutOfRange","inputs":[{"name":"level","type":"uint256","internalType":"uint256"}]},{"type":"error","name":"MissingRole","inputs":[{"name":"role","type":"bytes32","internalType":"bytes32"},{"name":"account","type":"address","internalType":"address"}]},{"type":"error","name":"NotOwner","inputs":[]},{"type":"error","name":"ZeroAddress","inputs":[]}],"bytecode":{"object":"0x6080346100b057601f6105f238819003918201601f19168301916001600160401b038311848410176100b5578084926020946040528339810103126100b057516001600160a01b038116908190036100b057801561009e57600080546001600160a01b0319168217815560405191907f8be0079c531659141344cd1fd0a4f28419497f9722a3daafe3b4186f6b6457e08180a361052690816100cc8239f35b60405163d92e233d60e01b8152600490fd5b600080fd5b634e487b7160e01b600052604160045260246000fdfe6080604081815260048036101561001557600080fd5b600092833560e01c908163211ec541146104b9575080632f2ff15d146104195780633f60d799146103de57806345e23986146103bf5780634b0cc7b7146103a25780636f21353d146102a55780638da5cb5b1461027d57806391d1485414610237578063a49062d414610214578063c0463711146101e7578063d547741f1461013d5763f2fde38b146100a757600080fd5b34610139576020366003190112610139576001600160a01b038135818116939192908490036101355784549283169182330361012857841561011b57505082907f8be0079c531659141344cd1fd0a4f28419497f9722a3daafe3b4186f6b6457e08580a36001600160a01b03191617815580f35b5163d92e233d60e01b8152fd5b516330cd747160e01b8152fd5b8480fd5b8280fd5b50903461013957806003193601126101395781359061015a6104d5565b845490936001600160a01b0391821633036101d95750828552600160205281852093169283855260205260ff8185205416610193578380f35b8184526001602052808420838552602052832060ff1981541690557f155aaafb6329a2098580462df33ec4b7441b19729b9601c5fc17ae1cf99a8a528380a33880808380f35b82516330cd747160e01b8152fd5b50503461021057816003193601126102105760209067ffffffffffffffff600354169051908152f35b5080fd5b50503461021057816003193601126102105760209051670de0b6b3a76400008152f35b50346101395781600319360112610139578160209360ff926102576104d5565b90358252600186528282206001600160a01b039091168252855220549151911615158152f35b505034610210578160031936011261021057905490516001600160a01b039091168152602090f35b503461013957606036600319011261013957803591602435604435927f3204c940063673962b481a0395619b3dbbd137589c419e993978c1c71bcf68ec808752600160205283872033885260205260ff8488205416156103865750670de0b6b3a7640000851161036f5791816060949286947f1f291871fd5c9d8fab261c7bd708ae9a3f62f3363ea9970e21acc71de2515aaf9760025567ffffffffffffffff421667ffffffffffffffff196003541617600355558260055581519384526020840152820152a180f35b82516349c1a3db60e11b8152908101859052602490fd5b83516301d4003760e61b81529182015233602482015260449150fd5b503461013957826003193601126101395760209250549051908152f35b5050346102105781600319360112610210576020906005549051908152f35b505034610210578160031936011261021057602090517f3204c940063673962b481a0395619b3dbbd137589c419e993978c1c71bcf68ec8152f35b5090346101395780600319360112610139578135906104366104d5565b845490936001600160a01b0391821633036101d95750828552600160205281852093169283855260205260ff818520541615610470578380f35b81845260016020528084208385526020528320600160ff198254161790557f2ae6a113c0ed5b78a53413ffbb7679881f11145ccfba4fb92e863dfcd5a1d2f38380a33880808380f35b8490346102105781600319360112610210576020906002548152f35b602435906001600160a01b03821682036104eb57565b600080fdfea264697066735822122020180990a8c19b2bb077e82af993cf20697ed5dc040e4424bee1dc5c5c8e4cf564736f6c63430008180033","linkReferences":{}},"methodIdentifiers":{"MAX_LEVEL()":"a49062d4","REPORTER_ROLE()":"3f60d799","grantRole(bytes32,address)":"2f2ff15d","hasRole(bytes32,address)":"91d14854","lastDataHash()":"45e23986","lastReason()":"4b0cc7b7","lastUpdate()":"c0463711","owner()":"8da5cb5b","revokeRole(bytes32,address)":"d547741f","stressLevel()":"211ec541","transferOwnership(address)":"f2fde38b","updateStressLevel(uint256,bytes32,bytes32)":"6f21353d"},"id":25}