{"abi":[{"type":"constructor","inputs":[{"name":"initialOwner","type":"address","internalType":"address"},{"name":"initialPiuPrice","type":"uint256","internalType":"uint256"}],"stateMutability":"nonpayable"},{"type":"function","name":"CONTRIBUTION_ROLE","inputs":[],"outputs":[{"name":"","type":"bytes32","internalType":"bytes32"}],"stateMutability":"view"},{"type":"function","name":"REGISTRAR_ROLE","inputs":[],"outputs":[{"name":"","type":"bytes32","internalType":"bytes32"}],"stateMutability":"view"},{"type":"function","name":"RETIREMENT_ROLE","inputs":[],"outputs":[{"name":"","type":"bytes32","internalType":"bytes32"}],"stateMutability":"view"},{"type":"function","name":"cohortMemberCount","inputs":[{"name":"cohort","type":"uint16","internalType":"uint16"}],"outputs":[{"name":"","type":"uint256","internalType":"uint256"}],"stateMutability":"view"},{"type":"function","name":"cohortOf","inputs":[{"name":"birthYear","type":"uint16","internalType":"uint16"}],"outputs":[{"name":"","type":"uint16","internalType":"uint16"}],"stateMutability":"pure"},{"type":"function","name":"cohortTotalContributions","inputs":[{"name":"cohort","type":"uint16","internalType":"uint16"}],"outputs":[{"name":"","type":"uint256","internalType":"uint256"}],"stateMutability":"view"},{"type":"function","name":"contribute","inputs":[{"name":"wallet","type":"address","internalType":"address"},{"name":"amount","type":"uint256","internalType":"uint256"}],"outputs":[{"name":"piusMinted","type":"uint256","internalType":"uint256"}],"stateMutability":"nonpayable"},{"type":"function","name":"getMember","inputs":[{"name":"wallet","type":"address","internalType":"address"}],"outputs":[{"name":"","type":"tuple","internalType":"struct ICohortLedger.Member","components":[{"name":"birthYear","type":"uint16","internalType":"uint16"},{"name":"cohort","type":"uint16","internalType":"uint16"},{"name":"active","type":"bool","internalType":"bool"},{"name":"retired","type":"bool","internalType":"bool"},{"name":"totalContributions","type":"uint256","internalType":"uint256"},{"name":"piuBalance","type":"uint256","internalType":"uint256"}]}],"stateMutability":"view"},{"type":"function","name":"grantRole","inputs":[{"name":"role","type":"bytes32","internalType":"bytes32"},{"name":"account","type":"address","internalType":"address"}],"outputs":[],"stateMutability":"nonpayable"},{"type":"function","name":"hasRole","inputs":[{"name":"role","type":"bytes32","internalType":"bytes32"},{"name":"account","type":"address","internalType":"address"}],"outputs":[{"name":"","type":"bool","internalType":"bool"}],"stateMutability":"view"},{"type":"function","name":"markRetired","inputs":[{"name":"wallet","type":"address","internalType":"address"}],"outputs":[],"stateMutability":"nonpayable"},{"type":"function","name":"memberAt","inputs":[{"name":"index","type":"uint256","internalType":"uint256"}],"outputs":[{"name":"","type":"address","internalType":"address"}],"stateMutability":"view"},{"type":"function","name":"owner","inputs":[],"outputs":[{"name":"","type":"address","internalType":"address"}],"stateMutability":"view"},{"type":"function","name":"piuPrice","inputs":[],"outputs":[{"name":"","type":"uint256","internalType":"uint256"}],"stateMutability":"view"},{"type":"function","name":"registerMember","inputs":[{"name":"wallet","type":"address","internalType":"address"},{"name":"birthYear","type":"uint16","internalType":"uint16"}],"outputs":[],"stateMutability":"nonpayable"},{"type":"function","name":"revokeRole","inputs":[{"name":"role","type":"bytes32","internalType":"bytes32"},{"name":"account","type":"address","internalType":"address"}],"outputs":[],"stateMutability":"nonpayable"},{"type":"function","name":"setPiuPrice","inputs":[{"name":"newPrice","type":"uint256","internalType":"uint256"}],"outputs":[],"stateMutability":"nonpayable"},{"type":"function","name":"totalMembers","inputs":[],"outputs":[{"name":"","type":"uint256","internalType":"uint256"}],"stateMutability":"view"},{"type":"function","name":"transferOwnership","inputs":[{"name":"newOwner","type":"address","internalType":"address"}],"outputs":[],"stateMutability":"nonpayable"},{"type":"event","name":"ContributionRecorded","inputs":[{"name":"wallet","type":"address","indexed":true,"internalType":"address"},{"name":"amount","type":"uint256","indexed":false,"internalType":"uint256"},{"name":"piusMinted","type":"uint256","indexed":false,"internalType":"uint256"}],"anonymous":false},{"type":"event","name":"MemberRegistered","inputs":[{"name":"wallet","type":"address","indexed":true,"internalType":"address"},{"name":"birthYear","type":"uint16","indexed":false,"internalType":"uint16"},{"name":"cohort","type":"uint16","indexed":false,"internalType":"uint16"}],"anonymous":false},{"type":"event","name":"MemberRetired","inputs":[{"name":"wallet","type":"address","indexed":true,"internalType":"address"}],"anonymous":false},{"type":"event","name":"OwnershipTransferred","inputs":[{"name":"previousOwner","type":"address","indexed":true,"internalType":"address"},{"name":"newOwner","type":"address","indexed":true,"internalType":"address"}],"anonymous":false},{"type":"event","name":"PiuPriceUpdated","inputs":[{"name":"oldPrice","type":"uint256","indexed":false,"internalType":"uint256"},{"name":"newPrice","type":"uint256","indexed":false,"internalType":"uint256"}],"anonymous":false},{"type":"event","name":"RoleGranted","inputs":[{"name":"role","type":"bytes32","indexed":true,"internalType":"bytes32"},{"name":"account","type":"address","indexed":true,"internalType":"address"}],"anonymous":false},{"type":"event","name":"RoleRevoked","inputs":[{"name":"role","type":"bytes32","indexed":true,"internalType":"bytes32"},{"name":"account","type":"address","indexed":true,"internalType":"address"}],"anonymous":false},{"type":"error","name":"AlreadyRegistered","inputs":[{"name":"wallet","type":"address","internalType":"address"}]},{"type":"error","name":"InactiveMember","inputs":[{"name":"wallet","type":"address","internalType":"address"}]},{"type":"error","name":"InvalidBirthYear","inputs":[{"name":"birthYear","type":"uint16","internalType":"uint16"}]},{"type":"error","name":"InvalidPrice","inputs":[]},{"type":"error","name":"MissingRole","inputs":[{"name":"role","type":"bytes32","internalType":"bytes32"},{"name":"account","type":"address","internalType":"address"}]},{"type":"error","name":"NotOwner","inputs":[]},{"type":"error","name":"NotRegistered","inputs":[{"name":"wallet","type":"address","internalType":"address"}]},{"type":"error","name":"ZeroAddress","inputs":[]},{"type":"error","name":"ZeroAmount","inputs":[]}],"bytecode":{"object":"0x6080346100d157601f610d5f38819003918201601f19168301916001600160401b038311848410176100d65780849260409485528339810103126100d15780516001600160a01b03811691908290036100d157602001519080156100bf57600080546001600160a01b0319168217815560405191907f8be0079c531659141344cd1fd0a4f28419497f9722a3daafe3b4186f6b6457e08180a381156100b15750600255604051610c7290816100ed8239f35b62bfc92160e01b8152600490fd5b60405163d92e233d60e01b8152600490fd5b600080fd5b634e487b7160e01b600052604160045260246000fdfe608060408181526004918236101561001657600080fd5b600092833560e01c91826305b569c014610ab4575081631849e59714610a82578163236e4ced14610a635781632ada25961461098e5781632f2ff15d146108ed5781635695d272146108bb57816376e925591461089d57816383f2fc3e146108625781638418cd99146106b15781638bce0743146106775781638da5cb5b1461064f57816391d148541461060857816398d9115f1461051b578163ac0250f7146104e2578163aca6b44d146102a2578163b2ada42a14610271578163d547741f146101c6578163f2fde38b14610133575063f68e9553146100f657600080fd5b3461012f578160031936011261012f57602090517fedcc084d3dcd65a1f7f23c65c46722faca6953d28e43150a467cf43e5c3092388152f35b5080fd5b9050346101c25760203660031901126101c25761014e610b4f565b8354916001600160a01b0380841692338490036101b257169384156101a557505082907f8be0079c531659141344cd1fd0a4f28419497f9722a3daafe3b4186f6b6457e08580a36001600160a01b03191617815580f35b5163d92e233d60e01b8152fd5b85516330cd747160e01b81528390fd5b8280fd5b919050346101c257806003193601126101c2578135906101e4610b65565b845490936001600160a01b0391821633036102635750828552600160205281852093169283855260205260ff818520541661021d578380f35b8184526001602052808420838552602052832060ff1981541690557f155aaafb6329a2098580462df33ec4b7441b19729b9601c5fc17ae1cf99a8a528380a33880808380f35b82516330cd747160e01b8152fd5b50503461012f57602036600319011261012f5760209061ffff61029a610295610b39565b610c21565b915191168152f35b83833461012f578060031936011261012f576102bc610b4f565b9060249384359261ffff90818516928386036104de577fedcc084d3dcd65a1f7f23c65c46722faca6953d28e43150a467cf43e5c3092389182885260209260018452868920338a52845260ff878a205416156104c157506001600160a01b039081169687156104b1578789526003845284878a20541661049b5761076c86108015610490575b61047a5761034f90610c21565b6002888a61035b610b7b565b93898552888886019116988982528b86016001815260608701918483528d608089019580875260a08a0197818952815260038d522097511665ff000000000064ff0000000063ffff00008a54965160101b16935115158d1b169351151560281b169365ffffffffffff191617171717845551600184015551910155815468010000000000000000811015610468578060016103f892018455610bd4565b819291549060031b9189831b921b1916179055828752600682528487208054916001830180931161045657507fcea9d13b3614a13580f851ed5be73bd63aceb3de260a66bf2e61396bafb4521396979850558351928352820152a280f35b634e487b7160e01b8952601190528888fd5b634e487b7160e01b8952604183528989fd5b86516362ab53d760e01b81528084018790528a90fd5b506108348611610342565b86516345ed80e960e01b81528084018990528a90fd5b865163d92e233d60e01b81528390fd5b86516301d4003760e61b81528084019190915233818b0152604490fd5b8680fd5b828434610518576020366003190112610518575061050260209235610bd4565b905491519160018060a01b039160031b1c168152f35b80fd5b9050346101c25760203660031901126101c257610536610b4f565b7ff70ccd5004a2a6f964f044c0095454c529799f8602238d52b5a197af351dd419808552600160205283852033865260205260ff8486205416156105ec57506001600160a01b031680845260036020528284208054919390929061ffff8316156105d657505065ff00000000001916650100000000001790557fa59e3b52cc428f9ef295563b34bd6af71489d571edf9d7f38ba0e977d0abc6cf8280a280f35b5163bfc6c33760e01b8152908101849052602490fd5b905060449251916301d4003760e61b8352820152336024820152fd5b9050346101c257816003193601126101c2578160209360ff92610629610b65565b90358252600186528282206001600160a01b039091168252855220549151911615158152f35b50503461012f578160031936011261012f57905490516001600160a01b039091168152602090f35b50503461012f578160031936011261012f57602090517e94841a895749e476be6e1ec6e56111257b893af810565ba728415296663b558152f35b919050346101c257806003193601126101c2576106cc610b4f565b926024908135907e94841a895749e476be6e1ec6e56111257b893af810565ba728415296663b559586825260209660018852858320338452885260ff86842054161561084557506001600160a01b03168082526003875284822080549096919461ffff9290838316156108305760ff838b1c161561081b57851561080c57670de0b6b3a7640000860290670de0b6b3a763ffff19878304016107fb576002549283156107ea5750509287949192600286947f0196d0533f37ea47d88e4eb66396286ef3e57c7ebd89f644475d77f1e899cace9896049a600181016107b1888254610bb1565b9055016107bf8b8254610bb1565b905560101c16815260058952206107d7828254610bb1565b905581519081528587820152a251908152f35b634e487b7160e01b87526012905285fd5b634e487b7160e01b86526011835285fd5b508651631f2a200560e01b8152fd5b875163f747606360e01b815291820187905290fd5b875163bfc6c33760e01b815291820187905290fd5b85516301d4003760e61b8152808801919091523381860152604490fd5b50503461012f578160031936011261012f57602090517ff70ccd5004a2a6f964f044c0095454c529799f8602238d52b5a197af351dd4198152f35b9050346101c257826003193601126101c25760209250549051908152f35b50503461012f57602036600319011261012f578060209261ffff6108dd610b39565b1681526006845220549051908152f35b919050346101c257806003193601126101c25781359061090b610b65565b845490936001600160a01b0391821633036102635750828552600160205281852093169283855260205260ff818520541615610945578380f35b81845260016020528084208385526020528320600160ff198254161790557f2ae6a113c0ed5b78a53413ffbb7679881f11145ccfba4fb92e863dfcd5a1d2f38380a33880808380f35b50503461012f57602090816003193601126101c2578060c0936109af610b4f565b8160a06109ba610b7b565b82815282888201528286820152826060820152826080820152015260018060a01b0316815260038452206109ec610b7b565b9181549061ffff8083169586865280860191808560101c1683528387019260ff86841c161515845260ff606089019660281c161515865260a0600260018901549860808b01998a520154980197885284519889525116908701525115159085015251151560608401525160808301525160a0820152f35b50503461012f578160031936011261012f576020906002549051908152f35b50503461012f57602036600319011261012f578060209261ffff610aa4610b39565b1681526005845220549051908152f35b92915034610b35576020366003190112610b35578354813593906001600160a01b03163303610b2957508215610b1c57507f82d3d77b84247a7267fe239bd9c6fb44ad88ecb90aedfec13877ea2349251281906002548151908152836020820152a160025580f35b905162bfc92160e01b8152fd5b6330cd747160e01b8152fd5b8380fd5b6004359061ffff82168203610b4a57565b600080fd5b600435906001600160a01b0382168203610b4a57565b602435906001600160a01b0382168203610b4a57565b6040519060c0820182811067ffffffffffffffff821117610b9b57604052565b634e487b7160e01b600052604160045260246000fd5b91908201809211610bbe57565b634e487b7160e01b600052601160045260246000fd5b600454811015610c0b5760046000527f8a35acfbc15ff81a39ae7d344fd709f28e8600b4aa8c65c6b64bfe7fe36bd19b0190600090565b634e487b7160e01b600052603260045260246000fd5b600561ffff918216819004821602908116908103610bbe579056fea2646970667358221220f5702ff7976ad277915758c58aac8101d58d6d95e1d8bc3df0feb97362b73d0364736f6c63430008180033","linkReferences":{}},"methodIdentifiers":{"CONTRIBUTION_ROLE()":"8bce0743","REGISTRAR_ROLE()":"f68e9553","RETIREMENT_ROLE()":"83f2fc3e","cohortMemberCount(uint16)":"5695d272","cohortOf(uint16)":"b2ada42a","cohortTotalContributions(uint16)":"1849e597","contribute(address,uint256)":"8418cd99","getMember(address)":"2ada2596","grantRole(bytes32,address)":"2f2ff15d","hasRole(bytes32,address)":"91d14854","markRetired(address)":"98d9115f","memberAt(uint256)":"ac0250f7","owner()":"8da5cb5b","piuPrice()":"236e4ced","registerMember(address,uint16)":"aca6b44d","revokeRole(bytes32,address)":"d547741f","setPiuPrice(uint256)":"05b569c0","totalMembers()":"76e92559","transferOwnership(address)":"f2fde38b"},"id":21}