{"abi":[{"type":"constructor","inputs":[{"name":"initialOwner","type":"address","internalType":"address"},{"name":"initialPiuPrice","type":"uint256","internalType":"uint256"}],"stateMutability":"nonpayable"},{"type":"function","name":"CONTRIBUTION_ROLE","inputs":[],"outputs":[{"name":"","type":"bytes32","internalType":"bytes32"}],"stateMutability":"view"},{"type":"function","name":"REGISTRAR_ROLE","inputs":[],"outputs":[{"name":"","type":"bytes32","internalType":"bytes32"}],"stateMutability":"view"},{"type":"function","name":"RETIREMENT_ROLE","inputs":[],"outputs":[{"name":"","type":"bytes32","internalType":"bytes32"}],"stateMutability":"view"},{"type":"function","name":"burnPiusForRetirement","inputs":[{"name":"wallet","type":"address","internalType":"address"}],"outputs":[{"name":"piusBurned","type":"uint256","internalType":"uint256"}],"stateMutability":"nonpayable"},{"type":"function","name":"cohortMemberCount","inputs":[{"name":"cohort","type":"uint16","internalType":"uint16"}],"outputs":[{"name":"","type":"uint256","internalType":"uint256"}],"stateMutability":"view"},{"type":"function","name":"cohortOf","inputs":[{"name":"birthYear","type":"uint16","internalType":"uint16"}],"outputs":[{"name":"","type":"uint16","internalType":"uint16"}],"stateMutability":"pure"},{"type":"function","name":"cohortTotalContributions","inputs":[{"name":"cohort","type":"uint16","internalType":"uint16"}],"outputs":[{"name":"","type":"uint256","internalType":"uint256"}],"stateMutability":"view"},{"type":"function","name":"contribute","inputs":[{"name":"wallet","type":"address","internalType":"address"},{"name":"amount","type":"uint256","internalType":"uint256"}],"outputs":[{"name":"piusMinted","type":"uint256","internalType":"uint256"}],"stateMutability":"nonpayable"},{"type":"function","name":"getMember","inputs":[{"name":"wallet","type":"address","internalType":"address"}],"outputs":[{"name":"","type":"tuple","internalType":"struct ICohortLedger.Member","components":[{"name":"birthYear","type":"uint16","internalType":"uint16"},{"name":"cohort","type":"uint16","internalType":"uint16"},{"name":"active","type":"bool","internalType":"bool"},{"name":"retired","type":"bool","internalType":"bool"},{"name":"totalContributions","type":"uint256","internalType":"uint256"},{"name":"piuBalance","type":"uint256","internalType":"uint256"}]}],"stateMutability":"view"},{"type":"function","name":"grantRole","inputs":[{"name":"role","type":"bytes32","internalType":"bytes32"},{"name":"account","type":"address","internalType":"address"}],"outputs":[],"stateMutability":"nonpayable"},{"type":"function","name":"hasRole","inputs":[{"name":"role","type":"bytes32","internalType":"bytes32"},{"name":"account","type":"address","internalType":"address"}],"outputs":[{"name":"","type":"bool","internalType":"bool"}],"stateMutability":"view"},{"type":"function","name":"markRetired","inputs":[{"name":"wallet","type":"address","internalType":"address"}],"outputs":[],"stateMutability":"nonpayable"},{"type":"function","name":"memberAt","inputs":[{"name":"index","type":"uint256","internalType":"uint256"}],"outputs":[{"name":"","type":"address","internalType":"address"}],"stateMutability":"view"},{"type":"function","name":"owner","inputs":[],"outputs":[{"name":"","type":"address","internalType":"address"}],"stateMutability":"view"},{"type":"function","name":"piuPrice","inputs":[],"outputs":[{"name":"","type":"uint256","internalType":"uint256"}],"stateMutability":"view"},{"type":"function","name":"registerMember","inputs":[{"name":"wallet","type":"address","internalType":"address"},{"name":"birthYear","type":"uint16","internalType":"uint16"}],"outputs":[],"stateMutability":"nonpayable"},{"type":"function","name":"revokeRole","inputs":[{"name":"role","type":"bytes32","internalType":"bytes32"},{"name":"account","type":"address","internalType":"address"}],"outputs":[],"stateMutability":"nonpayable"},{"type":"function","name":"setPiuPrice","inputs":[{"name":"newPrice","type":"uint256","internalType":"uint256"}],"outputs":[],"stateMutability":"nonpayable"},{"type":"function","name":"totalMembers","inputs":[],"outputs":[{"name":"","type":"uint256","internalType":"uint256"}],"stateMutability":"view"},{"type":"function","name":"transferOwnership","inputs":[{"name":"newOwner","type":"address","internalType":"address"}],"outputs":[],"stateMutability":"nonpayable"},{"type":"event","name":"ContributionRecorded","inputs":[{"name":"wallet","type":"address","indexed":true,"internalType":"address"},{"name":"amount","type":"uint256","indexed":false,"internalType":"uint256"},{"name":"piusMinted","type":"uint256","indexed":false,"internalType":"uint256"}],"anonymous":false},{"type":"event","name":"MemberRegistered","inputs":[{"name":"wallet","type":"address","indexed":true,"internalType":"address"},{"name":"birthYear","type":"uint16","indexed":false,"internalType":"uint16"},{"name":"cohort","type":"uint16","indexed":false,"internalType":"uint16"}],"anonymous":false},{"type":"event","name":"MemberRetired","inputs":[{"name":"wallet","type":"address","indexed":true,"internalType":"address"}],"anonymous":false},{"type":"event","name":"OwnershipTransferred","inputs":[{"name":"previousOwner","type":"address","indexed":true,"internalType":"address"},{"name":"newOwner","type":"address","indexed":true,"internalType":"address"}],"anonymous":false},{"type":"event","name":"PiuPricePublished","inputs":[{"name":"oldPrice","type":"uint256","indexed":false,"internalType":"uint256"},{"name":"newPrice","type":"uint256","indexed":false,"internalType":"uint256"}],"anonymous":false},{"type":"event","name":"PiuPriceUpdated","inputs":[{"name":"oldPrice","type":"uint256","indexed":false,"internalType":"uint256"},{"name":"newPrice","type":"uint256","indexed":false,"internalType":"uint256"}],"anonymous":false},{"type":"event","name":"PiusBurnedForRetirement","inputs":[{"name":"wallet","type":"address","indexed":true,"internalType":"address"},{"name":"piusBurned","type":"uint256","indexed":false,"internalType":"uint256"}],"anonymous":false},{"type":"event","name":"PiusMinted","inputs":[{"name":"wallet","type":"address","indexed":true,"internalType":"address"},{"name":"contributionAmount","type":"uint256","indexed":false,"internalType":"uint256"},{"name":"piusMinted","type":"uint256","indexed":false,"internalType":"uint256"},{"name":"price","type":"uint256","indexed":false,"internalType":"uint256"}],"anonymous":false},{"type":"event","name":"RoleGranted","inputs":[{"name":"role","type":"bytes32","indexed":true,"internalType":"bytes32"},{"name":"account","type":"address","indexed":true,"internalType":"address"}],"anonymous":false},{"type":"event","name":"RoleRevoked","inputs":[{"name":"role","type":"bytes32","indexed":true,"internalType":"bytes32"},{"name":"account","type":"address","indexed":true,"internalType":"address"}],"anonymous":false},{"type":"error","name":"AlreadyRegistered","inputs":[{"name":"wallet","type":"address","internalType":"address"}]},{"type":"error","name":"InactiveMember","inputs":[{"name":"wallet","type":"address","internalType":"address"}]},{"type":"error","name":"InvalidBirthYear","inputs":[{"name":"birthYear","type":"uint16","internalType":"uint16"}]},{"type":"error","name":"InvalidPrice","inputs":[]},{"type":"error","name":"MissingRole","inputs":[{"name":"role","type":"bytes32","internalType":"bytes32"},{"name":"account","type":"address","internalType":"address"}]},{"type":"error","name":"NotOwner","inputs":[]},{"type":"error","name":"NotRegistered","inputs":[{"name":"wallet","type":"address","internalType":"address"}]},{"type":"error","name":"ZeroAddress","inputs":[]},{"type":"error","name":"ZeroAmount","inputs":[]}],"bytecode":{"object":"0x6080346100d157601f610eff38819003918201601f19168301916001600160401b038311848410176100d65780849260409485528339810103126100d15780516001600160a01b03811691908290036100d157602001519080156100bf57600080546001600160a01b0319168217815560405191907f8be0079c531659141344cd1fd0a4f28419497f9722a3daafe3b4186f6b6457e08180a381156100b15750600255604051610e1290816100ed8239f35b62bfc92160e01b8152600490fd5b60405163d92e233d60e01b8152600490fd5b600080fd5b634e487b7160e01b600052604160045260246000fdfe608060408181526004918236101561001657600080fd5b600092833560e01c91826305b569c014610c26575081631849e59714610bf4578163236e4ced14610bd55781632613f84e14610ab25781632ada2596146109dd5781632f2ff15d1461093c5781635695d2721461090a57816376e92559146108ec57816383f2fc3e146108b15781638418cd99146106cb5781638bce0743146106915781638da5cb5b1461066957816391d148541461062257816398d9115f14610535578163ac0250f7146104fc578163aca6b44d146102ad578163b2ada42a1461027c578163d547741f146101d1578163f2fde38b1461013e575063f68e95531461010157600080fd5b3461013a578160031936011261013a57602090517fedcc084d3dcd65a1f7f23c65c46722faca6953d28e43150a467cf43e5c3092388152f35b5080fd5b9050346101cd5760203660031901126101cd57610159610cef565b8354916001600160a01b0380841692338490036101bd57169384156101b057505082907f8be0079c531659141344cd1fd0a4f28419497f9722a3daafe3b4186f6b6457e08580a36001600160a01b03191617815580f35b5163d92e233d60e01b8152fd5b85516330cd747160e01b81528390fd5b8280fd5b919050346101cd57806003193601126101cd578135906101ef610d05565b845490936001600160a01b03918216330361026e5750828552600160205281852093169283855260205260ff8185205416610228578380f35b8184526001602052808420838552602052832060ff1981541690557f155aaafb6329a2098580462df33ec4b7441b19729b9601c5fc17ae1cf99a8a528380a33880808380f35b82516330cd747160e01b8152fd5b50503461013a57602036600319011261013a5760209061ffff6102a56102a0610cd9565b610dc1565b915191168152f35b83833461013a578060031936011261013a576102c7610cef565b9060249384359261ffff90818516928386036104f8577fedcc084d3dcd65a1f7f23c65c46722faca6953d28e43150a467cf43e5c3092389182885260209260018452868920338a52845260ff878a205416156104db57506001600160a01b039081169687156104cb578789526003845284878a2054166104b55761076c861080156104aa575b6104945761035a90610dc1565b60028885610366610d1b565b938985528c64ff000000008c8b85890194169b8c8552818901916001835260608a0194808652600360808c0198828a5260a08d019a838c528352522098511665ff000000000063ffff00008a54965160101b16925115158d1b9451151560281b169465ff000000000019918419169064ffffffffff1916171617911617178455516001840155519101558154680100000000000000008110156104825780600161041292018455610d74565b819291549060031b9189831b921b1916179055828752600682528487208054916001830180931161047057507fcea9d13b3614a13580f851ed5be73bd63aceb3de260a66bf2e61396bafb4521396979850558351928352820152a280f35b634e487b7160e01b8952601190528888fd5b634e487b7160e01b8952604183528989fd5b86516362ab53d760e01b81528084018790528a90fd5b50610834861161034d565b86516345ed80e960e01b81528084018990528a90fd5b865163d92e233d60e01b81528390fd5b86516301d4003760e61b81528084019190915233818b0152604490fd5b8680fd5b828434610532576020366003190112610532575061051c60209235610d74565b905491519160018060a01b039160031b1c168152f35b80fd5b9050346101cd5760203660031901126101cd57610550610cef565b7ff70ccd5004a2a6f964f044c0095454c529799f8602238d52b5a197af351dd419808552600160205283852033865260205260ff84862054161561060657506001600160a01b031680845260036020528284208054919390929061ffff8316156105f057505065ff00000000001916650100000000001790557fa59e3b52cc428f9ef295563b34bd6af71489d571edf9d7f38ba0e977d0abc6cf8280a280f35b5163bfc6c33760e01b8152908101849052602490fd5b905060449251916301d4003760e61b8352820152336024820152fd5b9050346101cd57816003193601126101cd578160209360ff92610643610d05565b90358252600186528282206001600160a01b039091168252855220549151911615158152f35b50503461013a578160031936011261013a57905490516001600160a01b039091168152602090f35b50503461013a578160031936011261013a57602090517e94841a895749e476be6e1ec6e56111257b893af810565ba728415296663b558152f35b919050346101cd57806003193601126101cd576106e6610cef565b926024908135907e94841a895749e476be6e1ec6e56111257b893af810565ba728415296663b559586825260209660018852858320338452885260ff86842054161561089457506001600160a01b03168082526003875284822080549096919461ffff92908383161561087f5760ff838b1c161561086a57851561085b57670de0b6b3a7640000860290670de0b6b3a763ffff198783040161084a576002549283156108395750509287926002606096937fba81711174407a73cc53bc1e25ddcf974a9803a3a375092137863778b7da956a9896049a600181016107cb888254610d51565b9055016107d98b8254610d51565b905560101c16815260058952206107f1828254610d51565b9055837f0196d0533f37ea47d88e4eb66396286ef3e57c7ebd89f644475d77f1e899cace868051848152898b820152a26002548551918252868883015285820152a251908152f35b634e487b7160e01b87526012905285fd5b634e487b7160e01b86526011835285fd5b508651631f2a200560e01b8152fd5b875163f747606360e01b815291820187905290fd5b875163bfc6c33760e01b815291820187905290fd5b85516301d4003760e61b8152808801919091523381860152604490fd5b50503461013a578160031936011261013a57602090517ff70ccd5004a2a6f964f044c0095454c529799f8602238d52b5a197af351dd4198152f35b9050346101cd57826003193601126101cd5760209250549051908152f35b50503461013a57602036600319011261013a578060209261ffff61092c610cd9565b1681526006845220549051908152f35b919050346101cd57806003193601126101cd5781359061095a610d05565b845490936001600160a01b03918216330361026e5750828552600160205281852093169283855260205260ff818520541615610994578380f35b81845260016020528084208385526020528320600160ff198254161790557f2ae6a113c0ed5b78a53413ffbb7679881f11145ccfba4fb92e863dfcd5a1d2f38380a33880808380f35b50503461013a57602090816003193601126101cd578060c0936109fe610cef565b8160a0610a09610d1b565b82815282888201528286820152826060820152826080820152015260018060a01b031681526003845220610a3b610d1b565b9181549061ffff8083169586865280860191808560101c1683528387019260ff86841c161515845260ff606089019660281c161515865260a0600260018901549860808b01998a520154980197885284519889525116908701525115159085015251151560608401525160808301525160a0820152f35b8391503461013a57602092836003193601126101cd57610ad0610cef565b7ff70ccd5004a2a6f964f044c0095454c529799f8602238d52b5a197af351dd41980855260018652828520338652865260ff838620541615610bb957506001600160a01b03168084526003855281842080549391929161ffff851615610ba2575090816501000000000060027fa59e3b52cc428f9ef295563b34bd6af71489d571edf9d7f38ba0e977d0abc6cf940195878754975565ffff000000001916179055827f59dc1df550d11bf4abfd7bee603e7bdfaf3e83432c0953ea36b274311d3eb2e5878351878152a2519380a28152f35b825163bfc6c33760e01b8152908101849052602490fd5b836044918451916301d4003760e61b8352820152336024820152fd5b50503461013a578160031936011261013a576020906002549051908152f35b50503461013a57602036600319011261013a578060209261ffff610c16610cd9565b1681526005845220549051908152f35b92915034610cd5576020366003190112610cd5578354813593906001600160a01b03163303610cc957508215610cbc57507faa72c67de15206b6a89aff6d84c74449bf5d2cdf4afd1a4a219c181f47712135906002547f82d3d77b84247a7267fe239bd9c6fb44ad88ecb90aedfec13877ea2349251281828051838152866020820152a18151908152836020820152a160025580f35b905162bfc92160e01b8152fd5b6330cd747160e01b8152fd5b8380fd5b6004359061ffff82168203610cea57565b600080fd5b600435906001600160a01b0382168203610cea57565b602435906001600160a01b0382168203610cea57565b6040519060c0820182811067ffffffffffffffff821117610d3b57604052565b634e487b7160e01b600052604160045260246000fd5b91908201809211610d5e57565b634e487b7160e01b600052601160045260246000fd5b600454811015610dab5760046000527f8a35acfbc15ff81a39ae7d344fd709f28e8600b4aa8c65c6b64bfe7fe36bd19b0190600090565b634e487b7160e01b600052603260045260246000fd5b600561ffff918216819004821602908116908103610d5e579056fea264697066735822122075cdb546a8053193d68a239a7dd8a10072d3390b5b11d0e77899380de91e1e4a64736f6c63430008180033","linkReferences":{}},"methodIdentifiers":{"CONTRIBUTION_ROLE()":"8bce0743","REGISTRAR_ROLE()":"f68e9553","RETIREMENT_ROLE()":"83f2fc3e","burnPiusForRetirement(address)":"2613f84e","cohortMemberCount(uint16)":"5695d272","cohortOf(uint16)":"b2ada42a","cohortTotalContributions(uint16)":"1849e597","contribute(address,uint256)":"8418cd99","getMember(address)":"2ada2596","grantRole(bytes32,address)":"2f2ff15d","hasRole(bytes32,address)":"91d14854","markRetired(address)":"98d9115f","memberAt(uint256)":"ac0250f7","owner()":"8da5cb5b","piuPrice()":"236e4ced","registerMember(address,uint16)":"aca6b44d","revokeRole(bytes32,address)":"d547741f","setPiuPrice(uint256)":"05b569c0","totalMembers()":"76e92559","transferOwnership(address)":"f2fde38b"},"id":27}