{"abi":[{"type":"constructor","inputs":[{"name":"initialOwner","type":"address","internalType":"address"},{"name":"_ledger","type":"address","internalType":"contract ICohortLedger"},{"name":"_pool","type":"address","internalType":"contract ILongevaPool"},{"name":"_streamer","type":"address","internalType":"contract BenefitStreamer"}],"stateMutability":"nonpayable"},{"type":"receive","stateMutability":"payable"},{"type":"function","name":"OPERATOR_ROLE","inputs":[],"outputs":[{"name":"","type":"bytes32","internalType":"bytes32"}],"stateMutability":"view"},{"type":"function","name":"grantRole","inputs":[{"name":"role","type":"bytes32","internalType":"bytes32"},{"name":"account","type":"address","internalType":"address"}],"outputs":[],"stateMutability":"nonpayable"},{"type":"function","name":"hasRole","inputs":[{"name":"role","type":"bytes32","internalType":"bytes32"},{"name":"account","type":"address","internalType":"address"}],"outputs":[{"name":"","type":"bool","internalType":"bool"}],"stateMutability":"view"},{"type":"function","name":"ledger","inputs":[],"outputs":[{"name":"","type":"address","internalType":"contract ICohortLedger"}],"stateMutability":"view"},{"type":"function","name":"openRetirement","inputs":[{"name":"retiree","type":"address","internalType":"address"},{"name":"initialFunding","type":"uint256","internalType":"uint256"},{"name":"annualBenefit","type":"uint128","internalType":"uint128"},{"name":"startTs","type":"uint64","internalType":"uint64"}],"outputs":[],"stateMutability":"nonpayable"},{"type":"function","name":"owner","inputs":[],"outputs":[{"name":"","type":"address","internalType":"address"}],"stateMutability":"view"},{"type":"function","name":"pool","inputs":[],"outputs":[{"name":"","type":"address","internalType":"contract ILongevaPool"}],"stateMutability":"view"},{"type":"function","name":"revokeRole","inputs":[{"name":"role","type":"bytes32","internalType":"bytes32"},{"name":"account","type":"address","internalType":"address"}],"outputs":[],"stateMutability":"nonpayable"},{"type":"function","name":"streamer","inputs":[],"outputs":[{"name":"","type":"address","internalType":"contract BenefitStreamer"}],"stateMutability":"view"},{"type":"function","name":"topUp","inputs":[{"name":"amount","type":"uint256","internalType":"uint256"}],"outputs":[],"stateMutability":"nonpayable"},{"type":"function","name":"transferOwnership","inputs":[{"name":"newOwner","type":"address","internalType":"address"}],"outputs":[],"stateMutability":"nonpayable"},{"type":"event","name":"OwnershipTransferred","inputs":[{"name":"previousOwner","type":"address","indexed":true,"internalType":"address"},{"name":"newOwner","type":"address","indexed":true,"internalType":"address"}],"anonymous":false},{"type":"event","name":"RetirementOpened","inputs":[{"name":"retiree","type":"address","indexed":true,"internalType":"address"},{"name":"fundingPulled","type":"uint256","indexed":false,"internalType":"uint256"},{"name":"annualBenefit","type":"uint128","indexed":false,"internalType":"uint128"},{"name":"startTs","type":"uint64","indexed":false,"internalType":"uint64"}],"anonymous":false},{"type":"event","name":"RoleGranted","inputs":[{"name":"role","type":"bytes32","indexed":true,"internalType":"bytes32"},{"name":"account","type":"address","indexed":true,"internalType":"address"}],"anonymous":false},{"type":"event","name":"RoleRevoked","inputs":[{"name":"role","type":"bytes32","indexed":true,"internalType":"bytes32"},{"name":"account","type":"address","indexed":true,"internalType":"address"}],"anonymous":false},{"type":"error","name":"MemberNotRetired","inputs":[{"name":"wallet","type":"address","internalType":"address"}]},{"type":"error","name":"MissingRole","inputs":[{"name":"role","type":"bytes32","internalType":"bytes32"},{"name":"account","type":"address","internalType":"address"}]},{"type":"error","name":"NotOwner","inputs":[]},{"type":"error","name":"ZeroAddress","inputs":[]}],"bytecode":{"object":"0x60e03461016757601f610b2f38819003918201601f19168301916001600160401b0383118484101761016c578084926080946040528339810103126101675780516001600160a01b039190828116908190036101675760208201519083821692838303610167576040810151938585169182860361016757606001519586169081870361016757831561015557600080546001600160a01b0319168517815560405194907f8be0079c531659141344cd1fd0a4f28419497f9722a3daafe3b4186f6b6457e08180a31591821561014c575b508115610143575b50610134575060805260a05260c0526040516109ac908161018382396080518181816101610152610686015260a0518181816101a50152818161071501526108d0015260c05181818161020c015281816105d4015261077d0152f35b63d92e233d60e01b8152600490fd5b905015386100d8565b159150386100d0565b60405163d92e233d60e01b8152600490fd5b600080fd5b634e487b7160e01b600052604160045260246000fdfe6080604081815260049081361015610022575b505050361561002057600080fd5b005b600092833560e01c90816316f0115b146108bc575080632f2ff15d1461081d57806350017f3e146106b557806356397c35146106715780638da5cb5b1461064957806391d1485414610603578063cecf13f5146105bf578063d547741f14610512578063f2fde38b14610483578063f5b541a6146104445763ff236359036100125734610440576080366003190112610440576100bd61091a565b91602490813591604435906fffffffffffffffffffffffffffffffff821680920361043c576064359267ffffffffffffffff808516809503610438577f97667070c54ef182b0f5858b034beac1b6f3089aa2d3188bb1e8929f4fa9b929808a526001602052878a203360005260205260ff8860002054161561041c5750865163156d12cb60e11b81526001600160a01b0398891683820181905298919060c08186817f000000000000000000000000000000000000000000000000000000000000000087165afa908115610412578b91610342575b506060915001511561032d5790818993927f000000000000000000000000000000000000000000000000000000000000000016803b15610329578851637bf0862160e01b815230848201908152602081018a90529091869183919082908490829060400103925af1801561030b57908591610315575b50507f00000000000000000000000000000000000000000000000000000000000000001690813b156102f35787516316c1a85160e31b8152848183818b875af1801561030b579085916102f7575b5050813b156102f35760648991858094888c5197889687956327d4d91160e21b87528601528401528960448401525af180156102e9576102cb575b50509083606093927f49a6c1172db54675883ee470ef779b91bccca4618a10365523473e0f0e4fbdb995519384526020840152820152a280f35b6102d89094939294610930565b6102e55790918538610291565b8580fd5b86513d84823e3d90fd5b8380fd5b61030090610930565b6102f3578338610256565b89513d87823e3d90fd5b61031e90610930565b6102f3578338610208565b8480fd5b508551636a059cf560e01b8152908101879052fd5b905060c0913d60c01161040a575b601f8301601f1916820192818411838510176103f6578260c091858d52810103126103f25760c08301908111838210176103de576060929160a0918b526103968161095a565b83526103a46020820161095a565b60208401526103b48b8201610969565b8b8401526103c3848201610969565b8484015260808101516080840152015160a082015238610192565b85604186634e487b7160e01b600052526000fd5b8b80fd5b86604187634e487b7160e01b600052526000fd5b3d9250610350565b89513d8d823e3d90fd5b60449391508751926301d4003760e61b84528301523390820152fd5b8880fd5b8680fd5b8280fd5b83823461047f578160031936011261047f57602090517f97667070c54ef182b0f5858b034beac1b6f3089aa2d3188bb1e8929f4fa9b9298152f35b5080fd5b5090346104405760203660031901126104405761049e61091a565b8354916001600160a01b03808416923384900361050257169384156104f557505082907f8be0079c531659141344cd1fd0a4f28419497f9722a3daafe3b4186f6b6457e08580a36001600160a01b03191617815580f35b5163d92e233d60e01b8152fd5b85516330cd747160e01b81528390fd5b503461044057806003193601126104405781359061052e6108ff565b845490936001600160a01b0391821633036105b1575082855260016020528185209316928360005260205260ff816000205416610569578380f35b81845260016020528084208360005260205260002060ff1981541690557f155aaafb6329a2098580462df33ec4b7441b19729b9601c5fc17ae1cf99a8a528380a33880808380f35b82516330cd747160e01b8152fd5b83823461047f578160031936011261047f57517f00000000000000000000000000000000000000000000000000000000000000006001600160a01b03168152602090f35b509034610440578160031936011261044057816020936106216108ff565b9235815260018552209060018060a01b0316600052825260ff81600020541690519015158152f35b83823461047f578160031936011261047f57905490516001600160a01b039091168152602090f35b83823461047f578160031936011261047f57517f00000000000000000000000000000000000000000000000000000000000000006001600160a01b03168152602090f35b5082903461047f57602036600319011261047f578235907f97667070c54ef182b0f5858b034beac1b6f3089aa2d3188bb1e8929f4fa9b929808452600160205281842033855260205260ff82852054161561080157506001600160a01b037f000000000000000000000000000000000000000000000000000000000000000081169490853b15610329578251637bf0862160e01b815230838201908152602081018690529096869188919082908490829060400103925af180156107f7576107e3575b8495507f000000000000000000000000000000000000000000000000000000000000000016803b156103295784918351809581936316c1a85160e31b83525af19081156107da57506107c75750f35b6107d090610930565b6107d75780f35b80fd5b513d84823e3d90fd5b9390946107ef90610930565b928490610778565b83513d87823e3d90fd5b849060449251916301d4003760e61b8352820152336024820152fd5b50346104405780600319360112610440578135906108396108ff565b845490936001600160a01b0391821633036105b15750828552600160205281852093169283855260205260ff818520541615610873578380f35b81845260016020528084208385526020528320600160ff198254161790557f2ae6a113c0ed5b78a53413ffbb7679881f11145ccfba4fb92e863dfcd5a1d2f38380a33880808380f35b84903461047f578160031936011261047f577f00000000000000000000000000000000000000000000000000000000000000006001600160a01b03168152602090f35b602435906001600160a01b038216820361091557565b600080fd5b600435906001600160a01b038216820361091557565b67ffffffffffffffff811161094457604052565b634e487b7160e01b600052604160045260246000fd5b519061ffff8216820361091557565b519081151582036109155756fea2646970667358221220266ff1d09f91d1fed5babc6aa1f6ada3d5b3860cbdc845109eb08abf1ecd73e564736f6c63430008180033","linkReferences":{}},"methodIdentifiers":{"OPERATOR_ROLE()":"f5b541a6","grantRole(bytes32,address)":"2f2ff15d","hasRole(bytes32,address)":"91d14854","ledger()":"56397c35","openRetirement(address,uint256,uint128,uint64)":"ff236359","owner()":"8da5cb5b","pool()":"16f0115b","revokeRole(bytes32,address)":"d547741f","streamer()":"cecf13f5","topUp(uint256)":"50017f3e","transferOwnership(address)":"f2fde38b"},"id":26}