{"abi":[{"type":"constructor","inputs":[{"name":"initialOwner","type":"address","internalType":"address"},{"name":"_ledger","type":"address","internalType":"contract ICohortLedger"},{"name":"_pool","type":"address","internalType":"contract ILongevaPool"},{"name":"_streamer","type":"address","internalType":"contract BenefitStreamer"}],"stateMutability":"nonpayable"},{"type":"receive","stateMutability":"payable"},{"type":"function","name":"OPERATOR_ROLE","inputs":[],"outputs":[{"name":"","type":"bytes32","internalType":"bytes32"}],"stateMutability":"view"},{"type":"function","name":"grantRole","inputs":[{"name":"role","type":"bytes32","internalType":"bytes32"},{"name":"account","type":"address","internalType":"address"}],"outputs":[],"stateMutability":"nonpayable"},{"type":"function","name":"hasRole","inputs":[{"name":"role","type":"bytes32","internalType":"bytes32"},{"name":"account","type":"address","internalType":"address"}],"outputs":[{"name":"","type":"bool","internalType":"bool"}],"stateMutability":"view"},{"type":"function","name":"ledger","inputs":[],"outputs":[{"name":"","type":"address","internalType":"contract ICohortLedger"}],"stateMutability":"view"},{"type":"function","name":"openRetirement","inputs":[{"name":"retiree","type":"address","internalType":"address"},{"name":"initialFunding","type":"uint256","internalType":"uint256"},{"name":"annualBenefit","type":"uint128","internalType":"uint128"},{"name":"startTs","type":"uint64","internalType":"uint64"}],"outputs":[],"stateMutability":"nonpayable"},{"type":"function","name":"owner","inputs":[],"outputs":[{"name":"","type":"address","internalType":"address"}],"stateMutability":"view"},{"type":"function","name":"pool","inputs":[],"outputs":[{"name":"","type":"address","internalType":"contract ILongevaPool"}],"stateMutability":"view"},{"type":"function","name":"revokeRole","inputs":[{"name":"role","type":"bytes32","internalType":"bytes32"},{"name":"account","type":"address","internalType":"address"}],"outputs":[],"stateMutability":"nonpayable"},{"type":"function","name":"streamer","inputs":[],"outputs":[{"name":"","type":"address","internalType":"contract BenefitStreamer"}],"stateMutability":"view"},{"type":"function","name":"topUp","inputs":[{"name":"amount","type":"uint256","internalType":"uint256"}],"outputs":[],"stateMutability":"nonpayable"},{"type":"function","name":"transferOwnership","inputs":[{"name":"newOwner","type":"address","internalType":"address"}],"outputs":[],"stateMutability":"nonpayable"},{"type":"event","name":"OwnershipTransferred","inputs":[{"name":"previousOwner","type":"address","indexed":true,"internalType":"address"},{"name":"newOwner","type":"address","indexed":true,"internalType":"address"}],"anonymous":false},{"type":"event","name":"RetirementOpened","inputs":[{"name":"retiree","type":"address","indexed":true,"internalType":"address"},{"name":"fundingPulled","type":"uint256","indexed":false,"internalType":"uint256"},{"name":"annualBenefit","type":"uint128","indexed":false,"internalType":"uint128"},{"name":"startTs","type":"uint64","indexed":false,"internalType":"uint64"}],"anonymous":false},{"type":"event","name":"RoleGranted","inputs":[{"name":"role","type":"bytes32","indexed":true,"internalType":"bytes32"},{"name":"account","type":"address","indexed":true,"internalType":"address"}],"anonymous":false},{"type":"event","name":"RoleRevoked","inputs":[{"name":"role","type":"bytes32","indexed":true,"internalType":"bytes32"},{"name":"account","type":"address","indexed":true,"internalType":"address"}],"anonymous":false},{"type":"error","name":"MemberNotRetired","inputs":[{"name":"wallet","type":"address","internalType":"address"}]},{"type":"error","name":"MissingRole","inputs":[{"name":"role","type":"bytes32","internalType":"bytes32"},{"name":"account","type":"address","internalType":"address"}]},{"type":"error","name":"NotOwner","inputs":[]},{"type":"error","name":"ZeroAddress","inputs":[]}],"bytecode":{"object":"0x60e03461016757601f610b8738819003918201601f19168301916001600160401b0383118484101761016c578084926080946040528339810103126101675780516001600160a01b039190828116908190036101675760208201519083821692838303610167576040810151938585169182860361016757606001519586169081870361016757831561015557600080546001600160a01b0319168517815560405194907f8be0079c531659141344cd1fd0a4f28419497f9722a3daafe3b4186f6b6457e08180a31591821561014c575b508115610143575b50610134575060805260a05260c052604051610a049081610183823960805181818161015c01526106bb015260a0518181816101d40152818161074a0152610906015260c05181818161023b0152818161060a01526107b20152f35b63d92e233d60e01b8152600490fd5b905015386100d8565b159150386100d0565b60405163d92e233d60e01b8152600490fd5b600080fd5b634e487b7160e01b600052604160045260246000fdfe60806040818152600480361015610021575b505050361561001f57600080fd5b005b600092833560e01c90816316f0115b146108f2575080632f2ff15d1461085257806350017f3e146106ea57806356397c35146106a65780638da5cb5b1461067e57806391d1485414610639578063cecf13f5146105f5578063d547741f14610547578063f2fde38b146104b9578063f5b541a61461047a5763ff236359036100115734610476576080366003190112610476576100bc610950565b916024803591604435936fffffffffffffffffffffffffffffffff8516809503610315576064359267ffffffffffffffff91828516809503610472577f97667070c54ef182b0f5858b034beac1b6f3089aa2d3188bb1e8929f4fa9b92992838a5260209360018552858b2033600052855260ff866000205416156104565750845163156d12cb60e11b81526001600160a01b03998a1683820181905299917f000000000000000000000000000000000000000000000000000000000000000083169160c0818781865afa90811561044c578d9161039c575b5061ffff915051161561038657908a8585949382968d8a519485938492631309fc2760e11b8452898401525af1801561033b5790869161035d575b5050807f000000000000000000000000000000000000000000000000000000000000000016803b15610359578651637bf0862160e01b815230848201908152602081018b90529091869183919082908490829060400103925af1801561033b57908591610345575b50507f00000000000000000000000000000000000000000000000000000000000000001690813b156103235785516316c1a85160e31b8152848183818c875af1801561033b57908591610327575b5050813b156103235760648a918580948c8a5197889687956327d4d91160e21b87528601528401528a60448401525af18015610319576102f9575b5050907f49a6c1172db54675883ee470ef779b91bccca4618a10365523473e0f0e4fbdb99460609493928251948552840152820152a280f35b610307909594939295610966565b6103155790919286386102c0565b8680fd5b84513d84823e3d90fd5b8380fd5b61033090610966565b610323578338610285565b87513d87823e3d90fd5b61034e90610966565b610323578338610237565b8480fd5b813d831161037f575b6103708183610990565b810103126103235784386101cf565b503d610366565b50508351636a059cf560e01b8152908101889052fd5b905060c0813d60c011610444575b816103b760c09383610990565b810103126104405787519160c083019081118382101761042c5761ffff929160a0918a526103e4816109b2565b83526103f18982016109b2565b898401526104008a82016109c1565b8a840152610410606082016109c1565b606084015260808101516080840152015160a082015238610194565b86604187634e487b7160e01b600052526000fd5b8c80fd5b3d91506103aa565b88513d8f823e3d90fd5b60449391508551926301d4003760e61b84528301523390820152fd5b8880fd5b8280fd5b5050346104b557816003193601126104b557602090517f97667070c54ef182b0f5858b034beac1b6f3089aa2d3188bb1e8929f4fa9b9298152f35b5080fd5b5034610476576020366003190112610476576104d3610950565b8354916001600160a01b038084169233849003610537571693841561052a57505082907f8be0079c531659141344cd1fd0a4f28419497f9722a3daafe3b4186f6b6457e08580a36001600160a01b03191617815580f35b5163d92e233d60e01b8152fd5b85516330cd747160e01b81528390fd5b509034610476578060031936011261047657813590610564610935565b845490936001600160a01b0391821633036105e7575082855260016020528185209316928360005260205260ff81600020541661059f578380f35b81845260016020528084208360005260205260002060ff1981541690557f155aaafb6329a2098580462df33ec4b7441b19729b9601c5fc17ae1cf99a8a528380a33880808380f35b82516330cd747160e01b8152fd5b5050346104b557816003193601126104b557517f00000000000000000000000000000000000000000000000000000000000000006001600160a01b03168152602090f35b503461047657816003193601126104765781602093610656610935565b9235815260018552209060018060a01b0316600052825260ff81600020541690519015158152f35b5050346104b557816003193601126104b557905490516001600160a01b039091168152602090f35b5050346104b557816003193601126104b557517f00000000000000000000000000000000000000000000000000000000000000006001600160a01b03168152602090f35b509190346104b55760203660031901126104b5578235907f97667070c54ef182b0f5858b034beac1b6f3089aa2d3188bb1e8929f4fa9b929808452600160205281842033855260205260ff82852054161561083657506001600160a01b037f000000000000000000000000000000000000000000000000000000000000000081169490853b15610359578251637bf0862160e01b815230838201908152602081018690529096869188919082908490829060400103925af1801561082c57610818575b8495507f000000000000000000000000000000000000000000000000000000000000000016803b156103595784918351809581936316c1a85160e31b83525af190811561080f57506107fc5750f35b61080590610966565b61080c5780f35b80fd5b513d84823e3d90fd5b93909461082490610966565b9284906107ad565b83513d87823e3d90fd5b849060449251916301d4003760e61b8352820152336024820152fd5b50903461047657806003193601126104765781359061086f610935565b845490936001600160a01b0391821633036105e75750828552600160205281852093169283855260205260ff8185205416156108a9578380f35b81845260016020528084208385526020528320600160ff198254161790557f2ae6a113c0ed5b78a53413ffbb7679881f11145ccfba4fb92e863dfcd5a1d2f38380a33880808380f35b8490346104b557816003193601126104b5577f00000000000000000000000000000000000000000000000000000000000000006001600160a01b03168152602090f35b602435906001600160a01b038216820361094b57565b600080fd5b600435906001600160a01b038216820361094b57565b67ffffffffffffffff811161097a57604052565b634e487b7160e01b600052604160045260246000fd5b90601f8019910116810190811067ffffffffffffffff82111761097a57604052565b519061ffff8216820361094b57565b5190811515820361094b5756fea2646970667358221220af3c71306e9e11ed610edc4f4e41b1a8d4eae7f3a08e5aa0acffa506c242950e64736f6c63430008180033","linkReferences":{}},"methodIdentifiers":{"OPERATOR_ROLE()":"f5b541a6","grantRole(bytes32,address)":"2f2ff15d","hasRole(bytes32,address)":"91d14854","ledger()":"56397c35","openRetirement(address,uint256,uint128,uint64)":"ff236359","owner()":"8da5cb5b","pool()":"16f0115b","revokeRole(bytes32,address)":"d547741f","streamer()":"cecf13f5","topUp(uint256)":"50017f3e","transferOwnership(address)":"f2fde38b"},"id":23}