{"abi":[{"type":"function","name":"verifyCorridorPass","inputs":[{"name":"cohortEpvsBefore","type":"int256[]","internalType":"int256[]"},{"name":"cohortEpvsAfter","type":"int256[]","internalType":"int256[]"},{"name":"epvBenchmark","type":"uint256","internalType":"uint256"},{"name":"deltaBps","type":"uint256","internalType":"uint256"}],"outputs":[{"name":"passes","type":"bool","internalType":"bool"},{"name":"maxDeviationBps","type":"uint256","internalType":"uint256"}],"stateMutability":"pure"},{"type":"function","name":"verifyMWR","inputs":[{"name":"epvBenefits","type":"uint256","internalType":"uint256"},{"name":"epvContributions","type":"uint256","internalType":"uint256"},{"name":"expectedMwr","type":"uint256","internalType":"uint256"},{"name":"toleranceBps","type":"uint256","internalType":"uint256"}],"outputs":[{"name":"passes","type":"bool","internalType":"bool"},{"name":"computedMwr","type":"uint256","internalType":"uint256"},{"name":"deviationBps","type":"uint256","internalType":"uint256"}],"stateMutability":"pure"},{"type":"function","name":"verifySingleMemberEPV","inputs":[{"name":"cashflows","type":"int256[]","internalType":"int256[]"},{"name":"discountFactors","type":"uint256[]","internalType":"uint256[]"},{"name":"survivalProbabilities","type":"uint256[]","internalType":"uint256[]"},{"name":"expectedEpv","type":"int256","internalType":"int256"},{"name":"toleranceBps","type":"uint256","internalType":"uint256"}],"outputs":[{"name":"passes","type":"bool","internalType":"bool"},{"name":"computedEpv","type":"int256","internalType":"int256"},{"name":"deviationBps","type":"uint256","internalType":"uint256"}],"stateMutability":"pure"},{"type":"error","name":"InvalidParams","inputs":[]},{"type":"error","name":"LengthMismatch","inputs":[]},{"type":"error","name":"VectorTooLong","inputs":[{"name":"length","type":"uint256","internalType":"uint256"},{"name":"maxLength","type":"uint256","internalType":"uint256"}]}],"bytecode":{"object":"0x60808060405234610016576105df908161001c8239f35b600080fdfe608060408181526004918236101561001657600080fd5b600090813560e01c908163075dc32a14610263575080636147e6e3146100d25763786d97b31461004557600080fd5b346100cf5760803660031901126100cf5782356024359182156100bf57670de0b6b3a7640000918281029281840414901517156100ac5760608461008985856104a5565b9061009660443583610557565b9080519260643583111584526020840152820152f35b634e487b7160e01b815260118552602490fd5b50505051635435b28960e11b8152fd5b80fd5b508290346100cf5760803660031901126100cf5767ffffffffffffffff90823582811161025f5761010690369085016103f7565b91909360249360243590811161025b5761012390369083016103f7565b94909260443595819786158015610253575b610243578187036102305789871161021457825b878110610164578a8a81519060643581111582526020820152f35b61018561017282858a61042d565b3561017e838b8661042d565b359061048c565b845b89858a82841061019e575050505050600101610149565b6101ca9261017e856101b7816101c5966101bf9661042d565b35928a61042d565b8461048c565b61051a565b61271090818102918183041490151715610202578b6101e8916104a5565b8c81116101f9575b50600101610187565b9b5060016101f0565b634e487b7160e01b8752601189528787fd5b6044858b8981519263538e799b60e11b84528301526024820152fd5b89516001621398b960e31b031981528590fd5b8951635435b28960e11b81528590fd5b508715610135565b8280fd5b5080fd5b92919050346100cf5760a03660031901126100cf5767ffffffffffffffff90843582811161025f5761029890369087016103f7565b9590926024966024358281116103f3576102b590369085016103f7565b926044359081116103ef576102cd90369086016103f7565b919092869981156103e157508481148015906103d7575b6103c4578881116103a8579695949392919085975b8089106103265760608b8b610310606435836104c5565b9080519260843583111584526020840152820152f35b9091929394959697998a61036d8161035d896103646103478f89869161042d565b3561035d670de0b6b3a76400009788948c61042d565b3590610453565b0591888a61042d565b0590888282019283129112908015821691151617610396579960010197969594939291906102f9565b634e487b7160e01b8852601187528b88fd5b858960449281519263538e799b60e11b84528301526024820152fd5b88516001621398b960e31b031981528690fd5b50828114156102e4565b635435b28960e11b81528690fd5b8580fd5b8480fd5b9181601f840112156104285782359167ffffffffffffffff8311610428576020808501948460051b01011161042857565b600080fd5b919081101561043d5760051b0190565b634e487b7160e01b600052603260045260246000fd5b818102929160008212600160ff1b82141661047657818405149015171561047657565b634e487b7160e01b600052601160045260246000fd5b8181039291600013801582851316918412161761047657565b81156104af570490565b634e487b7160e01b600052601260045260246000fd5b906104cf8161051a565b918215610504576104e3916101c59161048c565b906127109182810292818404149015171561047657610501916104a5565b90565b9150501560001461051457600090565b60001990565b6000808212610527575090565b600160ff1b8214610536570390565b634e487b7160e01b81526011600452602490fd5b9190820391821161047657565b811561059c57818082111561058c576104e39161054a565b6127109182810292818404149015171561047657610501916104a5565b906105969161054a565b9061056f565b151590506105145760009056fea2646970667358221220e499fef054195a914f3795e5f5f2a786bb35cfe22e432e35fa64c079ca408fbe64736f6c63430008180033","linkReferences":{}},"methodIdentifiers":{"verifyCorridorPass(int256[],int256[],uint256,uint256)":"6147e6e3","verifyMWR(uint256,uint256,uint256,uint256)":"786d97b3","verifySingleMemberEPV(int256[],uint256[],uint256[],int256,uint256)":"075dc32a"},"id":23}